S00F000031332D554152542E7372656348
S214400000282A402029114000D9114000D91140002B
S214400010D9114000D9114000D9114000000000001D
S214400020000000000000000000000000D911400061
S214400030D911400000000000D9114000D9114000FD
S214400040D9114000D9114000D9114000D9114000C3
S214400050D9114000D9114000D9114000D9114000B3
S214400060D911400000000000C1094000D9094000F5
S214400070F1094000D91140007D184000D9114000D8
S214400080090A4000210A4000D9114000D911400019
S214400090D9114000D9114000D9114000D911400073
S2144000A0D9114000D9114000D9114000D911400063
S2144000B0D9114000D9114000D9114000D911400053
S2144000C0D9114000D9114000D9114000D911400043
S2144000D000000000D911400000000000D911400087
S2144000E0D9114000D9114000D9114000D911400023
S2144000F0D9114000D9114000D9114000D911400013
S214400100D9114000D9114000D9114000D911400002
S214400110D911400000000000000000000000000070
S214400120D9114000D9114000D9114000D9114000E2
S214400130D911400000000000D9114000D9114000FC
S21440014010B5054C237833B9044B13B10448AFF3CC
S21440015000800123237010BD8C0840200000000062
S21440016058674000084B10B51BB108490848AFF324
S21440017000800848036803B910BD074B002BFBD02E
S214400180BDE81040184700BF00000000900840201F
S21440019058674000586740000000000080B582B0B5
S2144001A000AF78607B68072B31D801A252F823F065
S2144001B00D024000D1014000D9014000E10140005D
S2144001C0E9014000F1014000F9014000030240000F
S2144001D00020114B98471AE001200F4B984716E035
S2144001E000200E4B984712E010200C4B98470EE02C
S2144001F020200A4B98470AE03E210020084B9847AB
S21440020005E03E210120064B984700E000BF00BFB6
S2144002100837BD4680BD00BF390B4000A50B4000E7
S214400220150C400080B582B000AF78607B68072B25
S21440023026D801A252F823F0590240005D02400041
S2144002405D0240006F0240006F0240006F024000B7
S2144002506F0240006F024000012312E00B4B9847AC
S2144002600346002B14BF01230023DBB209E0084BF2
S21440027098470346002B14BF01230023DBB200E05F
S214400280002318460837BD4680BD00BF710B4000AE
S2144002908D0C400080B483B000AF78607B68072B3D
S2144002A025D801A252F823F0C9024000CF024000F0
S2144002B0D5024000DB024000DF024000E30240007F
S2144002C0E7024000EB0240004FF4FA4310E04FF4E0
S2144002D000430DE04FF400430AE0084B08E0084BAB
S2144002E006E0084B04E0074B02E0064B00E0002324
S2144002F018460C37BD465DF8047B704700093D0044
S21440030000127A00001BB70080B582B000AF0346EB
S214400310FB7100BFFB791846054B9847034683F0B0
S2144003200103DBB2002BF5D100BF0837BD4680BDC8
S2144003302502400080B586B000AFF8607A603B602A
S2144003400B46FB727B68002B07D13B68002B04D121
S214400350FB684FF470021A6019E0FB7A18460E4BA1
S214400360984702467B68B2FBF3F37B617B693A6849
S21440037002FB03F37B613B68013B1A04074B1340C7
S2144003807A68D2B2134343F47C52FB681A6000BFCB
S2144003901837BD4680BD00BF950240000000FF07ED
S2144003A080B582B000AF786039603B68002B08D1DA
S2144003B0094B9847094A7B681B6843F00053936291
S2144003C005E0064A7B681B6843F48033D36100BF70
S2144003D00837BD4680BD00BFA90C400000060E4051
S2144003E080B582B000AF78607B68002B03D1054BA8
S2144003F09847034602E0044B98470346184608379A
S214400400BD4680BDC50C4000E10C400080B582B0C2
S21440041000AF0346FB71FB79033B042B08D8FB79FE
S2144004201846064B9847FB791846054B984700E018
S21440043000BF00BF0837BD4680BD00BF9D014000DD
S2144004400903400080B582B000AF786000BF78688E
S214400450044B98470346002BF9D00023184608372C
S214400460BD4680BDE103400080B500AF0620054B89
S2144004709847024613469B0013449A001344184676
S21440048080BD00BF9502400080B500AF024B984744
S2144004900346184680BD00BF6904400090B583B04F
S2144004A000AF1348134B98470620134B9847381D08
S2144004B0192301220621114CA0473B1D0021184656
S2144004C00F4B984700200F4B984702200E4B9847FB
S2144004D000200E4B98470E4B98470E4B98470346C6
S2144004E01846044B984700BF0C37BD4690BD00BF2A
S2144004F000A3E1114D1340000D04400035034000B9
S214400500A103400045044000390A4000B50A4000B7
S214400510E11140008904400080B485B000AFF86027
S214400520B9607A607B68002B03D0FB68BA685A666D
S21440053002E0FB68BA681A6600BF1437BD465DF82D
S214400540047B704780B483B000AF786039607B68C6
S2144005503A681A6300BF0C37BD465DF8047B7047A7
S21440056080B483B000AF786039607B683A685A637D
S21440057000BF0C37BD465DF8047B704780B487B03B
S21440058000AFF860B9607A60FB687A685A64BB6806
S214400590B3F1C05F4AD0B3F1C05F08D8B3F1006F83
S2144005A016D0B3F1805F2CD0002B69D064E0B3F155
S2144005B0205F65D0B3F1205F03D8B3F1005F4AD027
S2144005C05AE0B3F1405F5BD0B3F1605F58D053E080
S2144005D0FB681B6F7B61FB681A6F7B68D9437B693E
S2144005E00B401A40FB681A67FB685B6F7B61FB68D1
S2144005F05A6F7B68D9437B690B401A40FB685A6741
S2144006003AE0FB681B6F7B617A687B691A43FB683C
S2144006101A67FB685B6F7B61FB685A6F7B68D943E0
S2144006207B690B401A40FB685A6725E0FB681B6FE6
S2144006307B61FB681A6F7B68D9437B690B401A4025
S214400640FB681A67FB685B6F7B617A687B691A4355
S214400650FB685A6710E0FB681B6F7B617A687B69B2
S2144006601A43FB681A67FB685B6F7B617A687B6935
S2144006701A43FB685A6700BFFB687A685A6000E016
S21440068000BF1C37BD465DF8047B704780B584B01C
S21440069000AFF860B9607A60B968F868194B984757
S2144006A07B6803F001031A46B968F868164B98470A
S2144006B07B6803F00A03002B03D0FB68BA681A6213
S2144006C002E0FB68BA685A627B6803F00203002BBC
S2144006D004D0FB68BA68C3F8802008E07B6803F063
S2144006E00803002B03D0FB68BA68C3F88420FB6875
S2144006F0BA685A61FB68BA681A6000BF1037BD46D0
S21440070080BD00BF210840001905400080B584B078
S21440071000AFF860B9607A603B60B968F868124B21
S2144007209847BA69B968F868104B98473B68002BF9
S21440073003D0FB68BA681A6502E0FB68BA685A6577
S2144007407B68002B03D0FB68BA681A6302E0FB683C
S214400750BA685A63FB68BA681A61FB68BA681A6076
S21440076000BF1037BD4680BD210840001905400037
S21440077080B483B000AF786039607B689A6B3B6822
S2144007801340002B01D1002300E0012318460C370C
S214400790BD465DF8047B704780B485B000AFF86016
S2144007A0B9607A607B6803F01003002B20D0FB68AA
S2144007B0BA68C3F8B0207B6803F02003002B04D04F
S2144007C0FB68BA68C3F8D42003E0FB68BA68C3F88D
S2144007D0D0207B6803F04003002B04D0FB68BA6847
S2144007E0C3F8C02008E0FB68BA68C3F8C42003E03A
S2144007F0FB68BA68C3F8B42000BF1437BD465DF83E
S214400800047B704780B483B000AF786039607B6803
S2144008103A681A6400BF0C37BD465DF8047B7047E3
S21440082080B483B000AF786039607B683A685A64B9
S21440083000BF0C37BD465DF8047B704780B483B07C
S21440084000AF78607B68DB6C18460C37BD465DF8B9
S214400850047B704780B483B000AF78607B689B6C45
S21440086018460C37BD465DF8047B704780B584B0AB
S21440087000AF786039607868264B9847F8607868AB
S214400880254B98470246FB681340FB60FB68002BED
S2144008903CD00023BB6034E0204ABB681B011344B5
S2144008A01A683B689A4226D11C4ABB681B0113440F
S2144008B004331A68FB681340002B1CD0174ABB68E9
S2144008C01B0113440C331B681449BA6812010A44CE
S2144008D010681249BA6812010A4404321268114676
S2144008E098470E4ABB681B01134404331B68DB431E
S2144008F0FA681340FB60BB680133BB60BB68062BDD
S21440090003D8FB68002BC7D100E000BF00BF1037FC
S214400910BD4680BD3D08400055084000A808402020
S21440092080B586B000AFF860B9607A603B60214B16
S2144009301B68062B01D9012338E00023FB7511E024
S214400940FB7D1B011C4A13443B613B691A68BB682C
S2144009509A4204D13B695A687B689A4208D0FB7D2C
S2144009600133FB75FA7D134B1B689A42E8D900E0C9
S21440097000BF3B69BA681A603B697A685A603B694F
S2144009803A689A603B693A6ADA60FA7D094B1B68B6
S21440099001339A4204D1074B1B680133054A136062
S2144009A03A687968F868054B984700231846183720
S2144009B0BD4680BD18094020A80840209907400041
S2144009C080B500AF0A210248024B984700BF80BD61
S2144009D0000E0E406D08400080B500AF0B21024867
S2144009E0024B984700BF80BD00100E406D08400087
S2144009F080B500AF0C210248024B984700BF80BD2F
S214400A0000120E406D08400080B500AF102102482D
S214400A10024B984700BF80BD00140E406D08400052
S214400A2080B500AF11210248024B984700BF80BDF9
S214400A3000160E406D08400080B483B000AF78606A
S214400A407B68013B032B1AD801A252F823F000BF63
S214400A50610A4000670A40006F0A4000770A40007B
S214400A6000237B600EE04FF480737B600AE04FF417
S214400A7040737B6006E04FF400737B6002E0002327
S214400A807B6000BF0A490A4B1B6B23F440727B68AD
S214400A9013430B6300BF064B9B6E03F00803002B0B
S214400AA0F9D000BF0C37BD465DF8047B704700BFE9
S214400AB000060E4080B485B000AF78601D491D4BDF
S214400AC01B6B23F070027B6813430B634FF4805319
S214400AD0FB6007E0FB68002B01D1012323E0FB68A5
S214400AE0013BFB60134B9B6E03F00803002BF1D0D9
S214400AF0104A104B1B6B23F0030343F002031363AF
S214400B004FF48053FB6007E0FB68002B01D10123C4
S214400B1009E0FB68013BFB60064B9B6E03F0080355
S214400B20002BF1D0002318461437BD465DF8047BF1
S214400B30704700BF00060E4080B483B000AF7860B8
S214400B407B68012B05D10749064B9A68064B134331
S214400B508B60044B054A1A6000BF0C37BD465DF8F3
S214400B60047B704710180E40000010A5080000A532
S214400B7080B400AF094B5B6903F08003002B07D0BD
S214400B80074B9B6E03F08003002B01D0012300E04F
S214400B9000231846BD465DF8047B704710180E408B
S214400BA000060E4080B483B000AF78601549154B00
S214400BB01A6A154B13430B6200BF124B9B6E03F42D
S214400BC00033002BF9D00F490E4B1A6A0F4B1340D7
S214400BD07A68134343F45C130B6200BF094B9B6E69
S214400BE003F40033002BF9D00649064B1A6A084B2B
S214400BF0134043F45C130B6200BF0C37BD465DF8F0
S214400C00047B704700060E40080037008FFFC8FF81
S214400C10FFFFC8FE80B483B000AF786039607B6861
S214400C20002B08D01349134B1B6A134A1A40134B28
S214400C3013430B6218E00F490E4B1A6A104B1340D1
S214400C403A68120292B21A430E4B13430B6200BF2D
S214400C50084B9B6E03F00103002BF9D00549054B6A
S214400C601A6A094B13430B6200BF0C37BD465DF84A
S214400C70047B704700060E40FCFFC8FE02003701AA
S214400C80FCFFC8FF010037000000370180B400AF0A
S214400C90044B9B6E03F480331846BD465DF8047BD8
S214400CA0704700BF00060E4080B400AF044B4FF0C4
S214400CB000529A6200BFBD465DF8047B704700BF95
S214400CC000060E4080B400AF044B9B6E03F0020358
S214400CD01846BD465DF8047B704700BF00060E40D0
S214400CE080B400AF044B9B6E03F040031846BD46ED
S214400CF05DF8047B704700BF00060E4080B483B0AA
S214400D0000AF78607B683F2B01D901232FE07B68DA
S214400D101F2B13D8194B9A6901217B6801FA03F3FC
S214400D201A4001217B6801FA03F39A421ED0134A07
S214400D3001217B6801FA03F3136117E07B68203BCF
S214400D407B600E4BD3F8082101217B6801FA03F340
S214400D501A4001217B6801FA03F39A4206D0074AFB
S214400D6001217B6801FA03F3C2F8003100231846DC
S214400D700C37BD465DF8047B704700BF00060E404A
S214400D8080B483B000AF786039607B685B6903F0FD
S214400D900103002B01D1012305E07B689B69DAB291
S214400DA03B681A70002318460C37BD465DF8047B36
S214400DB0704700BF80B489B000AFF860B9607A6011
S214400DC0BB681A017B689A4202D81023FB6101E097
S214400DD00823FB617B68DA00FB69B96801FB03F313
S214400DE05B081A44FB69B96801FB03F3B2FBF3F3F3
S214400DF0BB61BB69DB087B61BB6903F007033B61F2
S214400E007B69002B03D07B69B3F5803F01D3012378
S214400E100FE0FB69082B05D1FB685B6843F40022B2
S214400E20FB685A603B691A047B691A43FB681A627E
S214400E30002318462437BD465DF8047B704700BF44
S214400E4080B582B000AF786078680D4B98477B6875
S214400E5000225A607B6800225A627B6800229A62AF
S214400E607868084B98477868074B98477868074BE8
S214400E7098477868064B984700BF0837BD4680BD00
S214400E8081104000350F40006D0F4000BD0F400000
S214400E90D90F400080B584B000AFF860B9607A6082
S214400EA0F8681A4B98471A4B00221A60BB68002B0A
S214400EB009D0BB681B687A681946F868154B98478E
S214400EC00346002B01D001231BE0BB685A68BB6871
S214400ED09B681A43BB681B691A43BB68DB681A43A6
S214400EE00B4B1B6813430A4A1360094B1B68084A9E
S214400EF01360FB685A68064B1B681A43FB685A60C7
S214400F00002318461037BD4680BD00BF410E400046
S214400F101C094020B50D400080B483B000AF786017
S214400F207B6840221A6000BF0C37BD465DF8047BE4
S214400F30704700BF80B483B000AF78607B6888227B
S214400F401A6000BF0C37BD465DF8047B704700BF93
S214400F5080B483B000AF78607B6810221A6000BF10
S214400F600C37BD465DF8047B704700BF80B483B045
S214400F7000AF78607B6824221A6000BF0C37BD46FD
S214400F805DF8047B704700BF80B483B000AF7860E4
S214400F9039607B683A689A6000BF0C37BD465DF89A
S214400FA0047B704780B483B000AF78607B685B6931
S214400FB018460C37BD465DF8047B704780B483B056
S214400FC000AF78607B684FF480721A6000BF0C37C1
S214400FD0BD465DF8047B704780B483B000AF786050
S214400FE07B684FF400221A6000BF0C37BD465DF8A0
S214400FF0047B704780B483B000AF78607B685B69E1
S21440100003F40073002B14BF01230023DBB2184601
S2144010100C37BD465DF8047B704700BF80B483B094
S21440102000AF7860396000BF7B685B6903F00203FD
S214401030002BF9D03B68C3F308027B68DA610023D3
S21440104018460C37BD465DF8047B704780B483B0C5
S21440105000AF786039607B685B6903F00103002B62
S21440106001D1012306E07B689B69C3F308023B6815
S2144010701A60002318460C37BD465DF8047B70475F
S21440108080B483B000AF78607B68044AC3F8E4203D
S21440109000BF0C37BD465DF8047B70470041535592
S2144010A080B483B000AFEFF310837B607B68002B87
S2144010B00CBF01230023DBB23B6072B6BFF35F8FE9
S2144010C0044B00221A703B6818460C37BD465DF844
S2144010D0047B70470C00402080B483B000AF78603B
S2144010E07B68002B14BF01230023DBB218460C3765
S2144010F0BD465DF8047B704780B582B000AF78602F
S2144011007868074B98470346002B05D0054B0122CD
S2144011101A70BFF35F8F62B600BF0837BD4680BD0A
S214401120D91040000C00402080B584B000AF1E4B64
S214401130FB601E4BBB60FA68BB689A420CD007E067
S214401140BB681A1DBA60FA68111DF96012681A6009
S214401150BB68174A9342F3D3164BBB6004E0BB68A8
S2144011601A1DBA6000221A60BB68134A9342F6D32F
S214401170124BFB60124AFB6823F07F039360114BCF
S21440118098477860104A104B1B6843F4700313600E
S214401190BFF34F8FBFF36F8F78680C4B98470C4B5D
S2144011A098470C4B9847FEE75867400000004020A1
S2144011B08C0840208C084020240A40200000400034
S2144011C000ED00E0A110400088ED00E0F91040007E
S2144011D0191D40002D19400080B400AFFEE700BF47
S2144011E080B400AF524B1B6B03F00303012B14D0AB
S2144011F0012B02D3022B38D07AE04E4B5B6903F0CA
S2144012008003002B04D04C4B4FF400421A606FE032
S214401210494B4FF4FA421A606AE0454B1B6A03F0AA
S2144012208073002B03D0444B444A1A6060E0424B24
S214401230434A1A603E4B1B6A03F07003102B04D0DF
S214401240202B08D0002B0ED00EE03B4B1B685B00DB
S214401250394A136008E0384B1A6813465B0013445B
S214401260354A136000E000BF42E0314B1B6A03F092
S2144012708073002B03D0304B304A1A601CE02E4B54
S2144012802F4A1A602A4B1B6A03F07003102B04D0B7
S214401290202B08D0002B0ED00EE0274B1B685B009F
S2144012A0254A136008E0244B1A6813465B00134433
S2144012B0214A136000E000BF1D4B1B6B03F0030385
S2144012C0022B14D11A4B9A6A1E4B13401B0C013347
S2144012D0194A126802FB03F3174A1360144B9B6AC1
S2144012E0DBB2154A1268B2FBF3F3134A136000BF31
S2144012F00F4B1B6B03F07003702B08D10E4B1B6813
S214401300114AA2FB03235B080B4A13600AE0084B12
S2144013101B6B03F070031B09074A126822FA03F39B
S214401320054A136000BFBD465DF8047B704700BFAA
S21440133000060E4010180E4010004020001BB7005C
S21440134000093D000000FF07ABAAAAAA80B483B0FC
S21440135000AF78607B68194A934204D8184B4FF028
S21440136080621A6023E07B68164A934203D8144B87
S214401370154A1A601BE07B68144A934203D8104B08
S214401380134A1A6013E07B68124A934203D80C4B08
S214401390114A1A600BE07B68104A934204D8084B07
S2144013A04FF004221A6002E0054B0D4A1A6000BF57
S2144013B00C37BD465DF8047B704700BFFF2C3101FB
S2144013C0000C0E40FF59620200010004FF869303A2
S2144013D000020004FFB3C40400030004FFE0F50568
S2144013E00005000480B485B000AF7860104BFB6009
S2144013F0104B1B68002B02D10E4B0F4A1A600D4B48
S2144014001B68BB60BA687B681A44FB689A4202DD78
S2144014104FF0FF3306E0074B1A687B681344054AD3
S2144014201360BB6818461437BD465DF8047B7047AA
S214401430FCFF452020094020282C402080B483B063
S21440144000AF0346FB71094997F907305B09FA7903
S21440145002F01F02012000FA02F241F8232000BFEA
S2144014600C37BD465DF8047B704700BF00E100E0E6
S21440147080B483B000AF03463960FB7197F90730FC
S214401480002B0BDA0D49FB7903F00F03043B3A6857
S214401490D2B25201D2B20B441A7609E0084997F903
S2144014A007303A68D2B25201D2B20B4483F80023D6
S2144014B000BF0C37BD465DF8047B704700ED00E08A
S2144014C000E100E080B483B000AF78607B68072B13
S2144014D025D801A252F823F0F9144000FF1440002A
S2144014E0051540000B1540000F1540001315400031
S2144014F0171540001B1540004FF4FA4310E04FF418
S21440150000430DE04FF400430AE0084B08E0084B68
S21440151006E0084B04E0074B02E0064B00E00023E1
S21440152018460C37BD465DF8047B704700093D0001
S21440153000127A00001BB70080B500AF0620054BAE
S2144015409847024613469B0013449A001344184695
S21440155080BD00BFC514400080B500AF024B984721
S2144015600346184680BD00BF3915400080B500AF21
S214401570024B984703465B08184680BD3915400025
S21440158080B582B000AF78607868034B984700BF5C
S2144015900837BD4680BD00BFFD0C400080B584B016
S2144015A000AF786039600023FB607B68344A934222
S2144015B007D100BF39687868324B98470346002BFE
S2144015C0F8D17B68304A934207D100BF39687868C3
S2144015D02C4B98470346002BF8D17B682B4A934206
S2144015E007D100BF39687868264B98470346002BDA
S2144015F0F8D17B68264A934207D100BF396878689D
S214401600204B98470346002BF8D17B68214A9342EB
S2144016100DD100BF07F10C03194678681E4B98475A
S2144016200346002BF6D1FB68DAB23B681A707B683B
S2144016301A4A93420DD100BF07F10C031946786849
S214401640154B98470346002BF6D1FB68DAB23B6849
S2144016501A707B68124A93420DD100BF07F10C0303
S214401660194678680C4B98470346002BF6D1FB6822
S214401670DAB23B681A7000BF1037BD4680BD00BF67
S21440168000080E40810D4000000A0E40001A0E4031
S214401690001C0E40004002404D10400000800240BA
S2144016A000C0024080B582B000AF786039604FF02D
S2144016B080510648064B98474FF480710548044BC6
S2144016C0984700BF0837BD4680BD00BF00140E4097
S2144016D0D916400000120E4080B582B000AF786048
S2144016E0396039687868094B98470346002B04D020
S2144016F039687868064B984703E039687868054B40
S214401700984700BF0837BD4680BD00BF7107400000
S214401710610540004505400090B583B002AF0A2001
S214401720104B984709224FF400610F480F4B9847DB
S2144017304FF400610C480E4B98470E4B00935023D5
S2144017404FF400620A2108480B4CA0470A200B4B76
S214401750984701210A200A4B984700BF0437BD46E8
S21440176090BD00BFFD0C4000000E0E408D064000B0
S21440177005084000A5164000210940003D144000E1
S2144017807114400090B585B002AF78600C20074BCE
S21440179098477A680023009300234FF480710448EA
S2144017A0044CA04700BF0C37BD4690BDFD0C400022
S2144017B000120E400D07400080B586B000AF0B20EB
S2144017C0224B98470A20214B984710224FF0005151
S2144017D01F48204B98474FF400124FF000611E48B8
S2144017E01C4B98471D4A1D4BD3F8143143F0100349
S2144017F0C2F814313B4600221A605A609A60DA609A
S2144018001A615A614FF4E1333B60C0237B604FF46A
S2144018100063BB600E200D4B9847114B984702461D
S2144018203B4619460F48104B984701210D480F4B31
S21440183098470E200E4B98470A480E4B9847094843
S2144018400D4B984700BF1837BD4680BD81154000F8
S21440185000100E407D054000000E0E4000800840FF
S2144018606D15400000800240950E4000890F4000F4
S2144018703D144000190F4000510F400080B582B023
S21440188000AF0948094B984778607B6803F001032E
S214401890002B05D00648074B98470548064B984707
S2144018A000BF0837BD4680BD00800240A50F4000FF
S2144018B05809402005194000BD18400080B582B048
S2144018C000AF78600EE07B685A1C7A601B78194639
S2144018D009480A4B984700BF0748094B98470346B4
S2144018E0002BF9D07B681B78002BECD100231846E0
S2144018F00837BD4680BD00BF008002401D10400036
S214401900F50F400080B582B000AF786004490548C6
S214401910054B9847002318460837BD4680BD00BF94
S21440192058094020008002409D1540002DE9F84FA0
S21440193000AF264B9847264B4FF400425A60012092
S214401940244B9847244B9847244B9847244A25498C
S2144019502548264B98472448254B9847254B98477B
S214401960034618464FF0000102460B464FEA830BEB
S2144019704BEA927B4FEA820A52465B465D0145EA55
S214401980D2655401A41A65EB0305241845EB0105FE
S2144019904FEAC50949EA54794FEAC40844464D46D9
S2144019A02046294641F22B724FF00003801841EB47
S2144019B00301114E41F22C724FF00003B04702462D
S2144019C00B46134618460D4B9847BFE79D0440000C
S2144019D050180E408517400019174000B9174000B0
S2144019E094654000A0654000BC094020051E4000AC
S2144019F0BD18400059154000011A40000100402023
S214401A0053B94AB9002908BF00281CBF4FF0FF3120
S214401A104FF0FF3000F07EB9ADF1080C6DE904CE12
S214401A2000F006F8DDF804E0DDE9022304B0704774
S214401A302DE9F0478C460E460446089D002B50D1B3
S214401A408A4217466CD9B2FA82FEBEF1000F0BD01E
S214401A50CEF1200420FA04F401FA0EF644EA060C0D
S214401A6002FA0EF700FA0EF44FEA1749220CBCFBB6
S214401A70F9F01FFA87F809FB10C642EA064600FB53
S214401A8008F3B34209D9F61900F1FF3280F02281FB
S214401A90B34240F21F8102383E44F61AA2B2B6FB69
S214401AA0F9F309FB136642EA064403FB08F8A0452F
S214401AB009D9E41903F1FF3280F00A81A04540F2CB
S214401AC00781023B3C44C8EB040443EA0040002143
S214401AD0002D62D024FA0EF400232C606B60BDE823
S214401AE0F0878B4207D9002D55D0002185E841006C
S214401AF00846BDE8F087B3FA83F1002940F09080AD
S214401B00B34202D3824200F2F880841A66EB0306A0
S214401B100120B446002D40D085E81010BDE8F0877F
S214401B2012B90127B7FBF2F7B7FA87FEBEF1000FEE
S214401B3035D1F31B4FEA17481FFA87FC0121B3FB48
S214401B40F8F0220C08FB103642EA06460CFB00F37F
S214401B50B34207D9F61900F1FF3202D2B34200F27F
S214401B60CE801046F61AA2B2B6FBF8F308FB136610
S214401B7042EA06440CFB03FCA44507D9E41903F1EA
S214401B80FF3202D2A44500F2B5801346CCEB0404E3
S214401B9043EA00409CE729462846BDE8F087CEF158
S214401BA0200106FA0EF307FA0EF720FA01F94FEA7B
S214401BB01748CE4049EA0309B6FBF8FA4FEA1944FB
S214401BC008FB1A661FFA87FC44EA06430AFB0CF237
S214401BD09A4200FA0EF40AD9DB190AF1FF3180F076
S214401BE087809A4240F28480AAF1020A3B449B1ABC
S214401BF01FFA89F9B3FBF8F108FB113349EA0343AE
S214401C0001FB0CF69E4207D9DB1901F1FF326BD27D
S214401C109E4269D902393B449B1B41EA0A418EE702
S214401C20C1F1200E22FA0EF48B40234320FA0EF721
S214401C3006FA01F44FEA134C26FA0EF63C43B6FB7E
S214401C40FCF9270C0CFB19661FFA83F847EA064690
S214401C5009FB08F7B74202FA01F200FA01FA08D97E
S214401C60F61809F1FF3041D2B7423FD9A9F102092F
S214401C701E44F61BA0B2B6FBFCF40CFB146640EA0E
S214401C80064704FB08F8B84507D9FF1804F1FF30AB
S214401C9028D2B84526D9023C1F4444EA0940C8EB3E
S214401CA00707A0FB02894F4544464E4614D329D029
S214401CB065B3BAEB040367EB060707FA0EFECB40A4
S214401CC0CF404EEA030385E888000021BDE8F08750
S214401CD01346F8E61046E0E6B8EB020469EB030666
S214401CE00138E5E70446D8E7114695E78146C0E760
S214401CF08A467CE7023B3C4448E708460AE7023807
S214401D003E442FE7C245E7D33E46D1E72946BDE8E5
S214401D10F08700BF704700BF70B50F4E0F4D761B63
S214401D20B61018BF002405D0013455F8043B984738
S214401D30A642F9D10A4E0B4D761B04F0F7FCB610BE
S214401D4018BF002406D0013455F8043B9847A642F5
S214401D50F9D170BD70BD00BF38674000386740009D
S214401D60406740003867400070B4840746D0541E31
S214401D70002A41D0CDB2034602E0621EE4B31446C8
S214401D8003F8015B9A07F8D1032C2ED9CDB245EA69
S214401D9005250F2C45EA054519D903F110022646BC
S214401DA0103E0F2E42F8105C42F80C5C42F8085C7D
S214401DB042F8045C02F11002F2D8A4F1100222F0BC
S214401DC00F0204F00F041032032C13440DD91E46A4
S214401DD02246043A032A46F8045BFAD8221F22F029
S214401DE003020432134404F003042CB1C9B21C4469
S214401DF003F8011BA342FBD170BC70471446034650
S214401E00C2E700BF0EB4F0B59CB021AB0F4953F803
S214401E10042B019305466FF00044086802954FF482
S214401E2002774FF6FF7602A90695ADF81470049433
S214401E300794ADF8166000F00BF8029B00221A706B
S214401E401CB0BDE8F04003B0704700BF40044020DF
S214401E502DE9F04FC1B00C46099115460E930A90F5
S214401E6002F02AFB03681793184603F009FAA38981
S214401E7016901E0603D52369002B01F01981002316
S214401E801A4612932593249319930B93DFF864A470
S214401E90149230AB239399461592A84698F8003092
S214401EA04446EBB1252B02D11AE0252B03D014F87B
S214401EB0013F002BF9D1C8EB04058DB1249B259A30
S214401EC0C9F8008001332A44072BC9F804502592EC
S214401ED0249300F3A68009F108090B9B2B440B932F
S214401EE02378002B00F0A68000231A468DF86F302A
S214401EF019460C9307934FF0FF3B637804F10108B3
S214401F005D4608F10108A3F12000582800F2258418
S214401F10DFE810F0880323042304900323042304FB
S214401F2023042304230423049703A50323045D000A
S214401F30E2002304FE000501050105010501050137
S214401F400501050105010501230423042304230498
S214401F5023042304230423042304230415018102B9
S214401F60230481022304230423042304C6022304F7
S214401F702304CD0223042304230423042304F7026A
S214401F8023042304250323042304230423042304D3
S214401F9023042304230423042304660379038102D1
S214401FA0810281028103790323042304D10323049D
S214401FB0DB03A3006400EE032304F5032304AA0313
S214401FC023042304BC030C980E9340420C90079BBA
S214401FD043F00403079398F8003092E70E98AB4618
S214401FE0002104688DF86F10071D0798302378226B
S214401FF08B458DF870304FF000058DF8712040F01D
S2144020000203C0F2C78320F0800343F00203079325
S21440201054EA05030E9700F093830F461192B34897
S214402020CEE223AA09990A9803F098F948B90DF127
S214402030C00952E7259B23B10A98099923AA03F0C1
S2144020408DF9099B9B8913F0400F0B9B18BF4FF0EF
S214402050FF33184641B0BDE8F08F1193AB46002AD7
S21440206041F02382079A12F0200300F02E820E9F42
S214402070073727F00703002703F10801BB450E91F9
S214402080D3E900458DF86F70C0F2528722F0800386
S214402090079354EA050300F0758330AEE20842EA3F
S2144020A04572E90804F007030D461446303354EAF7
S2144020B0050206F8013DF1D1079AD10740F1848028
S2144020C0302B00F081803022731E06F8012C30AA97
S2144020D0D21A0D921E467AE098F800302A2B08F164
S2144020E0010401F0B181A3F13000092898BF002512
S2144020F001F2648114F8013B05EB850500EB4505CC
S214402100A3F130000928F5D945EAE575A046FAE678
S214402110079B43F08003079398F80030F1E6A3F15D
S214402120300000231C4618F8013B04EB840400EB07
S2144021304404A3F130000928F5D90C94E3E6119342
S214402140AB46002A41F0C981079B43F01003079332
S214402150079B980640F130850E9F073727F0070704
S214402160D7E9002307F108010E9114461D46002AC0
S21440217073F10003C0F25B85BBF1000F9DF86F70F2
S214402180C0F23885079B23F08003079354EA050383
S21440219000F0DB81002D08BF0A2CC0F0DB8130AE9A
S2144021A0204629460A220023FFF72AFC303206F84A
S2144021B0012D2046294600230A22FFF721FC04462B
S2144021C00D4654EA0503EBD130AB9B1B0D930D9B9C
S2144021D05B45B8BF5B4608930023139317B1089B33
S2144021E001330893079B13F002030F9302D0089B1A
S2144021F002330893079B13F08403109340F0D78272
S2144022000C9B089A9D1A002D40F3D182102D2599DB
S214402210249A374F27DD189648461024B946099E1B
S2144022202F460A9D04E0103F102F00F1080016DDEF
S21440223001322F4B24921031072A259180E818004E
S214402240F1DD23AA3146284603F088F800287FF4BB
S214402250F8AE103F102F2599249A30A8E8DC189E37
S2144022603D464F46814601326C18072A25942492F3
S214402270C9F80070C9F8045000F328849DF86F70C0
S21440228009F1080977B1249B013301340DF16F0140
S2144022900122072B2594249389E8060000F3A083A7
S2144022A009F108090F9B6BB1249B013302341CA92A
S2144022B00222072B2594249389E8060000F39C838A
S2144022C009F10809109B802B00F0D5820D9BC3EBCB
S2144022D00B07002F39DD074A249B0F92102F28DD6D
S2144022E022464FF0100B0A9D099C0AE0E465400028
S2144022F004664000B0654000103F102F09F1080901
S21440230016DD01331032072B2592249389E8000C02
S214402310F2DD23AA2146284603F020F800287FF461
S21440232090AE103F102F259A249B0DF1C009E8DC93
S214402330144601330F9A24933C44072B259489E88E
S214402340840000F3418309F10809079BDA0500F190
S2144023503082249B0D99C9F8006001330C44072B4A
S2144023602594C9F80410249300F3188309F108094A
S214402370079B59073FD50C9B089A9D1A002D3ADDBE
S214402380102D249BBC4F23DD22461026DDF828B0B6
S214402390099C04E0103D102D09F1080917DD0133B2
S2144023A0B54924931032072B259289E84200F1DD87
S2144023B023AA2146584602F0D1FF00287FF441AEBA
S2144023C0103D102D259A249B0DF1C009E7DC1446DC
S2144023D001332C44072B25942493C9F80070C9F880
S2144023E0045008DD23AA09990A9802F0B7FF00288E
S2144023F07FF427AE259C0B9B0C9A08998A42ACBF6B
S2144024009B185B180B93002C40F0D4820023249337
S2144024100DF1C00942E51193AB46002A41F05980C0
S2144024200E9F073727F0070303F108020E921A683B
S21440243014925B681593159B149D23F00044284620
S21440244021464FF0FF328D4B04F066F8002840F0EE
S214402450C184284621464FF0FF32884B04F03EF8B0
S214402460002840F0B784149815990022002304F001
S2144024702BF8002840F04B879DF86F70804E814BBC
S214402480079921F080010791119903224FF0000B24
S21440249008924729D8BF1E460D92CDF84CB09DE60F
S2144024A0079B43F00803079398F8003029E51193FB
S2144024B0AB46002A41F00980079B43F01003079380
S2144024C0079A12F020037FF4D2AD079911F010025C
S2144024D000F007850E988DF86F30BBF1000F04684A
S2144024E000F104074FF00005C0F221850A4622F0AD
S2144024F08002079254EA05020E9700F043811F4679
S214402500CBE51193AB46002A40F0D787079B43F0B4
S21440251010030793079A12F0200300F032830E9FB1
S214402520073727F00703002703F10801BB450E9144
S214402530D3E900458DF86F70C0F25C8322F08003CB
S214402540079354EA05037FF425AEBBF1000F00F075
S214402550FE80002440AE303406F8414D34E61193F8
S214402560AB46002A40F0A587079B47489D0640F1AA
S21440257097800E9F073727F00703D3E9004503F1FE
S21440258008020E92079A12F0010700F0418254EAC0
S214402590050300F0F5849DF844208DF8712000274F
S2144025A0079A8DF86F703023BB458DF8703042F037
S2144025B00203C0F2A98622F0800343F00203079389
S2144025C030AE230904F00F0143EA05732A091C467E
S2144025D01546435C06F8013D54EA0503F1D1F3E5A0
S2144025E00E9911930A688DF8982000230A461F46D4
S2144025F08DF86F30043201230893BB4613970E9232
S2144026000D9326AEEEE51193AB46002A3FF4A0ADFF
S2144026108DF86F109CE5079B43F04003079398F8AE
S21440262000306EE498F8003000297FF46AAC01224E
S214402630202166E4079B43F00103079398F8003097
S2144026405FE40E9C23680C9318460028234603F14B
S2144026500403FFF6B8AC0E9398F8003051E498F8AF
S214402660003001222B214CE41193AB46002A3FF464
S21440267051AF8DF86F104DE704664000FFFFEF7FC7
S214402680C4654000C0654000D06540001193AB462D
S214402690002A40F00387079B99489D063FF569AF9F
S2144026A0079BDC0640F15E840E9A1346043314689A
S2144026B00E93002566E798F800306C2B00F0E18416
S2144026C0079840F0100007901BE4002A40F0DB8695
S2144026D0079B9B0640F12F840E9A0B991368CD17E3
S2144026E00846043229460E92C3E90001FFF7D6BBDE
S2144026F0079B43F02003079398F8003001E40E9AB6
S2144027001193166800248DF86F40171D002E00F0B8
S214402710BD85002DC0F20F852A462146304602F080
S21440272087F9002800F00486831B0D93A34623EA0E
S214402730E3730E970893CDF84CB09DF86F704DE557
S2144027406F481192BBF1000F40F073815F464FF027
S214402750000BCDF834B030AE39E51193002A40F086
S214402760B086119A002A3FF465AC002301211F462B
S21440277008918DF898208DF86F309B4613930D91F5
S21440278026AE2FE5BBF1000F00F0DD8500270024C4
S214402790002582E45A480793119254EA05030E979F
S2144027A04FF000077FF40CAF0024002508E7259C77
S2144027B068E5119B652B40F3A98014981599002273
S2144027C0002303F077FE002800F03581249B4D4A15
S2144027D0C9F80020013301340122072B25942493A5
S2144027E0C9F8042000F3E68309F108091D9B129AF4
S2144027F0934203DB079BDB077FF5BAAD249B169914
S214402800179AC9F8002001330C44072B2594C9F8C1
S2144028100410249300F33F8409F10809129B5D1EBF
S214402820002D7FF7A5AD384A249B0F92102D40F31C
S214402830E68110260A9FDDF824B005E009F1080974
S214402840103D102D40F3DB8101331034072B2594C7
S2144028502493C9F800A0C9F80460EFDD23AA5946BE
S214402860384602F07BFD00287FF4EBAB259C249B8A
S2144028700DF1C009E4E70C9B089A9F1A002F7FF7DA
S21440288025AD214A249B0F92102F2BDD4A46214628
S214402890B946102537460A9C099E06E0A9F110095C
S2144028A0B9F1100F02F1080218DD01331031072B81
S2144028B025912493C2F800A05560EFDD23AA314647
S2144028C0204602F04BFD00287FF4BBABA9F110096F
S2144028D0B9F1100F2599249B30AAE6DC3E460C46FB
S2144028E04F46914601330F9A24933C44072B259438
S2144028F089E8840000F3458209F10809E6E400BF50
S214402900E465400000664000B0654000129B249D90
S214402910012B40F30882013501340123072D25940D
S2144029202495C9F80060C9F8043000F30D8209F117
S2144029300809169A179BC9F8003001351444072D2C
S21440294025942495C9F8042000F30E8209F108095D
S214402950002314981599002203F0ACFD129B002822
S21440296040F0C380013B013501361C44072D2495B9
S2144029702594C9F80060C9F8043000F3F58009F1E1
S2144029800809199AC9F80420013514441FAB072DCD
S21440299025942495C9F800307FF7E8AC23AA099916
S2144029A00A9802F0DBFC00287FF44BAB259C0DF127
S2144029B0C009DDE423AA09990A9802F0CFFC002852
S2144029C03FF424ADFFF73DBB23AA09990A9802F0CD
S2144029D0C5FC00287FF435AB259C0DF1C009B4E456
S2144029E023AA09990A9802F0B9FC00287FF429AB7B
S2144029F0259C0DF1C00955E423AA09990A9802F0CE
S214402A00ADFC00287FF41DAB259C0DF1C00959E4B0
S214402A10BBF1000F8DF86F70C0F2D88222F08003B1
S214402A20079354EA05037FF4CBADBBF1000F3FF4A8
S214402A308DAE0027B8E61D9D002D40F3CA82139B3D
S214402A40129A9342A8BF1346002B1D460DDD249BC9
S214402A50C9F8006001332C44072B2594C9F804506C
S214402A60249300F39C8309F10809139B002DA8BF0B
S214402A705B1B002B1D4640F3F680BA4A249B0F9200
S214402A80102D40F38A8222461027DDF828B0099C94
S214402A9005E009F10809103D102D40F37D82013311
S214402AA01032072B25922493C9F800A0C9F8047069
S214402AB0EFDD23AA2146584602F050FC00287FF45A
S214402AC0C0AA259A249B0DF1C009E4E723AA0999D8
S214402AD00A9802F043FC00287FF4B3AA9DF86F7072
S214402AE0259C0DF1C009FFF7CDBB5E1E002E7FF77B
S214402AF048AF9C4B0F93102E2CDDCDF8348010271A
S214402B00B046DDF828B0099E06E0A8F11008B8F1F6
S214402B10100F09F108091ADD01351034072D2594E8
S214402B202495C9F800A0C9F80470EEDD23AA314602
S214402B30584602F013FC00287FF483AAA8F1100838
S214402B40B8F1100F259C249D0DF1C009E4DC4646E3
S214402B50DDF834800F9B01353444072D25942495A9
S214402B6089E848007FF70BAF23AA09990A9802F034
S214402B70F5FB00287FF465AA259C249D0DF1C0092D
S214402B80FFE6079911F0100200F008810E988DF8C4
S214402B906F30BBF1000F046800F104074FF00005EA
S214402BA026DB0A4622F08002079254EA05020E9778
S214402BB01F467FF4EFAAC8E4079BD9062AD4079B92
S214402BC05A0627D50E99B1F900400431E51722463A
S214402BD02B460E91FFF7CBBA0E998DF86F30BBF1AE
S214402BE0000F0C6801F104074FF0000580F24782A1
S214402BF00E971F4654EA05037FF4CCAAAAE4013395
S214402C000F9A24932C44072B259489E824007FF7B9
S214402C10ADABC3E60E9A146813460433E517224656
S214402C200E93002A2B4673F10003BFF6A5AA644212
S214402C304FF02D0765EB4505BBF1000F8DF86F7023
S214402C40FFF6A8AA079B23F080030793FFF7A2BAD4
S214402C5023AA09990A9802F081FB00287FF4F1A97B
S214402C60259C0DF1C009139A1D9B32441746129AB3
S214402C70934247DB079AD50744D412990E44F51B76
S214402C80CB1A9D42A8BF1D46002D2E460DDD249A28
S214402C90C9F8007001322C44072A2594C9F804501C
S214402CA0249200F30B8309F10809002EACBF9D1B4C
S214402CB01D46002D7FF75CAB2A4A249B0F92102DB1
S214402CC09DDD10260A9FDDF824B004E009F10809CE
S214402CD0103D102D93DD01331034072B259424939B
S214402CE0C9F800A0C9F80460F0DD23AA5946384662
S214402CF002F034FB00287FF4A4A9259C249B0DF108
S214402D00C009E5E7249A16981799C9F800100132C9
S214402D100444072A2594C9F80400249200F3A982A3
S214402D2009F10809A9E7079BD8073FF5F4AD013537
S214402D3001340123072D25942495C9F80060C9F86D
S214402D4004307FF71CAE0FE723AA09990A9802F0D1
S214402D5005FB00287FF475A9259C249D0DF1C0092C
S214402D60E7E500BFB065400023AA09990A9802F03B
S214402D70F5FA00287FF465A9259C249D0DF1C0092D
S214402D80E6E523AA09990A9802F0E8FA00287FF4B3
S214402D9058A9259C0DF1C009FFF798BA079911F07C
S214402DA040033FF419AF0E988DF86F20BBF1000F2B
S214402DB0048800F104074FF00005C0F2B98121F005
S214402DC08003079354EA05030E9717467FF4E2A95B
S214402DD0FFF7BBBB149C22462046159C2346214643
S214402DE003F09AFB002840F01783119BBBF1FF3F8E
S214402DF023F020030D9300F07082472B00F0928161
S214402E00079B43F480731093159B1F1E149B0893D7
S214402E10BBBF3B4603F1004700232D230F93119B76
S214402E20662B00F05D82462B00F051810D9B089A80
S214402E30452B21A81EA90CBF0BF101055D46049049
S214402E4003911DA802213B460290019500910A98E5
S214402E5000F0F2FB119B672B064640F09082079BE2
S214402E60DA0740F1AF8274190898394600220023E9
S214402E7003F020FB002840F09081219B9C4206D91D
S214402E8030215A1C21921970219B9C42F9D89B1BD9
S214402E9012930D9B472B00F07981119B652B40F3D5
S214402EA07D82119B662B1D9B139300F05B82139AC9
S214402EB012998A42C0F23082079BD90700F1848279
S214402EC022EAE2730D92672211920F9A002A40F08E
S214402ED053810893109B079393469DF86F70FFF7B6
S214402EE07DB9079911F0400315D00E988DF86F20E4
S214402EF0BBF1000F048800F104074FF0000516DB15
S214402F0021F08003079354EA05030E973FF43AAC4A
S214402F101746FFF7C2B80E998DF86F30BBF1000F19
S214402F200C6801F104074FF0000580F2A5800E976B
S214402F300027FFF7B2B8079BDF060BD4079B5E0659
S214402F4008D50E9A136804320E92BDF82C201A80CB
S214402F50FEF7A4BF0E9A136804320E920B9A1A60BC
S214402F60FEF79CBF0E9A079B13F0400F134603F1E3
S214402F7004030CBF146814880E930025FFF702BBA9
S214402F800027BB458DF86F70FFF60EAC079B23F00D
S214402F9080030793FFF7D6BB144601330F9A24935A
S214402FA02C44072B259489E824003FF751AE09F1BD
S214402FB0080958E623AA09990A9802F0CFF900288A
S214402FC07FF43FA8259C0DF1C0090FE40E9FFFF744
S214402FD0E4BB249BB54AC9F80020013301340122E2
S214402FE0072B25942493C9F8042000F38E8009F11A
S214402FF008092DB9129B1BB9079BDF077FF5B8A9B7
S214403000249B1699179AC9F8002001330C44072BC5
S2144030102594C9F80410249300F3C28109F10809E5
S2144030206D42002D40F39B80A14A0F92102D40F335
S214403030C38022461027DDF828B0099C05E009F138
S2144030400809103D102D40F3B68001331032072B8F
S21440305025922493C9F800A0C9F80470EFDD23AA8E
S2144030602146584602F07AF900287EF4EAAF259ABF
S214403070249B0DF1C009E4E7079AFFF738BA079A90
S21440308090E5079B43F02003079308F1010898F862
S2144030900030FEF736BF23AA09990A9802F05EF977
S2144030A000287EF4CEAF259C0DF1C009FFF7B6BBD5
S2144030B040210A9801F004FA099A1060106100282D
S2144030C000F0E581099A40235361FEF7D8BE21A857
S2144030D01EA9049003911DA803210290089ACDF8DA
S2144030E004B03B4600910A9800F0A6FA5D460646B4
S2144030F0119B462B06EB05047FF4B6AE3378302B97
S21440310000F07C811D9D2C44AEE623AA09990A98BE
S21440311002F024F900287EF494AF1D9D259C0DF105
S214403120C00966E7BBF1000F08BF4FF0010B67E62A
S2144031300E9717465EE5304602F0A2F8A3460346D1
S2144031400D90FFF7F4BA23AA09990A9802F006F9F7
S21440315000287EF476AF259C249B0DF1C009129979
S214403160C9F8006001330C44072B25942493C9F812
S21440317004107FF7FBA811E42D270893109B0793B4
S2144031808DF86F704FF0000BFFF729B81D9BDD1CC4
S2144031901EDB9B451CDB139389E6234677E623AA72
S2144031A009990A9802F0DAF800287EF44AAF259C7E
S2144031B00DF1C00959E4144601330F9A24932C4468
S2144031C0072B259489E82400BDDC09F10809C6E7E9
S2144031D0119A023A1192013B002B9DF844201D9310
S2144031E0B8BF5B428DF87C20B4BF2D222B22092B22
S2144031F08DF87D2040F3F1800DF18B0004462D4A7A
S21440320082FB0321DA17C2EBA10202EB8201A3EB99
S214403210410303F13001092A134604F8011DEEDC90
S21440322021463033DAB201F8012D884240F23A8125
S2144032300DF17E01234601E013F8012B01F8012B26
S2144032409842F9D1431C1B1B0DF17E0213441FAA62
S2144032509B1A129A1993012A13440D9340F3EA805D
S2144032600D9B169A134400220D93139223EAE373A0
S2144032702BE623AA09990A9802F070F800287EF4F3
S214403280E0AE1D9B259C0DF1C009F6E4062D2B46AD
S21440329028BF06230D9323EAE373B3460E9713968F
S2144032A037460893044EFEF799BF00BF00664000BD
S2144032B0B065400067666666F865400023AA0999CF
S2144032C00A9802F04BF800287EF4BBAE1D9B129A7B
S2144032D0259CD31A0DF1C009E7E44FF0060B8FE5A5
S2144032E021A81EA9049003911DA803210290089AC4
S2144032F0CDF804B03B4600910A9800F09DF95D4633
S214403300064600EB0B04F9E60793FFF759B92D275D
S2144033108DF86F70FFF7B2B8169A129B1344139A43
S2144033200D93002A7EDD672223EAE3731192CCE5F3
S21440333025EAE5730E9708930D95834613909DF8FE
S2144033406F70FEF74BBF079BDB075F4605D540AE69
S214403350302306F8413DFEF737BFCDF834B030AEE7
S214403360FEF735BF002B7DDDBBF1000F3DD1079A40
S214403370D4073AD41A460D9223EAE373A5E5119B87
S214403380472B7FF470AD079BDB073FF5B1AE219B23
S2144033909B1B12930D9B472B3FF4F8AE1D9B1AE7E1
S2144033A023AA09990A9801F0D9FF00287EF449AE6D
S2144033B01D9D259C249B0DF1C00931E6A0460025A5
S2144033C0FEF7A1BD219B62E5169A139B1344672224
S2144033D00D93119223EAE37377E5303330228DF86C
S2144033E07F308DF87E2020AB31E7139B169A9D18D0
S2144033F005EB0B030D9323EAE37366E5089839461D
S2144034000022002303F056F800287FF47BAEC5F177
S21440341001051D952C4427E5324E334B9DF86F70C1
S214403420FFF72EB8139B0D9AC3F101031A441346B7
S2144034300D9278E7079B13F001037FF411AF1393C7
S2144034400D9B23EAE37340E50E9898F80130056833
S2144034500430002D0E90A046BEF653AD4FF0FF351B
S214403460FEF74FBDBBF1000F02D1079BD80707D52B
S214403470169B5D1C05EB0B030D9323EAE37324E5D3
S21440348001230D9321E58DF86F10FFF721B90A9AB5
S2144034900C2313604FF0FF30FEF7DCBD8DF86F1045
S2144034A0FFF7F9B80DF17E03D1E68DF86F10FEF701
S2144034B0D9BD8DF86F10FFF757B88DF86F10FFF72E
S2144034C025B88DF86F10FFF74CB98DF86F10FEF7E2
S2144034D0F3BF8DF86F10FEF7A3BF8DF86F10FEF7A1
S2144034E033BE00BFCC654000C8654000024B13B1F8
S2144034F0024800F005B870470000000091444000C4
S214403500002301461A46184601F0A8BF02690B6917
S214403510934200F38D802DE9F04F03F1FF3801F11F
S214403520140700F1140B57F828205BF828304FEAB0
S214403530880483B00132B3FBF2F90BEB040300942A
S21440354007EB040A0193B9F1000F39D00025BC46B9
S214403550DE462B465CF8046BDEF80020B4B209FB6E
S2144035600455360C2C0C09FB0644ADB25B1BA6B2C8
S21440357013FA82F3C6EB124606EB23469BB243EAA7
S2144035800643E2454EF8043B4FEA14454FEA2643CD
S214403590E0D2009B5BF8033093B9019C231F9B4508
S2144035A00CD254F8043C4BB9A4F1080302E01A6864
S2144035B0043B1AB99B4508F1FF38F8D3C0F8108091
S2144035C0044601F02BFD00282EDB09F101095D467B
S2144035D0002357F8041B28688AB29A1A090C12FA74
S2144035E080F2C1EB104303EB224391B241EA034120
S2144035F0BA4545F8041B4FEA2343EAD25BF8282035
S2144036000BEB880382B91A1F93450BD253F8042C50
S21440361042B9083B02E01A68043B1AB99B4508F1D8
S214403620FF38F8D3C4F81080484603B0BDE8F08FA2
S21440363000207047000000002DE9F04F016C97B065
S2144036408146239C92469B4649B1426C4A60012380
S21440365093408B6001F000FB0023C9F84030BBF17B
S214403660000FD84633DB00232360A54B1A4608EAF2
S2144036700303934214D0504659460022002302F0DA
S21440368019FF054648B3229A01231360249B002B5A
S21440369000F0C5809B481860013817B0BDE8F08F31
S2144036A0229A42F20F731360BAF1000F00F0A28024
S2144036B09548249B002BF0D0C378002B00F0B180B7
S2144036C000F10803249A136017B0BDE8F08F012379
S2144036D02BF000482360C346C7E714AA15AB0192F7
S2144036E0009352465B46484601F042FD5FEA185456
S2144036F0089040F08880149D159C2C4404F2324378
S214403700202B40F39182C3F1400304F2124008FAA2
S21440371003F82AFA00F040EA080002F0EDFB012325
S214403720013CA1F1F87110930022784B02F0A6FA02
S2144037306DA3D3E9002302F055FC6DA3D3E9002323
S21440374002F09EFA064620460F4602F0E5FB6AA3C4
S214403750D3E9002302F046FC02460B463046394683
S21440376002F08EFA06460F4602F0ECFE0022049067
S21440377000233046394602F0A7FE002840F030824B
S214403780049E162E00F22982614B03EBC603D3E952
S214403790000152465B4602F0B5FE002800F0498222
S2144037A0731E049300230C932C1B631E029300F19C
S2144037B0328200230593049B002BC0F22382029A98
S2144037C00B9311461944002302910A93209B092B20
S2144037D029D8052B40F35886043B20930025209B90
S2144037E0023B032B00F23586DFE813F02C03280259
S2144037F037035904444B474AC8F31300002814BF04
S2144038001846104655E7CBF3130343F07F51109507
S2144038105046A4F2FF3441F44011149D84E73E48DC
S2144038203BE7C31C4EE70021C9F8441048462091A8
S21440383001F0ECF94FF0FF330693209A0D930123E5
S21440384007902192C9F840000993159B002BC0F2BF
S214403850D180049A0E2A00F3CD802D4B03EBC20391
S214403860D3E90034CDE90234219B002BC0F200831B
S21440387056465F4650465946DDE902AB52465B46E1
S21440388002F0DAFC02F05EFE044602F045FB5246C9
S2144038905B4602F0A7FB0B4602463946304602F02E
S2144038A0EDF9079D04F130032B70069B012B06466D
S2144038B00F4605F1010562D00022184B02F092FB3C
S2144038C00022002306460F4602F0F4FD00287ED173
S2144038D0CDF81490DDF818A0DDF81CB0DDE90289BB
S2144038E029E000BFAFF3008061436F63A787D23FF4
S2144038F0B3C8608B288AC63FFB799F501344D33F9A
S2144039000000F07F01664000206640000000F83F5F
S21440391030664000146640000066400000002440C8
S21440392002F060FB0022002306460F4602F0C2FD6E
S214403930002840F0B78342464B463046394602F0B0
S2144039407BFC02F0FFFD044602F0E6FA42464B4698
S21440395002F048FB02460B463046394602F08EF9E6
S21440396004F1300E05F801EBCBEB050ED6450646C6
S2144039700F464FF00002B04BD2D1DDF814903246DD
S2144039803B463046394602F07BF906460F4602462D
S2144039900B46DDE9020102F097FD40B932463B4650
S2144039A0DDE9020102F086FD88B1E3070FD515F880
S2144039B0014C079A6B1E04E09A4200F02C8413F8E0
S2144039C0014D392C03F10105F6D001341C700899DD
S2144039D0484601F041F90022049B2A70229A01339E
S2144039E01360249B002B00F0A78307981D6017B038
S2144039F0BDE8F08F099A002A00F01281209A012A29
S214403A0040F35882069B0A9A5F1EBA42C0F29783DA
S214403A10D71B069B002BC0F28A84059D069B059A01
S214403A201A440592029A01211A444846029201F02D
S214403A30ABF9064665B1029900290B4608DDA94256
S214403A40059AA8BF2B46D21AED1ACB1A05920293B6
S214403A500A9B002B40F3FC82099A002A00F0018260
S214403A60002F00F0FE8131463A46484601F02EFAD5
S214403A70DDF82080014642460646484601F08EF96B
S214403A8041460446484601F0E7F80A9BDB1B0A938A
S214403A9040F0E6810121484601F076F90B9B8046CE
S214403AA0002B00F0198201461A46484601F00EFAED
S214403AB0209B012B804640F3F8820027D8F8103030
S214403AC008EB8303186901F011F9C0F12000029A4F
S214403AD0104410F01F0000F0F681C0F12003042BC4
S214403AE040F3CA84059BC0F11C000344059313466B
S214403AF0034405440293059B002B05DD21461A46E8
S214403B00484601F033FA0446029B002B05DD414649
S214403B101A46484601F02AFA80460C9B002B40F095
S214403B207C82069B002B40F39582099B002B40F03D
S214403B30F581DDF81CB0069F5D4602E001F096F880
S214403B40044641462046FFF7E1FC00F1300A05F8FE
S214403B5001ABCBEB0503BB424FF00A024FF000032C
S214403B6021464846EADB079B069A012AACBF9B18CB
S214403B7001331D464FF0000B21460122484601F016
S214403B80F5F94146089001F049FA002840F30D83C4
S214403B9015F8012C07996B1E04E08B4200F07882E2
S214403BA013F8012D392A03F10105F6D001321A70B7
S214403BB04146484601F050F8002E3FF408AFBBF1AE
S214403BC0000F05D0B34503D05946484601F044F8A7
S214403BD03146484601F040F8F9E601230C93E3E508
S214403BE0DDF81080404602F097F902460B46304614
S214403BF0394602F05FFC00287FF4C2AD08F1FF337F
S214403C000493BDE5059A049BD21A5B420A930023AF
S214403C1005920B93DAE55B42059300230293CAE5CF
S214403C200A9F059D099E05E7C3F120080AFA08F099
S214403C3073E50C90B8E500BF0000244000230993CC
S214403C40049B219A13440D930133002B069340F3B3
S214403C508382069C26460021172EC9F844100BD9AD
S214403C60012204235B0003F11400B042114602F126
S214403C700102F7D9C9F84410484600F0C7FF0E2C99
S214403C800790C9F840003FF6E0AD002D3FF4DDADAB
S214403C9004995746D8460029CDE90E7840F39282DB
S214403CA0914B01F00F020E1103EBC203F006D3E96D
S214403CB0004540F14C828D4B50465946D3E9082387
S214403CC002F0BAFA06F00F0682468B464FF003081B
S214403CD086B1864FF10709D520462946D7E9002305
S214403CE002F080F908F1010804460D46761007F107
S214403CF00807EFD122462B465046594602F09CFA1A
S214403D0006460F460C9B43B10022794B3046394657
S214403D1002F0DAFB002840F02083404602F0FCF830
S214403D2032463B4602F05EF9724B002201F0A8FF95
S214403D30069B0446A1F15075002B00F0DF81049BE2
S214403D40DDF818801193099B002B00F09782664B94
S214403D50694903EBC80353E90223002002F06CFADA
S214403D6022462B4601F08AFF82468B46304639462D
S214403D7002F0E8FB044602F0CFF802460B46304617
S214403D80394601F07BFF3034079DE4B206460F46C5
S214403D902C7002460B4650465946013502F0B2FB9F
S214403DA000284CD132463B460020514901F066FF80
S214403DB002460B465046594602F0A4FB002840F007
S214403DC00D83B8F1010F40F3B381079B98440DE093
S214403DD00020474901F052FF52465B4602F074FB12
S214403DE0002840F0FB82454500F0A28150465946E7
S214403DF00022424B02F0F6F80022404B82468B46A9
S214403E003046394602F0EEF80F46064602F09AFB78
S214403E10044602F081F802460B463046394601F029
S214403E202DFF3034E4B252465B4605F8014B064659
S214403E300F4602F049FB32463B460028C8D0119B4D
S214403E400493C4E500230993219B002B40F389810A
S214403E501E461C460D930693FDE601230993F3E7A1
S214403E6008940A9A0899484601F030F8044611E644
S214403E70069B002B3FF7FCAC40F0DA820022204B3A
S214403E80DDE9020102F0AEF852465B4602F030FB36
S214403E90DDF818804646002800F0F280219B079DFA
S214403EA0DB4304934146484600F0D6FE002E3FF4DE
S214403EB08EAD8DE6109A002A00F0418203F233431D
S214403EC00A9F059DABE51C20059B03440593029B7A
S214403ED00344054402930EE6209B012B40F3828266
S214403EE00B9F0120F3E500BF30664000F8664000B7
S214403EF00000F03F00001C400000E03F000024406F
S214403F0000001440314600230A22484600F0AEFE28
S214403F100D9B002B064640F397820693002D05DD49
S214403F2031462A46484601F021F80646002F40F022
S214403F307C810596069B079ADDF814B0013BD318A2
S214403F4008930AF0010309931746C2465146204695
S214403F50FFF7DCFA31460546204601F05FF85A4640
S214403F6002905146484601F079F8C268804605F10D
S214403F703003002A49D101462046069301F04EF808
S214403F8041460590484600F067FE059A069B2AB9CA
S214403F90209919B90999002900F03682029900291A
S214403FA0C0F2E48005D1209919B90999002900F09A
S214403FB0DD80002A00F34D81089A3B7007F1010826
S214403FC09742454600F05481214600230A2248463F
S214403FD000F04CFE5E45044631464FF000034FF07D
S214403FE00A0248460BD000F041FE594606460023DA
S214403FF00A22484600F03AFE47468346A6E700F0C7
S21440400035FE474606468346A0E7014648460593A2
S21440401000F022FE0122059BC0E74146204600F004
S214404020FDFF0028BFF67DAD2146049C0023013CE1
S2144040300A224846049400F019FE099B0446002BC9
S2144040407FF460AF0D9B002B40F3F681069370E53E
S214404050089C1FE5209B022B7FF767AD069B002B35
S21440406040F0798141460522484600F0FFFD014672
S2144040708046204600F0D2FF002808947FF70EAF17
S214404080049A07993123013204920B704D1C09E7BC
S214404090049A01320492079A3123137088E501236B
S2144040A00993CDE5DDF8149091E4BAF1000F7FF462
S2144040B004ADCBF31303002B40F03F812BF00047B9
S2144040C03F0D3F0537B1059B01330593029B0133F6
S2144040D0029301270B9B0120002B3FF4F8ACEDE444
S2144040E0404601F019FF32463B4601F07BFF002276
S2144040F0BF4B01F0C5FD0446A1F150753046394628
S2144041000022BC4B01F0BAFD22462B4606460F461F
S21440411002F0F8F98046002840F00581224605F175
S21440412000433046394602F0CFF908B14646B5E678
S214404130DDE90EABFFF789BB0798FFF7AEBA0A9BDF
S2144041400B9A0A97FB1A1A440B92002761E4DDE9A2
S2144041500EAB4FF00208BBE51C460021C9F84410E0
S2144041608AE5012421940D940694F6E7002AD04669
S214404170CDF814B09A4611DD21460122484600F09B
S214404180F5FE4146044600F049FF002840F34981C9
S214404190BAF1390F00F0068105F1310AB34687F8C7
S2144041A000A07D1C059E089402E504D11AF0010F7C
S2144041B001D0EDE4154615F8013C302B05F1FF32F1
S2144041C0F8D0F5E4049B5C42002C00F0BF808A4B9C
S2144041D004F00F0203EBC203D3E90023DDE90E012E
S2144041E001F000FF241106460F4600F02A81834D59
S2144041F04FF00208E20709D530463946D5E9002394
S21440420001F0F0FE08F1010806460F46641005F17D
S2144042100805EFD176E5079930220A70049A15F81A
S214404220014C01320492FFF7D0BB7168484600F05B
S214404230EDFC33699A1C0546920006F10C010C30E1
S21440424000F046FC29460122484600F08FFE0590C5
S21440425070E6392BCDF814B0D04600F0A38003F1B9
S214404260010AB34687F800A07D1C059E08949FE48B
S2144042705A46D046B3469A4616467DE45E4908F10D
S214404280FF3A01EBCA0122462B46D1E9000101F074
S214404290A9FECDE912013946304602F053F90446EC
S2144042A001F03AFE02460B463046394601F0E6FC3F
S2144042B0079A3034B8F1010F06460F46147002F1E3
S2144042C001051ED0079B03EB080BA84600224C4B6B
S2144042D03046394601F086FE0F46064602F032F971
S2144042E0044601F019FE303402460B463046394645
S2144042F001F0C4FC08F8014BC34506460F46E5D11D
S214404300554400223F4BDDE9120101F0B9FC32462C
S2144043103B4602F0D9F800284CD0119B049315F880
S214404320014CFFF746BB4FF000084646A8E6059B03
S214404330069A9D1A0023FFF772BB0027CAE6149B15
S2144043400A9F059DC3F13603FFF769BBDDE90E679B
S2144043504FF00208D6E40894A0E5069B002B3FF4F5
S214404360BFAE0D9B002B7FF7E3AE0022244B3046BA
S214404370394601F037FE06460F4608F1010001F0C7
S214404380CBFD32463B4601F02DFE0022184B01F095
S21440439077FC049ADDF83480013A0446A1F1507562
S2144043A01192D0E43922B3460894059E3A707D1C9B
S2144043B0FFF7F0BBDDE912230020124901F05EFC56
S2144043C032463B4602F09EF808B9B1E6154615F867
S2144043D0013C302B05F1FF32F8D030E5119B0493B9
S2144043E0FFF7E7BABAF1000F7FF47AAD61E600BF97
S2144043F000001C400000144030664000F866400054
S214404400000024400000E03F392BCDF814B0D046E1
S214404410DDF808B09A46C5D0BBF1000F3FF7BCAEFA
S214404420BCE67FF4BBAE1AF0010F3FF4B7AEAFE682
S2144044304FF00008464631E5209B022B21DC0D9BC1
S21440444004E64FF002085DE4209B022B19DC0D9B2E
S21440445063E50024C9F844402146484600F0D6FBB0
S2144044604FF0FF3306930D93012307902194C9F82C
S21440447040000993FFF7E9B93FF43DABC0F13C007B
S21440448022E50D9B0693E9E50125FFF7A8B900BF95
S21440449038B5074D074C2C1BA41005D0013C55F8E9
S2144044A0043D9847002CF9D1BDE8384002F048B9A1
S2144044B0506740004C674000004870474404402026
S2144044C02DE9F04F01F10B05162D83B0064640F25C
S2144044D09F8035F0070500F1BF80A94200F2BC80FE
S2144044E000F090FBB5F5FC7FC0F09C826B0A00F0B4
S2144044F0BA80042B00F28381A80900F1390E4FEAF6
S2144045004E033830C44F07EB8303A3F108015C68C1
S214404510A14207D1ACE0002A80F2AC80E468A14218
S21440452000F0A680636823F003035A1B0F2AF2DDCF
S214404530B9493C6901F1080E744500F0B3816368DF
S21440454023F003035A1B0F2A00F39981002AC1F86F
S21440455014E0C1F810E080F29E80B3F5007F80F052
S2144045606781DB0803F1010C01229B1002FA03F37A
S2144045704A6851F83C80C4F8088001EBCC091A43DD
S214404580A9F10803E3604A6041F83C40C8F80C4093
S214404590831001249C40944200F28A80144206D143
S2144045A020F003006400144200F10400FAD007EB48
S2144045B0C009CC468046DCF80C108C4507D173E128
S2144045C0002A80F28181C9688C4500F06D814B6875
S2144045D023F003035A1B0F2AF2DD0C46D1F80CC019
S2144045E054F8088F4B1945F001054D6042F0010123
S2144045F0C8F80CC03046CCF808807B613B61C3F8F5
S2144046000CE0C3F808E059609A5000F0FDFA1FE04D
S214404610102921D800F0F6FA1025062302207E4FF6
S21440462007EB8303A3F108025C68944200F04581DF
S2144046306368E168A56823F00303234430465A685C
S214404640E96042F001028D605A6000F0DDFA0834FD
S214404650204603B0BDE8F08F00240C23204633608C
S21440466003B0BDE8F08F80234FF0400E3F2049E76F
S21440467070465DE72344E1685A68A56842F0010247
S214404680E96030468D605A6000F0BEFA0834204635
S21440469003B0BDE8F08F234430465A6842F001022A
S2144046A05A6000F0B1FA0834204603B0BDE8F08FF7
S2144046B0BC68636823F00308A84504D3C5EB080329
S2144046C00F2B00F38C80554BDFF860911A68D9F8B1
S2144046D0003001332A4404EB080A00F0608102F5FA
S2144046E080520F3222F47F6222F00F02114630468B
S2144046F0019200F099FDB0F1FF3F8346019A00F029
S2144047005881824500F2FC80454B1968DA451144D1
S214404710196000F05381D9F80000DFF810E101304D
S2144047201BBFCAEB0B0A5144CEF800B019601BF011
S214404730070100F01781C1F10800C1F5805183449C
S21440474008315A44C2F30B02C2EB010949463046CF
S214404750019300F069FD431C019B00F03F81CBEBC9
S21440476000024A4442F001021968C7F808B04944BA
S214404770BC42CBF804201960DFF8A49016D0B8F1FC
S2144047800F0F40F2FD806268A8F10C0323F0070388
S214404790E01802F001024FF0050E1A430F2B62603C
S2144047A0C0F804E0C0F808E000F21C811D4BBC686D
S2144047B01A68914288BF19601B4B1A68914262681A
S2144047C088BF196022F003029542A2EB050301D888
S2144047D00F2B04DC304600F017FA002438E7621945
S2144047E043F0010345F0010565603046BA6053600A
S2144047F000F00AFA0834204603B0BDE8F08F142BC8
S21440480071D9542B00F2A480280B00F16F0E4FEAAA
S2144048104E036E3076E600BF7C0440202C094020D4
S214404820300940202809402024094020880840209C
S2144048305A0A042A5ED9142A00F2B38002F15C01B7
S21440484049005B3207EB810C57F82110DFF8DC811A
S214404850ACF1080C8C4500F088804A6822F00302D0
S214404860934202D289688C45F7D1D1F80CC07A6859
S214404870C4F80CC0A160CCF80840CC6088E6631948
S21440488042F0010745F00105656030464B610B611B
S214404890C3F80CE0C3F808E05F609A50083400F0B4
S2144048A0B3F9D5E64A6873E608F1010818F0030F35
S2144048B00CF1080C7FF47FAE30E0DC68A34208BF02
S2144048C002303FF435AEB3E60B440C465A68C9682E
S2144048D054F8085F42F001025A603046E9608D6045
S2144048E000F092F9B4E603F15C0E03F15B004FEA88
S2144048F04E0307E69A0902F1390149003832A1E72A
S214404900BC424A4B3FF400AF9C68626822F0030208
S2144049105AE759F80839994540F0828010F0030F5D
S21440492000F1FF30F5D17B6823EA04037B60640026
S2144049309C423FF6BDAE002C3FF4BAAE1C42404609
S2144049407FF435AE64001C4200F10400FAD02EE637
S214404950B3F5AA7F18D8E80B00F1780E4FEA4E035D
S2144049607730CFE54FF48051EBE60121D8F804309C
S214404970921001FA02F21A43C8F80420614677E71B
S2144049800123CBF8043025E740F25452934220D816
S214404990A80C00F17D0E4FEA4E037C30B2E5103293
S2144049A0A4E6542A26D81A0B02F16F0149006E324B
S2144049B048E7BC68626822F0030205E7CAF30B00CA
S2144049C000287FF4A8AE4244BB6842F001025A6019
S2144049D0ECE6FE234FF07F0E7E2093E501224FF05B
S2144049E00009C1E604F10801304600F007FED9F898
S2144049F00010DBE6B2F5AA7F05D8DA0B02F17801A3
S214404A00490077321EE740F254518A4205D89A0C44
S214404A1002F17D0149007C3214E7FE217E2211E737
S214404A207B6884E7E808431C5B00F8E57C0440208C
S214404A3001F0FF01102A2BDB10F0070F08D010F80A
S214404A40013B013A8B422DD010F0070F42B3F6D10E
S214404A50F0B441EA012141EA014122F007047FF027
S214404A6000070023F0E80256083C85EA010586EA7E
S214404A70010685FA47F5A3FA87F586FA47F6A5FABA
S214404A8087F68EB9EED1F0BC01F0FF0102F00702C6
S214404A9032B110F8013B013A83EA010313B1F8D171
S214404AA00020704701387047002D06BF3546033852
S214404AB0073815F0010F07D1013015F4807F02BF8B
S214404AC0013015F4C03F0130F0BC0138704700BFDC
S214404AD0844641EA000313F003036DD1403A41D3C4
S214404AE051F8043B40F8043B51F8043B40F8043B83
S214404AF051F8043B40F8043B51F8043B40F8043B73
S214404B0051F8043B40F8043B51F8043B40F8043B62
S214404B1051F8043B40F8043B51F8043B40F8043B52
S214404B2051F8043B40F8043B51F8043B40F8043B42
S214404B3051F8043B40F8043B51F8043B40F8043B32
S214404B4051F8043B40F8043B51F8043B40F8043B22
S214404B5051F8043B40F8043B51F8043B40F8043B12
S214404B60403ABDD2303211D351F8043B40F8043BB2
S214404B7051F8043B40F8043B51F8043B40F8043BF2
S214404B8051F8043B40F8043B103AEDD20C3205D3C2
S214404B9051F8043B40F8043B043AF9D2043208D0BA
S214404BA0D2071CBF11F8013B00F8013B01D30B882C
S214404BB003806046704700BF082A13D38B078DD00A
S214404BC010F003038AD0C3F10403D21ADB071CBFDC
S214404BD011F8013B00F8013B80D331F8023B20F846
S214404BE0023B7BE7043AD9D3013A11F8013B00F87F
S214404BF0013BF9D20B7803704B7843708B78837007
S214404C0060467047704700BF704700BFC36C70B5C2
S214404C1005460C464BB153F8240080B1026843F871
S214404C20242000230361C36070BD2122042100F0CC
S214404C3067FCE86403460028EDD1002070BD0121E2
S214404C4001FA04F6721D2846920000F059FC00282E
S214404C50F3D044608660E4E731B1C36C4A6853F8E9
S214404C602200086043F82210704700BFF0B50C6978
S214404C7083B00D46064601F1140E0027DEF800000C
S214404C8081B202FB01310B0C000C02FB003389B2EF
S214404C90013701EB0341BC424EF8041B4FEA134375
S214404CA0ECDC3BB1AA68944207DA05EB8402013497
S214404CB053612C61284603B0F0BD69680193013109
S214404CC03046FFF7A3FF2A69023205F10C0107467A
S214404CD092000C30FFF7FCFEF26C6968019B52F8BC
S214404CE02100286042F821503D46DEE7030C1B04B5
S214404CF0B3B90004102310F07F4F04BF00020833FE
S214404D0010F0704F04BF0001043310F0404F04BF52
S214404D1080000233002807DB420003D4202070477F
S214404D200023E8E7581C704718467047036813F09E
S214404D30070207D0D90720D49A0720D49B080360DF
S214404D400220704799B209B91B0C102213F0FF0FCE
S214404D5004BF1B0A0832190704BF1B09043299070F
S214404D6004BF9B080232D90704D45B0801D1202037
S214404D7070470132036010467047002070475B085A
S214404D8003600120704700BF10B50C460121FFF7B5
S214404D903DFF01224461026110BD00BF2DE9F04F86
S214404DA00D691769BD4283B00C46164604DA2A469A
S214404DB034463D460E461746A368616805EB07082D
S214404DC09845C8BF0131FFF721FF00F1140C0CEBEA
S214404DD08809CC45009005D26346002143F8041B61
S214404DE09945FBD806F1140202EB870A04F1140336
S214404DF0524503EB850E54D2CDF80490994652F8AE
S214404E00043B1FFA83FBBBF1000F20D000204F4627
S214404E106646054600E01E4657F8044B3068A1B289
S214404E2083B20BFB0131240C000C4B190BFB040026
S214404E3000EB134099B2334641EA0041BE454FEA83
S214404E40104543F8041BE6D8756052F8043C5FEA08
S214404E50134B20D0DCF80030674618464D460021FC
S214404E6000E037462C88000C0BFB040001449CB243
S214404E703E4644EA014346F8043B786855F8044BFE
S214404E8083B2240C0BFB043404EB1143AE454FEACB
S214404E901341E6D87B6092450CF1040CAFD8DDF8A0
S214404EA00490B8F1000F0BDD59F8043CA9F1040951
S214404EB01BB105E059F8043D13B9B8F10108F9D122
S214404EC00098C0F8108003B0BDE8F08F12F00303DE
S214404ED02DE9F041144607462ED10E46A4101CD0AC
S214404EE0BD6C95B3E3074FF0000806D4641014D0A9
S214404EF02868A8B10546E307F8D52A46314638461D
S214404F00FFF74CFFB6B17268FB6C641053F8221082
S214404F10316043F822600646EAD13046BDE8F0816B
S214404F202A4629463846FFF739FF2860C0F80080F1
S214404F300546E0E70646D9E75A1E0B4D002355F8CE
S214404F402220FFF793FE0646C8E701213846FFF7C2
S214404F505DFE40F271210122002341610261054657
S214404F60B8640360BEE700BF206740002DE9F04705
S214404F7091460A698B684FEA691404EB020808F107
S214404F8001059D420E468246496804DD5B009D420F
S214404F9001F10101FADC5046FFF738FE002C00F123
S214404FA0140238DD02EB8403002142F8041B9342CE
S214404FB0FBD1346906F1140119F01F0901EB840E88
S214404FC021D0C9F1200200240F6807FA09FC4CEAF8
S214404FD004049C4643F8044B51F8044B8E4524FA8F
S214404FE002F4F1D8CCF804400CB108F10205DAF826
S214404FF04C307268013D53F822100561316043F829
S2144050002260BDE8F087043B51F8042B43F8042F98
S2144050108E45F9D8EBE71346CBE700BF02690B692C
S214405020D21A12D19B0014301431194410B40344E0
S21440503001E098420BD253F8044D51F8042D9442A7
S214405040F7D007D3012010BC7047104670470020A9
S21440505010BC70474FF0FF30F5E700BF2DE9F8432E
S2144050600B690F4611695B1A002B904617D18900D1
S21440507007F1140208F114055318294401E09A4236
S2144050805ED253F8046D51F8044DA642F7D060D274
S2144050903B46144647464FF00109984606E05DDB1E
S2144050A007F1140502F114044FF000097968FFF780
S2144050B0ADFDD8F810303E69C0F80C9004EB830C78
S2144050C0A64605EB860700F1140400235EF8041B91
S2144050D055F8048B8AB213FA88F3090C9A1AC1EB76
S2144050E0184303EB224392B242EA0342F44544F8A3
S2144050F0042B4FEA2343E9D8AF4217D9A4462946A2
S21440510051F804EB13FA8EF2131403EB1E4392B2DB
S21440511042EA03428F424CF8042B4FEA2343EFD82F
S214405120ED433D4425F0030504352C44043C22B9A8
S21440513054F8043D013E002BFAD00661BDE8F883E2
S2144051400021FFF763FD0122002302614361BDE8B1
S214405150F8832C464FF000091546A7E73B4607F173
S214405160140408F1140547464FF0010998469DE798
S2144051702DE9F04182B001211C46C3F30A5715467B
S214405180089EFFF743FDC4F3130480460FB144F472
S214405190801401941DB302A840F8085DFFF7C6FDD1
S2144051A0002834D19DE80C00C8F81420002B0CBF12
S2144051B001210221C8F81830C8F81010DFB908EBF2
S2144051C08103A0F2324030601869FFF78FFD099BDB
S2144051D0C0EB41101860404602B0BDE8F08101A81F
S2144051E0FFF7A4FD019BC8F8143001212030C8F811
S2144051F01010002FE3D0099BA7F233470744C0F1B5
S214405200350037601860404602B0BDE8F0819DE842
S2144052100C00C0F1200103FA01F10A43C340019398
S214405220C8F81420C2E700BF38B5074C002305462F
S21440523008462360FCF7D6F8431C00D038BD2368E8
S214405240002BFBD02B6038BD200A40200000000019
S2144052500000000000000000000000000000000009
S21440526000000000000000000000000000000000F9
S21440527000000000000000000000000000000000E9
S21440528090F800F06DE9024520F007016FF0000C41
S21440529010F0070491F820F040F049804FF00004E9
S2144052A06FF00700D1E9002391F840F000F10800C4
S2144052B082FA4CF2A4FA8CF283FA4CF3A2FA8CF3FC
S2144052C04BBBD1E9022382FA4CF200F10800A4FA63
S2144052D08CF283FA4CF3A2FA8CF3E3B9D1E90423B7
S2144052E082FA4CF200F10800A4FA8CF283FA4CF3EE
S2144052F0A2FA8CF37BB9D1E9062301F1200182FAA8
S2144053004CF200F10800A4FA8CF283FA4CF3A2FAAD
S2144053108CF3002BC6D0002A04BF04301A4612BABB
S214405320B2FA82F2FDE8024500EBD2007047D1E9BE
S214405330002304F00305C4F100004FEAC50514F04D
S214405340040F91F840F00CFA05F562EA05021CBF1E
S21440535063EA050362464FF00004A9E72DE9F04FE3
S214405360936883B09046002B72D083464FF0000976
S214405370166808688B680D464C46002C45D09C4203
S2144053801F469A4646D3AB8913F4906F2DD06F696B
S214405390296907EB4707C1EB000A07EBD777601C84
S2144053A07F105044B8423A4684BF07463A465B05AB
S2144053B033D511465846FFF783F8002837D0524673
S2144053C029690190FFF784FBAA89019B22F4906229
S2144053D042F08002AA81CAEB070203EB0A006F6123
S2144053E02B612860AA602746A2465246494600F0EE
S2144053F0EDF9D8F80820AB682868DB1B5044141B2E
S214405400AB602860C8F8084014B3D6F800907468BB
S2144054100836B2E72746A246E7E7584600F03AFA8B
S21440542003460028D7D12969584600F0E7F80C23F0
S214405430CBF80030AB89002243F040034FF0FF30FA
S214405440AB81C8F80820C8F8042003B0BDE8F08F48
S2144054500020C8F8040003B0BDE8F08F2DE9F047FF
S214405460254C2568D5F848410646884692469946D2
S214405470C4B360681F2817DC431C76B104EB800574
S2144054800122C5F888A0D4F8881182401143022E24
S214405490C4F88811C5F808911ED00230636044F8FD
S2144054A020800020BDE8F087144B03B34FF4C8704B
S2144054B0AFF300800446D0B1D5F84831002780E8E5
S2144054C08800C5F8484138460123C4F88871C4F8B6
S2144054D08C71002EE1D0D1E7D4F88C110A43C4F881
S2144054E08C21DAE705F5A674C5F84841C1E74FF0C8
S2144054F0FF30BDE8F08700BFAC654000000000000C
S21440550010B502FB01F1FEF7DBFF0446D8B150F8B8
S214405510042C22F00302043A242A18D8132A14D959
S21440552000231B2A0360436016D9242A8360C36085
S21440553011BF00F110020361436100F1180200231D
S214405540136053609360204610BD0246F7E7002183
S214405550FCF70AFC204610BD00F10802EFE700BF4A
S214405560F8B5234F0C460646FFF74CFBBB685D6814
S21440557025F00305291B01F6EF7121F47F6121F028
S2144055800F01A1F58054B4F5805F07DB002130465B
S214405590FFF74AFEBB682B44984204D03046FFF7DC
S2144055A033FB0020F8BD61423046FFF73DFE013038
S2144055B00DD0104BBA6819682D1B45F001053046D2
S2144055C0091B55601960FFF71FFB0120F8BD00213D
S2144055D03046FFF729FEBA68831A0F2BDEDD064CED
S2144055E00449246843F00103001B53600860D5E774
S2144055F07C0440203009402088084020002945D0BF
S2144056002DE9F0410D468046FFF7FCFA55F8047C3C
S2144056106A4927F00103A5F10804E2188E6850682D
S214405620B24220F0030062D0FE0750600BD455F81B
S214405630087CE41B01F1080EA56875453B446FD015
S214405640E768EF60BD6015186D68ED0742D543F01A
S21440565001026260E350B3F5007F18D2DB085A1CA3
S2144056604D6851F83270A76001209B1000FA03F392
S21440567001EBC2001D430838E0604D6041F83240FF
S214405680FC604046BDE8F041FFF7BEBA70475A0A94
S214405690042A53D89A0902F139077F0002F13805E7
S2144056A001EB870051F827204449083890424DD0F6
S2144056B0516821F003018B4202D292689042F7D1A2
S2144056C0D068E060A2608460D4604046BDE8F041A7
S2144056D0FFF79ABA95683A4FBD4203443FD0D06828
S2144056E0E86043F0010285606260E350B3E7FF077D
S2144056F0034407D455F8082CA41A1344A068E2685B
S214405700C26090602F4A126843F001009342606086
S2144057108C60B6D32C4B40461968FFF721FFB0E7A4
S21440572011184968C90744D49168D268CA600344CE
S21440573043F0010091606060E350A2E7142A17D856
S21440574002F15C077F0002F15B05A9E7AA104B68EF
S214405750012505FA02F213434B600246B1E743F0D7
S21440576001024C610C61E560A5606260E35088E729
S214405770542A06D81A0B02F16F077F0002F16E0515
S2144057808EE7B2F5AA7F06D8DA0B02F178077F00DB
S21440579002F1770584E740F25450824206D89A0CCC
S2144057A002F17D077F0002F17C0579E7FE277E2522
S2144057B076E743F001026260E35062E77C044020F3
S2144057C084044020840840202C0940208842F0B5BC
S2144057D00DD98B1898420AD28118002A51D09A1AAD
S2144057E013F8014D01F8014D9342F9D1F0BD0F2A4F
S2144057F048D941EA00039B0746D100F1100401F165
S2144058001003154653F8106C44F8106C53F80C6CA3
S21440581044F80C6C53F8086C44F8086C103D53F888
S214405820046C44F8046C0F2D03F1100304F11004CB
S214405830E8D8A2F1100323F00F0302F00F0E103346
S214405840BEF1030F1944034421D91E1F0D4674466A
S214405850043C55F8047B46F8047F032CF8D8AEF198
S214405860040424F0030404342344214402F00302D5
S21440587062B1013B0A4411F8014B03F8014F8A42DA
S214405880F9D1F0BD0346F3E70346F2E7F0BD7246B2
S214405890EEE700BF2DE9F04F174683B0002900F031
S2144058A0C1800E46814607F10B05FFF7ABF956F867
S2144058B004EC162D2EF00304A6F1080840D810225A
S2144058C01546AF4241D8944275DAC94B996808EB01
