S01C000050574D5F50574D5F4C45445F4558414D504C45322E73726563F0
S21440000068294020450A4000410A4000410A400015
S214400010410A4000410A4000410A400000000000FA
S214400020000000000000000000000000410A400000
S214400030410A400000000000410A4000410A4000DA
S214400040410A4000410A4000410A4000410A40003F
S214400050410A4000410A4000410A4000410A40002F
S214400060410A400000000000B9044000CD044000B2
S214400070E1044000410A4000410A4000410A400075
S214400080F504400009054000410A4000410A40008E
S214400090410A4000410A4000410A4000410A4000EF
S2144000A0410A4000410A4000410A4000410A4000DF
S2144000B0410A4000410A4000410A4000A10E40006B
S2144000C0410A4000410A4000410A4000410A4000BF
S2144000D000000000410A400000000000410A4000C5
S2144000E0410A4000410A4000410A4000410A40009F
S2144000F0410A4000410A4000410A4000410A40008F
S214400100410A4000410A4000410A4000410A40007E
S214400110410A40000000000000000000000000000F
S214400120410A4000410A4000410A4000410A40005E
S214400130410A400000000000410A4000410A4000D9
S21440014010B5054C237833B9044B13B10448AFF3CC
S21440015000800123237010BD4C08402000000000A2
S214400160202E4000084B10B51BB108490848AFF395
S21440017000800848036803B910BD074B002BFBD02E
S214400180BDE81040184700BF00000000500840205F
S214400190202E4000202E40000000000010B51048E1
S2144001A0104B98473E2100200F4B98470F4CA047D6
S2144001B00028FCD00E4B98470E4A0F4B9A620F4CC5
S2144001C0A0470028FCD002200D4B984700200D4B3E
S2144001D098470D4B98470248024B984710BD00BFC2
S2144001E000A3E111310C4000C10540001506400057
S2144001F025064000013F182000060E403506400008
S2144002001D05400059054000210B400090B92DE9DE
S214400210F0410C469046002A0FDD8F18084E094DD7
S214400220306821462B6898470134A742F8D14046AB
S214400230BDE8F0814FF0FF3070470020BDE8F08108
S214400240240940201C0940200138022815D82DE9F1
S214400250F0410E4614469AB10D46DFF838800C4FF2
S214400260D8F8000015F8011B3B68984700280ADBC1
S214400270A81B013CF4D1BDE8F0814FF0FF30704739
S2144002800020BDE8F0814FF0FF30BDE8F08100BFB0
S2144002902009402024094020F8B54FF40042684B1E
S2144002A05A60BFF34F8FBFF36F8F664B0022C3F881
S2144002B050225A6942F400325A61BFF34F8FBFF35F
S2144002C06F8FD3F88060C6F34E3506F007070437C5
S2144002D0C6F3C906B6FA86F000F01F00BFF34F8F8C
S2144002E01C46334605FA07F103FA00F20A43C4F8FF
S2144002F06022013BB3F1FF3FF6D1013DB5F1FF3F30
S214400300EFD1BFF34F8F4F4B5A6942F480325A6158
S214400310BFF34F8FBFF36F8F4B4A4C495160A1F5E7
S21440032080715160BFF34F8FBFF36F8FD3F8902229
S21440033022F00102C3F89022D3F8942222F0010260
S214400340C3F89422BFF34F8FBFF36F8F0A20404C01
S214400350A0470B20A0470C20A0471020A047112004
S214400360A0473C4B4FF480721A61C3F8A0201A6332
S214400370A3F580634FF400625A61C3F8A0205A6622
S214400380C3F890205A651A62C3F88420196F21F486
S21440039000611967596F21F400615967C3F8C0209E
S2144003A0C3F8D420C3F8B0204FF400121A66C3F83E
S2144003B090205A655A62C3F88020196F21F40011C4
S2144003C01967596F21F4001159675A602249D1F8CC
S2144003D0142142F01002C1F81421204A102111665F
S2144003E0C2F8901051655162C2F88010106F0843F1
S2144003F01067506F0843506751604FF400021A660A
S214400400C3F890205A655A62C3F88020196F11438A
S2144004101967596F21F4000159675A604FF080728E
S2144004201A66C3F890205A655A62C3F88020196F3E
S21440043011431967596F21F0807159675A60F8BDAA
S21440044050180E4000ED00E0000C0E400C08005A1C
S2144004504506400000120E400080084000100E4046
S214400460C06C7047806C70472DE9F0410446884662
S2144004700E4B9847054620460D4B9847054013D0EF
S2144004800C4C04F160062368434508D16168294254
S21440049005D0E36840469847636825EA0305B442BA
S2144004A002D01034002DEED1BDE8F081610440004A
S2144004B0650440006808402008B50A210148024B00
S2144004C0984708BD000E0E406904400008B50B2151
S2144004D00148024B984708BD00100E406904400092
S2144004E008B50C210148024B984708BD00120E4043
S2144004F06904400008B510210148024B984708BDE2
S21440050000140E406904400008B511210148024B12
S214400510984708BD00160E4069044000032807D0DF
S214400520042808D002280CBF4FF48072002204E052
S2144005304FF4407201E04FF4007206490B6B23F40F
S214400540407313430B630A46936E13F0080FFBD0B9
S214400550704700BF00060E40184A136B23F0700326
S21440056018431063936E13F0080F03D009E0013B65
S21440057003D11EE04FF4805310498A6E12F0080FE4
S214400580F5D00E4A136B23F0030343F002031363C4
S214400590906E10F0080004D000207047013B03D155
S2144005A009E04FF4805305498A6E12F0080FF5D0E3
S2144005B07047012070470120704700BF00060E407C
S2144005C038B10E490B6A0E4A1A400E4B13430B6263
S2144005D070470A48036A090289B20B4A1A400B4B15
S2144005E01343194301620246936E13F0010FFBD08A
S2144005F0024A116A064B0B431362704700060E40D0
S214400600FCFFC8FE02003701FCFFC8FF01003700B0
S21440061000003701024B986E00F48030704700BFF0
S21440062000060E404FF00052014B9A62704700BFE2
S21440063000060E40024B986E00F00200704700BF66
S21440064000060E403F281ED81F280CD8114B9A692A
S21440065001238340934318D0012303FA00F00D4B47
S21440066018610020704720380A4BD3F80821012330
S214400670834093430BD0012303FA00F0054BC3F8A5
S214400680000100207047012070470020704700207E
S214400690704700BF00060E40F0B48CB007460E46CA
S2144006A001AC114D0FCD0FC40FCD0FC495E8070018
S2144006B084E8070001AA002052F8043BB6FBF3F397
S2144006C0B3FBF7F3B3F5807F05D901300B28F3D1A0
S2144006D04FF6FF7005E00A2894BF43EA00204FF625
S2144006E0FF700CB0F0BC7047742D400070B50646E5
S2144006F00C46086840B189680E4B984705464FF649
S214400700FF73984201D10EE00025606840B1A168B1
S214400710084B98474FF6FF73984207D045EA004586
S2144007203560002070BD4FF6FF7070BD4FF6FF700D
S21440073070BD00BF9906400070B40B684A6802F06E
S2144007400F028C8A22430C8922438C7A42EA442246
S2144007508C7D42EA0442CC7D42EA44420C7E42EA28
S214400760844200EB4314C4F80022CA68C4F804224A
S2144007700A69C4F80C228A7D3AB18C8B4A8B42EACD
S214400780044200EB4314C4F81822846C4FF0011264
S2144007909A40D24304EA0205CC7F04FA03F68C7FE3
S2144007A09C4044EA06442C438464446C224091F8BE
S2144007B0214004FA03F591F820409C4044EA054461
S2144007C02243426401229A4091F822401CB1046AB6
S2144007D01443046203E0046A24EA0204046291F8C3
S2144007E02440022C05D1D0F8C0401443C0F8C04085
S2144007F00DE0D0F8C040D5432C40C0F8C04091F83A
S2144008002440012C846E0CBF14432C40846691F81F
S2144008102540022C06D1D0F8C04044EA0242C0F837
S214400820C02011E0D0F8C0401204D5432C40C0F898
S214400830C04091F82540012C03D1846E2243826645
S21440084002E0826E2A408266DB00C56EFF229A4036
S21440085025EA020491F823209A402243C26653B9FF
S21440086091F82C20012A8A6A22F07F4208BF42F083
S2144008708072C0F8A02000EB4310D0F8003223F47A
S2144008800023C0F80032D0F800228B6B03F400231C
S2144008901343C0F80032002070BC70470B69934287
S2144008A007D30B68CA6000EB4310C0F8082200204C
S2144008B070474FF6FF707047012303FA01F141601D
S2144008C0704700BF012303FA01F18160704700BF03
S2144008D0C06970471032012303FA02F203FA01F1AD
S2144008E011430161704700BF1032012303FA02F240
S2144008F003FA01F111434161704700BF436913F0A9
S214400900020F02D0C161002070470120704700BF2F
S214400910436913F0010F03D083690B7000207047C2
S2144009200120704710B40C0194420FD91AE0416878
S21440093041F400214160120402F4E0221A430262AC
S21440094000201CE001201AE0012018E0630803EBB9
S214400950C202B2FBF4F2D3085C1E4FF6FE718C4224
S214400960E9D9EFE7C9004B0803EBC202B2FBF1F24C
S214400970D3085C1E4FF6FE718C42E5D8D7E75DF88B
S214400980044B7047084BC0F8E43000234360436292
S214400990836288230360242303604FF480730360DC
S2144009A04FF40023036070470041535570B5054629
S2144009B00C4616460F4B984700220F4B1A609CB1C8
S2144009C03246216828460D4B9847024670B9616802
S2144009D0A368194323691943E3680B4306490B6030
S2144009E069680B436B6002E0012200E0012210467A
S2144009F070BD00BF85094000D8084020250940004A
S214400A0040230360704700BF10230360704700BF59
S214400A10436913F0020F04D0C1F30801C1610020FE
S214400A2070470120704700BF436913F0010F05D09F
S214400A308369C3F308030B600020704701207047AA
S214400A40FEE700BF00B583B0274B284A9A4203D042
S214400A50274B254A9A4204D3264B274A9A420FD31D
S214400A601AE02149254B5B1A23F0030304331F4A3F
S214400A70134452F8040B41F8040B9A42F9D1EBE7C1
S214400A801F4B204AD21A22F003021A44043B00218C
S214400A9043F8041B9342FBD11B4A1C4B23F07F03B5
S214400AA09360EFF31083B3FA83F35B09019372B656
S214400AB0BFF35F8F0022164B1A700199154A1368D0
S214400AC043F470031360BFF34F8FBFF36F8F29B1AA
S214400AD001220F4B1A70BFF35F8F62B60E4B9847DA
S214400AE00E4B9847FEE700BF00004020202E4000F7
S214400AF04C084020680940204C0840204B084020C5
S214400B00500840206B09402000ED00E00000400007
S214400B100000402088ED00E0A9104000290F40006A
S214400B203C4B1B6B03F00303012B0FD013B1022B7E
S214400B3029D057E0384B5B6913F0800F14BF4FF451
S214400B4000424FF4FA42354B1A604BE0314B1B6A79
S214400B5013F0807F03D0324A304B1A6042E0314A6D
S214400B602E4B1A602B4B1B6A03F07003102B02D0DF
S214400B70202B04D036E02C4A284B1A6032E0284A14
S214400B80264B1A602EE0234B1B6A13F0807F03D05F
S214400B90234A224B1A6012E0224A204B1A601D4B11
S214400BA01B6A03F07003102B02D0202B04D006E003
S214400BB01D4A1A4B1A6002E0194A184B1A60154B28
S214400BC01B6B03F00303022B0CD1124A936A926A02
S214400BD01248C3F30A41036801FB0333D2B2B3FBA6
S214400BE0F2F303600B4B1B6B03F07003702B07D1C3
S214400BF00A4A13680D49A1FB03135B08136070474C
S214400C00044B1B6B0549C3F302120B68D3400B60C1
S214400C10704700BF00060E4010180E4004004020EB
S214400C20001BB70000093D0000127A00ABAAAAAA32
S214400C30124B984204D84FF08062114B1A607047AE
S214400C40104B984203D8104A0D4B1A6070470F4B12
S214400C50984203D80E4A0A4B1A6070470D4B98428A
S214400C6003D80D4A064B1A6070470C4B984294BF07
S214400C704FF004220A4A024B1A607047FF2C31019B
S214400C80000C0E40FF59620200010004FF869303E9
S214400C9000020004FFB3C40400030004FFE0F505AF
S214400CA000050004094B1B6813B9094A074B1A6034
S214400CB0064B1B681A180749914204DB1046034A44
S214400CC01060184670474FF0FF307047DC084020F1
S214400CD0682B4020FCFF45204FF0FF30704700BF98
S214400CE04FF400534B600020704700BF0120704710
S214400CF000207047F0B583B005460C4600230193AC
S214400D00294B984207D11F46284E21463846B047C1
S214400D100028FAD115E0264B984207D11F46234EAD
S214400D2021463846B0470028FAD115E0214B984274
S214400D3007D11F461D4E21463846B0470028FAD1F7
S214400D4017E01D4B9D4207D11F46184E2146384698
S214400D50B0470028FAD119E0184B9D4209D11E46EB
S214400D60174D01A93046A8470028FAD1019B2370A9
S214400D7018E0144B9D4209D11E46114D01A930463C
S214400D80A8470028FAD1019B23700BE00E4B9D42EA
S214400D9008D11E460A4D01A93046A8470028FAD178
S214400DA0019B237003B0F0BD00080E4011094000BF
S214400DB0000A0E40001A0E40001C0E400040024042
S214400DC0290A40000080024000C0024070B50C4630
S214400DD02A4B984208D11E46294D21463046A84700
S214400DE00028FAD1012070BD264B984208D11E46F5
S214400DF0234D21463046A8470028FAD1012070BD31
S214400E00214B984208D11E461D4D21463046A847E4
S214400E100028FAD1012070BD1C4B984208D11E46CE
S214400E20174D21463046A8470028FAD1012070BD0C
S214400E30174B984208D11E46164D21463046A847C5
S214400E400028FAD1012070BD134B984208D11E46A7
S214400E50104D21463046A8470028FAD1012070BDE3
S214400E600E4B984208D11E460A4D21463046A847AA
S214400E700028FAD1012070BD002070BD00080E4049
S214400E80FD084000000A0E40001A0E40001C0E40AE
S214400E9000400240110A40000080024000C002406C
S214400EA0F8B51A481A4B984710F0010F2CD0194A3B
S214400EB01368013313600A2B26D1174B1B784BB1AE
S214400EC0164A136801331360642B0BD10022124B71
S214400ED01A7007E0114A1368013B136013B90122E8
S214400EE00D4B1A7000230B4A13600D4C23600B4FBA
S214400EF0064E3A68214630460A4DA84701232360ED
S214400F003A6821463046A847F8BD00BF0000024078
S214400F10D1084000E408402008004020E008402077
S214400F20280940209D0840002DE9F0478AB0434BF1
S214400F309847434B98470E20424EB047424D434B4E
S214400F401D60434A434B1A60434A444B1A604FF471
S214400F50E1330193C02302934FF4006303930024CC
S214400F60049405940E20B0473D4A01A928463D4BBF
S214400F70984728463C4B984728463C4B98473C4F1A
S214400F803B68214698683B4DA8473B6821465868D1
S214400F90A8473948394B98471F20B047384E214616
S214400FA03046384DA84701213046A847364B079370
S214400FB0089403F18F5303F5E353099307A930468A
S214400FC0324B9847324D2C81AC724FF00B0AC5F825
S214400FD004A04FF06409C5F81090EC602C602946D8
S214400FE03046DFF8C080C047224621463046294B6F
S214400FF098474FF480732B810127AF72C5F804A041
S214401000C5F81090EC602F6029463046C04722460F
S21440101039463046204B9847204B4FF00042C3F8A5
S2144010208020C3F8802183F81F431A60214630464B
S2144010301B4CA04739463046A047FEE79D0140007E
S21440104099024000450640000080024024094020A6
S214401050CD0D400020094020F50C40001C094020E2
S21440106080D1F008AD094000010A4000090A40005E
S214401070380440200D124000A02D4000FD114000D5
S21440108000000240C5084000A0860100ED06400072
S21440109028094020D5084000E908400000E100E06B
S2144010A0B90840003907400070B50F4E0F4D761B0B
S2144010B0B61018BF002405D0013455F8043B9847B5
S2144010C0A642F9D10A4E0B4D761B01F097FEB6109C
S2144010D018BF002406D0013455F8043B9847A64272
S2144010E0F9D170BD70BD00BF082E4000082E4000EC
S2144010F0102E4000082E400070B4840746D0541E80
S214401100002A41D0CDB2034602E0621EE4B3144644
S21440111003F8015B9A07F8D1032C2ED9CDB245EAE5
S21440112005250F2C45EA054519D903F11002264638
S214401130103E0F2E42F8105C42F80C5C42F8085CF9
S21440114042F8045C02F11002F2D8A4F1100222F038
S2144011500F0204F00F041032032C13440DD91E4620
S2144011602246043A032A46F8045BFAD8221F22F0A5
S21440117003020432134404F003042CB1C9B21C44E5
S21440118003F8011BA342FBD170BC704714460346CC
S214401190C2E700BFF0B5054689B008460C4600F0E9
S2144011A0EFF8AB6B144F04940126441C04A90222AA
S2144011B003940590AC680697079601910292B3B1E6
S2144011C0B4F90C309A0406D4626E43F4005322F409
S2144011D00052A38162662146284601AA00F0DAFB47
S2144011E0002814BF4FF0FF300A2009B0F0BD284653
S2144011F000F07CFAE4E700BFF82D4000024B0146C1
S2144012001868FFF7C7BF00BF3804402000290CBF4E
S214401210022200224FF4806300F000B82DE9F0432C
S214401220514C256883B004460F4690461E4615B17D
S214401230AB6B002B79D0B8F1020F04D0B8F1010F98
S2144012407FD8002E7DDB2146284600F0BBF9216B77
S21440125041B104F14003994202D0284600F0B2FA68
S21440126000232363B4F90C300022A26162601A06A0
S21440127054D423F44A6323F00303B8F1020FA38146
S21440128039D001AB6A462146284600F02FFDA38997
S2144012901843A08126B327B3AB6B002B4DD0009BE1
S2144012A0B4F90C0027609E421CBF40F40060A08149
S2144012B0B8F1010F08BF40F0010083B208BFA0811B
S2144012C003F0080080B22761666118B313F001008E
S2144012D02FD000207642A661A06003B0BDE8F08320
S2144012E0009E304600F076FD074668B3A38943F07B
S2144012F08003A381D0E7002004F1430243F00203B9
S21440130000250121A381A56022602261616103B0AE
S214401310BDE8F083A06003B0BDE8F08321692846AD
S21440132000F050FAB4F90C30A3E7284600F0DEF996
S21440133081E7A66003B0BDE8F083284600F0D6F902
S214401340ADE74FF0FF30E2E7DDF80090B14506D05C
S214401350484600F03FFD074608B14E46C6E7B4F99A
S2144013600C304FF0FF30C7E7380440200000000044
S2144013700000000000000000000000000000000028
S21440138090F800F06DE9024520F007016FF0000C80
S21440139010F0070491F820F040F049804FF0000428
S2144013A06FF00700D1E9002391F840F000F1080003
S2144013B082FA4CF2A4FA8CF283FA4CF3A2FA8CF33B
S2144013C04BBBD1E9022382FA4CF200F10800A4FAA2
S2144013D08CF283FA4CF3A2FA8CF3E3B9D1E90423F6
S2144013E082FA4CF200F10800A4FA8CF283FA4CF32D
S2144013F0A2FA8CF37BB9D1E9062301F1200182FAE7
S2144014004CF200F10800A4FA8CF283FA4CF3A2FAEC
S2144014108CF3002BC6D0002A04BF04301A4612BAFA
S214401420B2FA82F2FDE8024500EBD2007047D1E9FD
S214401430002304F00305C4F100004FEAC50514F08C
S214401440040F91F840F00CFA05F562EA05021CBF5D
S21440145063EA050362464FF00004A9E7024B13B166
S214401460024800F005B87047000000000117400031
S214401470002301461A46184601F084BBB1F90C30E9
S2144014809AB22DE9F0410D46110780463CD46A6871
S21440149043F40063002AAB8173DDAC6A002C4BD06A
S2144014A09BB203F48052002192B2D8F80060C8F88C
S2144014B00010002A69D02A6D5F0705D569682B6B36
S2144014C0521A0BB1EB6BD21A0023E9694046A0478B
S2144014D0441C3CD0B5F90C302A692A6023F40063DA
S2144014E00022AB81DB046A6049D4296BC8F80060EF
S2144014F011B305F14003994202D0404600F062F92C
S21440150000202863BDE8F0812E69AEB12C682E60BD
S21440151090070CBF6B690023A41BAB600AE0234610
S21440152032466F6AE9694046B8470028A4EB000493
S214401530064404DD002CF2DC0020BDE8F081AB89D7
S21440154043F04003AB814FF0FF30BDE8F081D8F860
S21440155000201D2AF3D81A4BD34003F0010383F032
S2144015600104002BEBD0B5F90C302969296023F42F
S2144015700063D9046C60AB81B7D5002AB5D1286525
S214401580B3E7EA6B002A88DCD6E70123E9694046E0
S214401590A047431C024602D0AB89AC6A8CE7D8F819
S2144015A00030002BF8D01D2B01D0162B02D1C8F8E6
S2144015B00060C1E7AB8943F04003AB81BDE8F081F2
S2144015C00100402010B5044682B008B1836B53B189
S2144015D0B1F90C0008B902B010BD204602B0BDE813
S2144015E01040FFF74BBF019100F080F80199EFE7FC
S2144015F0014900F051BB00BF4D2C40002DE9F04F93
S214401600354B4568C3630024074600F53B72042308
S2144016100321C0F8E412C0F8E822C0F8E04283B0E4
S2144016202C606C60AC606C66EC812C616C61AC616B
S214401630AB81214605F15C000822FFF75DFDBE68E0
S214401640DFF898B0DFF898A0DFF89890DFF8988039
S214401650C5F820B001230922C5F824A0C5F8289073
S214401660C5F82C80ED612146F381B28106F15C001D
S21440167034607460B460746634617461B461082226
S2144016800193FFF739FDFD68F66112200222C6F885
S21440169020B0C6F824A0C6F82890C6F82C8021466C
S2144016A0A881EA812C606C60AC606C662C616C61D1
S2144016B0AC6105F15C000822FFF71EFD019BED6161
S2144016C0C5F820B0C5F824A0C5F82890C5F82C80E9
S2144016D0BB6303B0BDE8F08FF1154000092A400017
S2144016E02D2A4000692A4000892A4000836B03B1B6
S2144016F07047FFF783BF00BF704700BF704700BF0B
S21440170038B5074D074C2C1BA41005D0013C55F8A6
S214401710043D9847002CF9D1BDE8384001F078BB2D
S214401720202E40001C2E4000F8B5234F0C4606469F
S21440173000F064FFBB685D6825F00305291B01F6D1
S214401740EF7121F47F6121F00F01A1F58054B4F5CB
S214401750805F07DB0021304601F044F9BB682B442C
S214401760984204D0304600F04BFF0020F8BD61425E
S214401770304601F037F901300DD0104BBA68196881
S2144017802D1B45F001053046091B5560196000F0D9
S21440179037FF0120F8BD0021304601F023F9BA6832
S2144017A0831A0F2BDEDD064C0449246843F0010300
S2144017B0001B53600860D5E73C044020F4084020F6
S2144017C048084020002945D02DE9F0410D46804686
S2144017D000F014FF55F8047C6A4927F00103A5F190
S2144017E00804E2188E685068B24220F0030062D0C7
S2144017F0FE0750600BD455F8087CE41B01F1080E38
S214401800A56875453B446FD0E768EF60BD60151826
S2144018106D68ED0742D543F001026260E350B3F5D0
S214401820007F18D2DB085A1C4D6851F83270A7600A
S21440183001209B1000FA03F301EBC2001D43083859
S214401840E0604D6041F83240FC604046BDE8F04103
S21440185000F0D6BE70475A0A042A53D89A0902F1B5
S21440186039077F0002F1380501EB870051F8272041
S2144018704449083890424DD0516821F003018B42CC
S21440188002D292689042F7D1D068E060A26084604D
S214401890D4604046BDE8F04100F0B2BE95683A4F8D
S2144018A0BD4203443FD0D068E86043F00102856003
S2144018B06260E350B3E7FF07034407D455F8082CAB
S2144018C0A41A1344A068E268C26090602F4A126867
S2144018D043F00100934260608C60B6D32C4B404688
S2144018E01968FFF721FFB0E711184968C90744D4C3
S2144018F09168D268CA60034443F00100916060601A
S214401900E350A2E7142A17D802F15C077F0002F1E1
S2144019105B05A9E7AA104B68012505FA02F21343B6
S2144019204B600246B1E743F001024C610C61E56052
S214401930A5606260E35088E7542A06D81A0B02F185
S2144019406F077F0002F16E058EE7B2F5AA7F06D8D4
S214401950DA0B02F178077F0002F1770584E740F260
S2144019605450824206D89A0C02F17D077F0002F15D
S2144019707C0579E7FE277E2576E743F00102626024
S214401980E35062E73C0440204404402044084020A2
S214401990F00840209368002B76D02DE9F04F8B89D5
S2144019A085B00C4619070190164629D522693AB3E8
S2144019B003F002081FFA88F0356800282FD04FF051
S2144019C00009B44FC846B246B84543464A4628BFC3
S2144019D03B460198B8F1000F50D0E169666AB047BF
S2144019E0002871DDDAF808301B1A8144C0EB08087D
S2144019F0CAF80830002BE7D1002005B0BDE8F08FCC
S214401A002146019801F05AF8002840F03A81A3890F
S214401A10356803F002081FFA88F00028CFD113F08B
S214401A2001095BD14F4602961FB39A05D4F8088049
S214401A302CD54745C246C0F0A48013F4906F40F0C2
S214401A40B18020685246494600F074FDA06823687D
S214401A50C8EB00005344A06023603846029A93685F
S214401A601B1A81443F1A9360002BC5D0A389002FD0
S214401A70DBD1D5F800906F680835D5E7D5F80090EB
S214401A80D5F8048008359FE7002070472068236912
S214401A90984203D861698F4280F0B780B84528BF26
S214401AA0B8464246494600F045FDA3682268C8EB62
S214401AB003034244A3602260002B49D1214601988B
S214401AC0FFF780FD002843D0B4F90C3043F04003C4
S214401AD04FF0FF30A38105B0BDE8F08F80460290FE
S214401AE082468146B9F1000F2AD0029B002B4CD08B
S214401AF0206823696269C845C34628BFCB469842DA
S214401B005F4604D9A36813449B4500F390809345F1
S214401B1020DB1346676AE16901985246B847071EBC
S214401B20D2DDB8EB070823D0B368DB1BBA44C7EB5B
S214401B300909B360002B3FF45FAFB9F1000FD4D171
S214401B400023D5F800A0D5F8049002930835C9E7DD
S214401B50404683E75A46514600F0ECFCA2682368AC
S214401B60CBEB02025B44B8EB0708A2602360DBD1F4
S214401B7021460198FFF726FD0028A5D1CDF808801C
S214401B80D2E72068B846BA465CE74A460A2150463D
S214401B9000F0E6FB00286FD001300123CAEB0008B6
S214401BA00293A5E762692068216902EB4208C1EB0F
S214401BB0000A08EBD8780AF101004FEA6808384472
S214401BC04045424684BF804642465B0542D5114664
S214401BD0019800F007F98346002855D052462169FF
S214401BE000F00EFCA38923F4906343F08003A381A6
S214401BF0CAEB08030BEB0A00C4F81480C4F810B014
S214401C002060A360B846BA461CE76FF00043BB426C
S214401C1028BF3B464A4693FBF1F30198666A01FBB0
S214401C2003F3E169B04700283FF718AF4CE71A4680
S214401C305146039300F07EFC2268039B01981A44A9
S214401C4022602146FFF7BEFC039B00287FF43CAF92
S214401C501F4666E7019800F0D5FC83460028C7D1AA
S214401C60019D21692846FFF7ADFDB4F90C300C22E2
S214401C7023F080032A6029E7012309F10108029333
S214401C8036E74FF0FF30B8E6019A0C231360B4F9FC
S214401C900C301BE700FCFF7F2DE9F84310F5387742
S214401CA01FD0884606464FF000097D68BC68013D57
S214401CB011D4A389012B05F1FF3508D9B4F90E30AC
S214401CC001332146304602D0C04749EA00096B1C22
S214401CD004F16804EDD13F68002FE6D14846BDE8E0
S214401CE0F883B9464846BDE8F88300BF70B50D4650
S214401CF0B1F90E10002990B014461E4614DB01AA16
S214401D0000F0E6FF00280FDB029A02F47042A2F5CC
S214401D100052B2FA82F252094FF480634FF40060E8
S214401D203260236010B070BDA88900F0800082B297
S214401D30002030601AB14023236010B070BD4FF4CD
S214401D4080631046236010B070BD00BF8A8992073A
S214401D500B4606D501F1430201211A601A6159610A
S214401D607047F0B583B001AB6A460C460546FFF7B0
S214401D70BDFF00990646284600F034F8B4F90C300A
S214401D80D0B1019A124F0099EF6343F08003A381CC
S214401D902060206161611AB93343A38103B0F0BD6E
S214401DA02846B4F90E1000F0A7FFB4F90C3000280E
S214401DB0F2D043F00103EFE79A05EFD404F1430273
S214401DC043F002030121A381226022616161E5E7BD
S214401DD0F1154000024B0146186800F003B800BFFA
S214401DE0380440202DE9F04F01F10B05162D83B045
S214401DF0064640F29F8035F0070500F1BF80A942B5
S214401E0000F2BC8000F0FAFBB5F5FC7FC0F09C8287
S214401E106B0A00F0BA80042B00F28381A80900F117
S214401E20390E4FEA4E033830C44F07EB8303A3F115
S214401E3008015C68A14207D1ACE0002A80F2AC8081
S214401E40E468A14200F0A680636823F003035A1BAF
S214401E500F2AF2DDB9493C6901F1080E744500F0DD
S214401E60B381636823F003035A1B0F2A00F399815A
S214401E70002AC1F814E0C1F810E080F29E80B3F565
S214401E80007F80F06781DB0803F1010C01229B1084
S214401E9002FA03F34A6851F83C80C4F8088001EB24
S214401EA0CC091A43A9F10803E3604A6041F83C4074
S214401EB0C8F80C40831001249C40944200F28A806B
S214401EC0144206D120F003006400144200F10400DE
S214401ED0FAD007EBC009CC468046DCF80C108C459F
S214401EE007D173E1002A80F28181C9688C4500F0F1
S214401EF06D814B6823F003035A1B0F2AF2DD0C4614
S214401F00D1F80CC054F8088F4B1945F001054D60C8
S214401F1042F00101C8F80CC03046CCF808807B611E
S214401F203B61C3F80CE0C3F808E059609A5000F0F3
S214401F3067FB1FE0102921D800F060FB1025062320
S214401F4002207E4F07EB8303A3F108025C689442AD
S214401F5000F045816368E168A56823F003032344E5
S214401F6030465A68E96042F001028D605A6000F0DF
S214401F7047FB0834204603B0BDE8F08F00240C230E
S214401F802046336003B0BDE8F08F80234FF0400E0C
S214401F903F2049E770465DE72344E1685A68A568F4
S214401FA042F00102E96030468D605A6000F028FB3E
S214401FB00834204603B0BDE8F08F234430465A68C4
S214401FC042F001025A6000F01BFB0834204603B082
S214401FD0BDE8F08FBC68636823F00308A84504D3C7
S214401FE0C5EB08030F2B00F38C80554BDFF8609150
S214401FF01A68D9F8003001332A4404EB080A00F086
S214402000608102F580520F3222F47F6222F00F0286
S21440201011463046019200F0E5FCB0F1FF3F8346A2
S214402020019A00F05881824500F2FC80454B1968C1
S214402030DA451144196000F05381D9F80000DFF802
S21440204010E101301BBFCAEB0B0A5144CEF800B07A
S21440205019601BF0070100F01781C1F10800C1F5B7
S2144020608051834408315A44C2F30B02C2EB010943
S21440207049463046019300F0B5FC431C019B00F0F6
S2144020803F81CBEB00024A4442F001021968C7F890
S21440209008B04944BC42CBF804201960DFF8A4904D
S2144020A016D0B8F10F0F40F2FD806268A8F10C031D
S2144020B023F00703E01802F001024FF0050E1A4322
S2144020C00F2B6260C0F804E0C0F808E000F21C8104
S2144020D01D4BBC681A68914288BF19601B4B1A6832
S2144020E09142626888BF196022F003029542A2EBD3
S2144020F0050301D80F2B04DC304600F081FA00249B
S21440210038E7621943F0010345F001056560304643
S214402110BA60536000F074FA0834204603B0BDE855
S214402120F08F142B71D9542B00F2A480280B00F1A9
S2144021306F0E4FEA4E036E3076E600BF3C044020FA
S214402140F0084020F4084020EC084020E8084020F2
S214402150480840205A0A042A5ED9142A00F2B3805E
S21440216002F15C0149005B3207EB810C57F8211005
S214402170DFF8DC81ACF1080C8C4500F088804A68BA
S21440218022F00302934202D289688C45F7D1D1F8F7
S2144021900CC07A68C4F80CC0A160CCF80840CC608B
S2144021A088E6631942F0010745F001056560304650
S2144021B04B610B61C3F80CE0C3F808E05F609A50CF
S2144021C0083400F01DFAD5E64A6873E608F10108BF
S2144021D018F0030F0CF1080C7FF47FAE30E0DC689B
S2144021E0A34208BF02303FF435AEB3E60B440C467C
S2144021F05A68C96854F8085F42F001025A6030468F
S214402200E9608D6000F0FCF9B4E603F15C0E03F182
S2144022105B004FEA4E0307E69A0902F1390149008E
S2144022203832A1E7BC424A4B3FF400AF9C68626834
S21440223022F003025AE759F80839994540F082805F
S21440224010F0030F00F1FF30F5D17B6823EA04035A
S2144022507B6064009C423FF6BDAE002C3FF4BAAEB5
S2144022601C4240467FF435AE64001C4200F1040038
S214402270FAD02EE6B3F5AA7F18D8E80B00F1780E10
S2144022804FEA4E037730CFE54FF48051EBE601211D
S214402290D8F80430921001FA02F21A43C8F8042023
S2144022A0614677E70123CBF8043025E740F25452E5
S2144022B0934220D8A80C00F17D0E4FEA4E037C30A6
S2144022C0B2E51032A4E6542A26D81A0B02F16F0162
S2144022D049006E3248E7BC68626822F0030205E7B0
S2144022E0CAF30B0000287FF4A8AE4244BB6842F015
S2144022F001025A60ECE6FE234FF07F0E7E2093E507
S21440230001224FF00009C1E604F108013046FFF70C
S21440231059FAD9F80010DBE6B2F5AA7F05D8DA0BF1
S21440232002F17801490077321EE740F254518A4262
S21440233005D89A0C02F17D0149007C3214E7FE2153
S2144023407E2211E77B6884E7E808431C5B00F8E5DB
S2144023503C04402000000000000000000000000098
S21440236001F0FF01102A2BDB10F0070F08D010F801
S214402370013B013A8B422DD010F0070F42B3F6D105
S214402380F0B441EA012141EA014122F007047FF01E
S21440239000070023F0E80256083C85EA010586EA75
S2144023A0010685FA47F5A3FA87F586FA47F6A5FAB1
S2144023B087F68EB9EED1F0BC01F0FF0102F00702BD
S2144023C032B110F8013B013A83EA010313B1F8D168
S2144023D00020704701387047002D06BF3546033849
S2144023E0073815F0010F07D1013015F4807F02BF82
S2144023F0013015F4C03F0130F0BC0138704700BFD3
S214402400844641EA000313F003036DD1403A41D3BA
S21440241051F8043B40F8043B51F8043B40F8043B79
S21440242051F8043B40F8043B51F8043B40F8043B69
S21440243051F8043B40F8043B51F8043B40F8043B59
S21440244051F8043B40F8043B51F8043B40F8043B49
S21440245051F8043B40F8043B51F8043B40F8043B39
S21440246051F8043B40F8043B51F8043B40F8043B29
S21440247051F8043B40F8043B51F8043B40F8043B19
S21440248051F8043B40F8043B51F8043B40F8043B09
S214402490403ABDD2303211D351F8043B40F8043BA9
S2144024A051F8043B40F8043B51F8043B40F8043BE9
S2144024B051F8043B40F8043B103AEDD20C3205D3B9
S2144024C051F8043B40F8043B043AF9D2043208D0B1
S2144024D0D2071CBF11F8013B00F8013B01D30B8823
S2144024E003806046704700BF082A13D38B078DD001
S2144024F010F003038AD0C3F10403D21ADB071CBFD3
S21440250011F8013B00F8013B80D331F8023B20F83C
S214402510023B7BE7043AD9D3013A11F8013B00F875
S214402520013BF9D20B7803704B7843708B788370FD
S214402530604670478842F0B50DD98B1898420AD24B
S2144025408118002A51D09A1A13F8014D01F8014D0E
S2144025509342F9D1F0BD0F2A48D941EA00039B07C0
S21440256046D100F1100401F11003154653F8106CE3
S21440257044F8106C53F80C6C44F80C6C53F8086C28
S21440258044F8086C103D53F8046C44F8046C0F2D66
S21440259003F1100304F11004E8D8A2F1100323F06D
S2144025A00F0302F00F0E1033BEF1030F194403441D
S2144025B021D91E1F0D467446043C55F8047B46F848
S2144025C0047F032CF8D8AEF1040424F0030404344A
S2144025D02344214402F0030262B1013B0A4411F84D
S2144025E0014B03F8014F8A42F9D1F0BD0346F3E7A9
S2144025F00346F2E7F0BD7246EEE700BF704700BF05
S214402600704700BF2DE9F04F174683B0002900F011
S214402610C1800E46814607F10B05FFF7EFFF56F8DF
S21440262004EC162D2EF00304A6F1080840D810221C
S2144026301546AF4241D8944275DAC94B996808EBC3
S21440264004008842416800F0D98021F00103034429
S2144026505B68DB077DD51EF0010F35D0394648460E
S214402660FFF7C0FB0746E0B156F8043C23F00103F1
S2144026704344A0F108029A4200F04481221F242AD3
S21440268000F23181132A00F2048103463246116873
S21440269019605168596092689A6031464846FFF71B
S2144026A091F84846FFF7ACFF384603B0BDE8F08FD8
S2144026B025F00705002D2A46BBDA0C230020C9F872
S2144026C0003003B0BDE8F08F56F8083CC3EB080A6C
S2144026D0DAF8043023F0030C04EB0C039342BDDB22
S2144026E05746DAF80C1057F8080F221F242AC16004
S2144026F0886000F21781132A40F212813168CAF8C6
S21440270008107168CAF80C101B2A00F22B81083694
S2144027100AF110023168116071685160B1689160C9
S2144027203E461C46D046631B0F2B1DD8D8F80430B7
S21440273003F0010323434444C8F80430636843F07D
S214402740010363604846FFF75BFF304603B0BDE8D1
S214402750F08F21F003012144914221DBC368826857
S2144027600C46D3609A60DEE7D8F8042008EB0501F3
S21440277002F00102154343F001020B44C8F804502E
S2144027804A605A6842F0010208315A604846FFF7EC
S21440279019F8D7E7114603B0BDE8F04FFFF722BB64
S2144027A01EF0010F7FF45AAF56F8083CC3EB080AF8
S2144027B0DAF8043023F0030C01EB0C0E96458BDB65
S2144027C0C36882685746D3609A6057F8081FDAF89D
S2144027D00C30CB60221F242A996000F29980132A7D
S2144027E062D93368CAF808307368CAF80C301B2AB6
S2144027F000F2A08008360AF1100356E021F0030BE1
S214402800A34405F11000834559DA1EF0010F7FF40A
S21440281025AF56F8081CC1EB080ADAF8041021F078
S214402820030CE34458453FF757AF5746DAF80C10C9
S21440283057F8080F221F242AC160886000F2B4802F
S214402840132A40F2A5803168CAF808107168CAF8A1
S2144028500C101B2A00F2AF8008360AF110023168CD
S214402860116071685160B16891600AEB0501C5EB73
S2144028700B0242F0010299604A60DAF8043003F035
S21440288001031D434846CAF80450FFF7B9FE3846D0
S2144028905CE733680360736843601B2A27D800F1FF
S2144028A0080306F10802F2E63B4632681A60726890
S2144028B05A60B2689A603E467446D04633E708EBA4
S2144028C00501C5EB0B0B4BF0010299604A6056F8C8
S2144028D0043C03F001031D43484646F8045CFFF7FA
S2144028E08FFE304632E73146FFF724FED5E6B36822
S2144028F08360F368C360242A28D000F1100306F1F1
S2144029001002C4E650F8043C23F003031C440AE7D4
S214402910314638467446D046FFF70CFE3E4602E740
S2144029203A46F7E6314638461C46D046FFF702FEA2
S2144029303E46F8E6B368CAF81030F368CAF8143072
S214402940242A1BD010360AF11803AEE73369036118
S2144029507369436106F1180200F1180397E600BF59
S2144029603C044020B168CAF81010F168CAF8141048
S214402970242A0FD010360AF11802CBE63369CAF87B
S21440298018307369CAF81C3018360AF120038CE7F1
S2144029903A4664E73269CAF818207269CAF81C20B9
S2144029A018360AF12002B5E6314638460193FFF75D
S2144029B0C1FD019B59E7B168CAF81010F168CAF822
S2144029C01410242A03D010360AF1180247E7326959
S2144029D0CAF818207269CAF81C2018360AF1200274
S2144029E03DE700BF38B5074C002305460846236040
S2144029F0FEF758F9431C00D038BD2368002BFBD0A7
S214402A002B6038BD6409402010B50C46B1F90E1055
S214402A1000F09AF9002803DB236D0344236510BDBC
S214402A20A38923F48053A38110BD00BF2DE9F04154
S214402A301646B1F90C201F46D3050C46054607D569
S214402A4000220223B1F90E1000F068F9B4F90C2008
S214402A50B4F90E1022F48052A2813B4632462846F4
S214402A60BDE8F04100F014B810B50C46B1F90E10B0
S214402A7000F054F9A389421C0EBF23F4805343F45C
S214402A8080532065A38110BDB1F90E1000F0CCB87C
S214402A9070B50D46084C114606461A462846002391
S214402AA02360FDF7D1FB431C00D070BD2368002B8C
S214402AB0FBD0336070BD00BF6409402038B5304B52
S214402AC01B6805460C4613B19A6B002A38D0B4F9F9
S214402AD00C2093B218070CD52069A8B113F0010258
S214402AE01ED0636900225B42A361A260F0B1002061
S214402AF038BDD9063CD5580726D4206942F008038D
S214402B00A3819BB20028E9D103F42072B2F5007F7E
S214402B10E4D028462146FFF719F9A3892069DDE766
S214402B20990758BF6269A2600028E0D1B4F90C301A
S214402B301A06DDD543F04003A3814FF0FF3038BD81
S214402B401846FEF7D3FDC2E7216B51B104F14003AE
S214402B50994204D02846FEF735FEB4F90C200023EF
S214402B60236300232069636022F024022060C5E7C7
S214402B7042F0400209232B604FF0FF30A28138BD5F
S214402B80380440202DE9F047254C2568D5F84841C3
S214402B900646884692469946C4B360681F2817DCA6
S214402BA0431C76B104EB80050122C5F888A0D4F812
S214402BB0881182401143022EC4F88811C5F8089146
S214402BC01ED00230636044F820800020BDE8F087C5
S214402BD0144B03B34FF4C870FFF7FCF80446D0B16B
S214402BE0D5F84831002780E88800C5F8484138467F
S214402BF00123C4F88871C4F88C71002EE1D0D1E767
S214402C00D4F88C110A43C4F88C21DAE705F5A6748B
S214402C10C5F84841C1E74FF0FF30BDE8F08700BF38
S214402C20F42D4000D51D400038B5074C002305461E
S214402C3008462360FEF750F8431C00D038BD236892
S214402C40002BFBD02B6038BD6409402000293DD0C6
S214402C5070B505460C4608B1836B7BB3B4F90C30AF
S214402C600BB9002070BD21462846FEF707FCE36AF4
S214402C70064633B1E169284698470028B8BF4FF06A
S214402C80FF36A3891B061CD4216B41B104F14003D7
S214402C90994202D02846FEF795FD00232363616CD7
S214402CA021B12846FEF78EFD00236364FEF724FD1F
S214402CB00023A381FEF722FD304670BDFEF716FDC9
S214402CC0CCE721692846FEF77DFDDDE7002070470A
S214402CD038B50B46074C0546114618460023236078
S214402CE0FDF7FEFF431C00D038BD2368002BFBD009
S214402CF02B6038BD6409402038B5074C0023054694
S214402D0008462360FDF7F2FF431C00D038BD236819
S214402D10002BFBD02B6038BD6409402070B50D46B3
S214402D20084C114606461A46284600232360FDF7FF
S214402D30DFFF431C00D070BD2368002BFBD0336000
S214402D4070BD00BF6409402070B50D46084C114662
S214402D5006461A46284600232360FDF757FA431CCA
S214402D6000D070BD2368002BFBD0336070BD00BF21
S214402D70640940200100000002000000040000003A
S214402D800800000010000000200000004000000086
S214402D908000000000010000000200000004000067
S214402DA02D2D2050574D204C4544204578616D7060
S214402DB06C65202D2D0D0A2D2D2053414D45373065
S214402DC02D58504C44202D2D0D0A2D2D20436F6D2F
S214402DD070696C65643A204170722031322032301E
S214402DE031372032303A30313A3439202D2D0D00EB
S214402DF043000000100040200A000000F8B500BF65
S214402E00F8BC08BC9E4670475D1440006501400013
S214402E10F8B500BFF8BC08BC9E467047410140006C
S214402E200100000000093D00010000000000000015
S214402E3000000000FC02402064034020CC034020F9
S214402E40000000000000000000000000000000003D
S214402E50000000000000000000000000000000002D
S214402E6000000000F02D40000000000000000000C0
S214402E70000000000000000000000000000000000D
S214402E8000000000000000000000000000000000FD
S214402E9000000000000000000000000000000000ED
S214402EA000000000000000000000000000000000DD
S214402EB000000000000000000000000000000000CD
S214402EC000000000000000000000000000000000BD
S214402ED000000000000000000100000000000000AC
S214402EE00E33CDAB34126DE6ECDE05000B00000071
S214402EF0000000000000000000000000000000008D
S214402F00000000000000000000000000000000007C
S214402F10000000000000000000000000000000006C
S214402F20000000000000000000000000000000005C
S21440325000000000000000001000402000000000B9
S214403260000000003C0440203C0440204404402031
S214403270440440204C0440204C0440205404402049
S214403280540440205C0440205C04402064044020F9
S214403290640440206C0440206C04402074044020A9
S2144032A0740440207C0440207C0440208404402059
S2144032B0840440208C0440208C0440209404402009
S2144032C0940440209C0440209C044020A4044020B9
S2144032D0A4044020AC044020AC044020B404402069
S2144032E0B4044020BC044020BC044020C404402019
S2144032F0C4044020CC044020CC044020D4044020C9
S214403300D4044020DC044020DC044020E404402078
S214403310E4044020EC044020EC044020F404402028
S214403320F4044020FC044020FC04402004054020D7
S214403330040540200C0540200C0540201405402084
S214403340140540201C0540201C0540202405402034
S214403350240540202C0540202C05402034054020E4
S214403360340540203C0540203C0540204405402094
S214403370440540204C0540204C0540205405402044
S214403380540540205C0540205C05402064054020F4
S214403390640540206C0540206C05402074054020A4
S2144033A0740540207C0540207C0540208405402054
S2144033B0840540208C0540208C0540209405402004
S2144033C0940540209C0540209C054020A4054020B4
S2144033D0A4054020AC054020AC054020B405402064
S2144033E0B4054020BC054020BC054020C405402014
S2144033F0C4054020CC054020CC054020D4054020C4
S214403400D4054020DC054020DC054020E405402073
S214403410E4054020EC054020EC054020F405402023
S214403420F4054020FC054020FC05402004064020D2
S214403430040640200C0640200C064020140640207F
S214403440140640201C0640201C064020240640202F
S214403450240640202C0640202C06402034064020DF
S214403460340640203C0640203C064020440640208F
S214403470440640204C0640204C064020540640203F
S214403480540640205C0640205C06402064064020EF
S214403490640640206C0640206C064020740640209F
S2144034A0740640207C0640207C064020840640204F
S2144034B0840640208C0640208C06402094064020FF
S2144034C0940640209C0640209C064020A4064020AF
S2144034D0A4064020AC064020AC064020B40640205F
S2144034E0B4064020BC064020BC064020C40640200F
S2144034F0C4064020CC064020CC064020D4064020BF
S214403500D4064020DC064020DC064020E40640206E
S214403510E4064020EC064020EC064020F40640201E
S214403520F4064020FC064020FC06402004074020CD
S214403530040740200C0740200C074020140740207A
S214403540140740201C0740201C074020240740202A
S214403550240740202C0740202C07402034074020DA
S214403560340740203C0740203C074020440740208A
S214403570440740204C0740204C074020540740203A
S214403580540740205C0740205C07402064074020EA
S214403590640740206C0740206C074020740740209A
S2144035A0740740207C0740207C074020840740204A
S2144035B0840740208C0740208C07402094074020FA
S2144035C0940740209C0740209C074020A4074020AA
S2144035D0A4074020AC074020AC074020B40740205A
S2144035E0B4074020BC074020BC074020C40740200A
S2144035F0C4074020CC074020CC074020D4074020BA
S214403600D4074020DC074020DC074020E407402069
S214403610E4074020EC074020EC074020F407402019
S214403620F4074020FC074020FC07402004084020C8
S214403630040840200C0840200C0840201408402075
S214403640140840201C0840201C0840202408402025
S214403650240840202C0840202C08402034084020D5
S2104036603408402000000200FFFFFFFF7F
S804400A456C
