:020000040040BA
:10000000C0244020C1094000710A4000710A40002C
:10001000710A4000710A4000710A400000000000AF
:10002000000000000000000000000000710A400015
:10003000710A400000000000710A4000710A40008F
:10004000710A4000710A4000710A4000710A4000C4
:10005000710A4000710A4000710A4000710A4000B4
:10006000710A400000000000FD0540001506400038
:100070002D064000710A4000710A4000710A4000DC
:10008000450640005D064000710A4000710A4000CC
:10009000710A4000710A4000710A4000710A400074
:1000A000710A4000710A4000710A4000710A400064
:1000B000710A4000710A4000710A4000710A400054
:1000C000710A4000710A4000710A4000710A400044
:1000D00000000000710A400000000000710A4000AA
:1000E000710A4000710A4000710A4000710A400024
:1000F000710A4000710A4000710A4000710A400014
:10010000710A4000710A4000710A4000710A400003
:10011000710A400000000000000000000000000024
:10012000710A4000710A4000710A4000710A4000E3
:10013000710A400000000000710A4000710A40008E
:1001400010B5054C237833B9044B13B10448AFF311
:1001500000800123237010BD300440200000000007
:10016000400F4000084B10B51BB108490848AFF3D9
:1001700000800848036803B910BD074B002BFBD073
:10018000BDE81040184700BF0000000034044020C4
:10019000400F4000400F40000000000080B582B0DA
:1001A00000AF78607B68072B31D801A252F823F0AA
:1001B0000D024000D1014000D9014000E1014000A2
:1001C000E9014000F1014000F90140000302400054
:1001D0000020114B98471AE001200F4B984716E07A
:1001E00000200E4B984712E010200C4B98470EE071
:1001F00020200A4B98470AE03E210020084B9847F0
:1002000005E03E210120064B984700E000BF00BFFB
:100210000837BD4680BD00BF75074000E1074000BC
:100220005108400080B582B000AF78607B68072B32
:1002300026D801A252F823F0590240005D02400086
:100240005D0240006F0240006F0240006F024000FC
:100250006F0240006F024000012312E00B4B9847F1
:100260000346002B14BF01230023DBB209E0084B37
:1002700098470346002B14BF01230023DBB200E0A4
:10028000002318460837BD4680BD00BFAD074000BB
:10029000C908400080B483B000AF78607B68072B4A
:1002A00025D801A252F823F0C9024000CF02400035
:1002B000D5024000DB024000DF024000E3024000C4
:1002C000E7024000EB0240004FF4FA4310E04FF425
:1002D00000430DE04FF400430AE0084B08E0084BF0
:1002E00006E0084B04E0074B02E0064B00E0002369
:1002F00018460C37BD465DF8047B704700093D0089
:1003000000127A00001BB70080B582B000AF034630
:10031000FB7100BFFB791846054B9847034683F0F5
:100320000103DBB2002BF5D100BF0837BD4680BD0D
:100330002502400080B586B000AFF8607A603B606F
:100340000B46FB727B68002B07D13B68002B04D166
:10035000FB684FF470021A6019E0FB7A18460E4BE6
:10036000984702467B68B2FBF3F37B617B693A688E
:1003700002FB03F37B613B68013B1A04074B13400C
:100380007A68D2B2134343F47C52FB681A6000BF10
:100390001837BD4680BD00BF950240000000FF0732
:1003A00080B582B000AF786039603B68002B08D11F
:1003B000094B9847094A7B681B6843F000539362D6
:1003C00005E0064A7B681B6843F48033D36100BFB5
:1003D0000837BD4680BD00BFE508400000060E405E
:1003E00080B582B000AF78607B68002B03D1054BED
:1003F0009847034602E0044B9847034618460837DF
:10040000BD4680BD010940001D09400080B582B095
:1004100000AF0346FB71FB79033B042B08D8FB7943
:100420001846064B9847FB791846054B984700E05D
:1004300000BF00BF0837BD4680BD00BF9D01400022
:100440000903400080B582B000AF786000BF7868D3
:10045000044B98470346002BF9D000231846083771
:10046000BD4680BDE103400080B500AF0620054BCE
:100470009847024613469B0013449A0013441846BB
:1004800080BD00BF9502400080B500AF024B984789
:100490000346184680BD00BF6904400090B583B094
:1004A00000AF1348134B98470620134B9847381D4D
:1004B000192301220621114CA0473B1D002118469B
:1004C0000F4B984700200F4B984702200E4B984740
:1004D00000200E4B98470E4B98470E4B984703460B
:1004E0001846044B984700BF0C37BD4690BD00BF6F
:1004F00000A3E111E50B40000D044000350340006E
:10050000A10340004504400075064000F10640008C
:10051000790A40008904400080B483B000AF78605D
:100520007B68DB6C18460C37BD465DF8047B704772
:1005300080B483B000AF78607B689B6C18460C3742
:10054000BD465DF8047B704780B584B000AF78602D
:1005500039607868264B9847F8607868254B98474B
:100560000246FB681340FB60FB68002B3CD0002375
:10057000BB6034E0204ABB681B0113441A683B6827
:100580009A4226D11C4ABB681B01134404331A68E3
:10059000FB681340002B1CD0174ABB681B01134497
:1005A0000C331B681449BA6812010A4410681249D6
:1005B000BA6812010A4404321268114698470E4A7A
:1005C000BB681B01134404331B68DB43FA68134008
:1005D000FB60BB680133BB60BB68062B03D8FB68BC
:1005E000002BC7D100E000BF00BF1037BD4680BD63
:1005F00019054000310540004C04402080B500AF93
:100600000A210248024B984700BF80BD000E0E40F1
:100610004905400080B500AF0B210248024B9847C6
:1006200000BF80BD00100E404905400080B500AFFE
:100630000C210248024B984700BF80BD00120E40BB
:100640004905400080B500AF10210248024B984791
:1006500000BF80BD00140E404905400080B500AFCA
:1006600011210248024B984700BF80BD00160E4082
:100670004905400080B483B000AF78607B68013BDF
:10068000032B1AD801A252F823F000BF9D064000A8
:10069000A3064000AB064000B306400000237B6089
:1006A0000EE04FF480737B600AE04FF440737B6090
:1006B00006E04FF400737B6002E000237B6000BF24
:1006C0000A490A4B1B6B23F440727B6813430B638C
:1006D00000BF064B9B6E03F00803002BF9D000BF50
:1006E0000C37BD465DF8047B704700BF00060E4026
:1006F00080B485B000AF78601D491D4B1B6B23F0A3
:1007000070027B6813430B634FF48053FB6007E078
:10071000FB68002B01D1012323E0FB68013BFB6058
:10072000134B9B6E03F00803002BF1D0104A104BC3
:100730001B6B23F0030343F0020313634FF4805356
:10074000FB6007E0FB68002B01D1012309E0FB6897
:10075000013BFB60064B9B6E03F00803002BF1D0BE
:10076000002318461437BD465DF8047B704700BF70
:1007700000060E4080B483B000AF78607B68012B28
:1007800005D10749064B9A68064B13438B60044B0F
:10079000054A1A6000BF0C37BD465DF8047B704700
:1007A00010180E40000010A5080000A580B400AF8E
:1007B000094B5B6903F08003002B07D0074B9B6E4E
:1007C00003F08003002B01D0012300E00023184632
:1007D000BD465DF8047B704710180E4000060E40C1
:1007E00080B483B000AF78601549154B1A6A154B79
:1007F00013430B6200BF124B9B6E03F40033002BBC
:10080000F9D00F490E4B1A6A0F4B13407A68134305
:1008100043F45C130B6200BF094B9B6E03F400337F
:10082000002BF9D00649064B1A6A084B134043F4D3
:100830005C130B6200BF0C37BD465DF8047B70474C
:1008400000060E40080037008FFFC8FFFFFFC8FEFC
:1008500080B483B000AF786039607B68002B08D02B
:100860001349134B1B6A134A1A40134B13430B6271
:1008700018E00F490E4B1A6A104B13403A681202E7
:1008800092B21A430E4B13430B6200BF084B9B6E90
:1008900003F00103002BF9D00549054B1A6A094BF7
:1008A00013430B6200BF0C37BD465DF8047B7047F5
:1008B00000060E40FCFFC8FE02003701FCFFC8FF27
:1008C000010037000000370180B400AF044B9B6E7D
:1008D00003F480331846BD465DF8047B704700BFC3
:1008E00000060E4080B400AF044B4FF000529A62F5
:1008F00000BFBD465DF8047B704700BF00060E4098
:1009000080B400AF044B9B6E03F002031846BD4653
:100910005DF8047B704700BF00060E4080B400AF56
:10092000044B9B6E03F040031846BD465DF8047B04
:10093000704700BF00060E4080B483B000AFEFF3F5
:1009400010837B607B68002B0CBF01230023DBB28C
:100950003B6072B6BFF35F8F044B00221A703B6896
:1009600018460C37BD465DF8047B704700004020F8
:1009700080B483B000AF78607B68002B14BF012384
:100980000023DBB218460C37BD465DF8047B704788
:1009900080B582B000AF78607868074B984703460F
:1009A000002B05D0054B01221A70BFF35F8F62B692
:1009B00000BF0837BD4680BD7109400000004020DF
:1009C00080B584B000AF1E4BFB601E4BBB60FA6865
:1009D000BB689A420CD007E0BB681A1DBA60FA687F
:1009E000111DF96012681A60BB68174A9342F3D36D
:1009F000164BBB6004E0BB681A1DBA6000221A6087
:100A0000BB68134A9342F6D3124BFB60124AFB6851
:100A100023F07F039360114B98477860104A104B86
:100A20001B6843F470031360BFF34F8FBFF36F8FE6
:100A300078680C4B98470C4B98470C4B9847FEE74F
:100A4000400F40000000402030044020300440208F
:100A5000BC0440200000400000ED00E039094000E7
:100A600088ED00E091094000D90D4000B50C400030
:100A700080B400AFFEE700BF80B400AF524B1B6BE9
:100A800003F00303012B14D0012B02D3022B38D027
:100A90007AE04E4B5B6903F08003002B04D04C4B93
:100AA0004FF400421A606FE0494B4FF4FA421A606B
:100AB0006AE0454B1B6A03F08073002B03D0444B64
:100AC000444A1A6060E0424B434A1A603E4B1B6A3C
:100AD00003F07003102B04D0202B08D0002B0ED075
:100AE0000EE03B4B1B685B00394A136008E0384B53
:100AF0001A6813465B001344354A136000E000BFD8
:100B000042E0314B1B6A03F08073002B03D0304B63
:100B1000304A1A601CE02E4B2F4A1A602A4B1B6A7F
:100B200003F07003102B04D0202B08D0002B0ED024
:100B30000EE0274B1B685B00254A136008E0244B3E
:100B40001A6813465B001344214A136000E000BF9B
:100B50001D4B1B6B03F00303022B14D11A4B9A6A33
:100B60001E4B13401B0C0133194A126802FB03F39E
:100B7000174A1360144B9B6ADBB2154A1268B2FB2A
:100B8000F3F3134A136000BF0F4B1B6B03F07003AA
:100B9000702B08D10E4B1B68114AA2FB03235B0884
:100BA0000B4A13600AE0084B1B6B03F070031B0930
:100BB000074A126822FA03F3054A136000BFBD46D4
:100BC0005DF8047B704700BF00060E4010180E4011
:100BD00004004020001BB70000093D000000FF0793
:100BE000ABAAAAAA80B483B000AF78607B68194A28
:100BF000934204D8184B4FF080621A6023E07B6860
:100C0000164A934203D8144B154A1A601BE07B68BE
:100C1000144A934203D8104B134A1A6013E07B68BE
:100C2000124A934203D80C4B114A1A600BE07B68BE
:100C3000104A934204D8084B4FF004221A6002E095
:100C4000054B0D4A1A6000BF0C37BD465DF8047BAA
:100C5000704700BFFF2C3101000C0E40FF596202AB
:100C600000010004FF86930300020004FFB3C404E4
:100C700000030004FFE0F5050005000480B400AFA8
:100C80000A4B4FF480521A61094B4FF480721A617B
:100C9000074B4FF480721A60054B4FF480725A6311
:100CA00000BFBD465DF8047B704700BF00060E40E4
:100CB00000120E4080B584B000AF3D4B98473D4BCD
:100CC0004FF400425A603C4B98473C4B4FF48062D3
:100CD0001A613B4B4FF400621A60394B4FF40062CB
:100CE0005A61374B4FF400625A66354B4FF400623D
:100CF0001A62334B4FF400221A60314B4FF400223A
:100D00005A612F4B4FF400225A662D4B4FF40022AC
:100D10001A622A4B4FF480321A612A4B4FF08052EC
:100D20001A60284B4FF080525A61264B4FF0805288
:100D30005A66244B4FF080521A62234BFB60204BC3
:100D4000DB6B03F40023002B01D1204BFB601D4B18
:100D5000DB6B03F08053002B01D11D4BFB60184B64
:100D6000DB6B03F40063002B04D01A4B4FF480724A
:100D70001A6303E0174B4FF480725A630023BB6081
:100D800002E0BB680133BB60BA68FB689A42F8DBDB
:100D9000104B4FF480721A6300237B6002E07B6883
:100DA00001337B607A68FB689A42F8DBC5E700BFD5
:100DB0009D04400050180E407D0C400000060E407F
:100DC000000E0E4000140E40C0C62D0060E3160059
:100DD000808D5B0000120E4070B50F4E0F4D761BDC
:100DE000B61018BF002405D0013455F8043B9847CD
:100DF000A642F9D10A4E0B4D761B00F08FF8B610C3
:100E000018BF002406D0013455F8043B9847A64289
:100E1000F9D170BD70BD00BF280F4000280F400001
:100E2000300F4000280F4000024B13B1024800F081
:100E300005B8704700000000490E4000002301463D
:100E40001A46184600F014B838B5074D074C2C1B4D
:100E5000A41005D0013C55F8043D9847002CF9D169
:100E6000BDE8384000F064B8400F40003C0F40003F
:100E70002DE9F047254C2568D5F8484106468846B7
:100E800092469946C4B360681F2817DC431C76B1AC
:100E900004EB80050122C5F888A0D4F888118240AF
:100EA0001143022EC4F88811C5F808911ED00230F3
:100EB000636044F820800020BDE8F087144B03B342
:100EC0004FF4C870AFF300800446D0B1D5F8483174
:100ED000002780E88800C5F8484138460123C4F857
:100EE0008871C4F88C71002EE1D0D1E7D4F88C1150
:100EF0000A43C4F88C21DAE705F5A674C5F8484121
:100F0000C1E74FF0FF30BDE8F08700BF180F400089
:100F1000000000004300000008004020F8B500BFBA
:100F2000F8BC08BC9E467047290E40006501400091
:100F3000F8B500BFF8BC08BC9E46704741014000B0
:100F40000100000000093D0000000000F402402004
:100F50005C034020C40340200000000000000000AB
:100F60000000000000000000000000000000000081
:100F7000000000000000000000000000140F40000E
:100F80000000000000000000000000000000000061
:100F90000000000000000000000000000000000051
:100FA0000000000000000000000000000000000041
:100FB0000000000000000000000000000000000031
:100FC0000000000000000000000000000000000021
:100FD0000000000000000000000000000000000011
:100FE0000000000000000000000000000000000001
:100FF00001000000000000000E33CDAB34126DE69E
:10100000ECDE05000B000000000000000000000006
:1010100000000000000000000000000000000000D0
:1010200000000000000000000000000000000000C0
:1010300000000000000000000000000000000000B0
:1010400000000000000000000000000000000000A0
:04000005004009C1ED
:00000001FF
