S01D00004652454552544F535F53414D5F4558414D504C45312E73726563C1
S214400000E02A40202D0840002908400029084000EA
S2144000102908400029084000290840000000000048
S214400020000000000000000000000000050C40003A
S2144000302908400000000000A50C40000D0D4000BF
S21440004029084000290840002908400029084000A7
S2144000502908400029084000290840002908400097
S2144000602908400000000000050540001905400032
S2144000702D05400029084000290840002908400076
S2144000804105400055054000290840002908400029
S2144000902908400029084000290840002908400057
S2144000A02908400029084000290840002908400047
S2144000B02908400029084000290840002908400037
S2144000C02908400029084000290840002908400027
S2144000D000000000290840000000000029084000F9
S2144000E02908400029084000290840002908400007
S2144000F029084000290840002908400029084000F7
S21440010029084000290840002908400029084000E6
S2144001102908400000000000000000000000000029
S21440012029084000290840002908400029084000C6
S2144001302908400000000000290840002908400027
S21440014010B5054C237833B9044B13B10448AFF3CC
S21440015000800123237010BD74084020000000007A
S214400160605F4000084B10B51BB108490848AFF324
S21440017000800848036803B910BD074B002BFBD02E
S214400180BDE81040184700BF000000007808402037
S214400190605F4000605F40000000000010B51048FF
S2144001A0104B98473E2100200F4B98470F4CA047D6
S2144001B00028FCD00E4B98470E4A0F4B9A620F4CC5
S2144001C0A0470028FCD002200D4B984700200D4B3E
S2144001D098470D4B98470248024B984710BD00BFC2
S2144001E000A3E111190A40000D06400061064000D8
S2144001F071064000013F182000060E408106400070
S21440020069054000A50540000909400090B92DE960
S214400210F0410C469046002A0FDD8F18084E094DD7
S214400220306821462B6898470134A742F8D14046AB
S214400230BDE8F0814FF0FF3070470020BDE8F08108
S214400240940A40208C0A40200138022815D82DE90F
S214400250F0410E4614469AB10D46DFF838800C4FF2
S214400260D8F8000015F8011B3B68984700280ADBC1
S214400270A81B013CF4D1BDE8F0814FF0FF30704739
S2144002800020BDE8F0814FF0FF30BDE8F08100BFB0
S214400290900A4020940A4020F8B54FF40042574B4D
S2144002A05A60BFF34F8FBFF36F8F554B0022C3F892
S2144002B050225A6942F400325A61BFF34F8FBFF35F
S2144002C06F8FD3F88060C6F34E3506F007070437C5
S2144002D0C6F3C906B6FA86F000F01F00BFF34F8F8C
S2144002E01C46334605FA07F103FA00F20A43C4F8FF
S2144002F06022013BB3F1FF3FF6D1013DB5F1FF3F30
S214400300EFD1BFF34F8F3E4B5A6942F480325A6169
S214400310BFF34F8FBFF36F8F3A4A3B495160A1F509
S21440032080715160BFF34F8FBFF36F8FD3F8902229
S21440033022F00102C3F89022D3F8942222F0010260
S214400340C3F89422BFF34F8FBFF36F8F0A202F4C12
S214400350A0470B20A0470C20A0471020A047112004
S214400360A0472B4B4FF480721A61C3F8A0201A6343
S214400370A3F580634FF400625A61C3F8A0205A6622
S214400380C3F890205A651A62C3F88420196F21F486
S21440039000611967596F21F400615967C3F8C0209E
S2144003A0C3F8D420C3F8B0204FF400121A66C3F83E
S2144003B090205A655A62C3F88020196F21F40011C4
S2144003C01967596F21F4001159675A60114AD2F8DB
S2144003D0143143F01003C2F814310F4B10221A6642
S2144003E0C3F890205A655A62C3F88020196F1143AB
S2144003F01967596F114359675A60F8BD50180E4037
S21440040000ED00E0000C0E400C08005A910640003B
S21440041000120E400080084000100E4001637047F6
S2144004204163704721F00061B1F1405F01D1836BB9
S21440043000E0C36B134214BF01200020704700BF8A
S214400440416412F0010F01D0416600E0016612F0EF
S2144004500A0F01D0016200E0416212F0020F02D0A2
S214400460C0F8801004E012F0080F01D0C0F88410E5
S21440047041610160704700BF10B44164019C0CB1FB
S214400480416600E001660BB1016500E041650AB1D6
S214400490016300E04163016101605DF8044B704711
S2144004A0836B0B4214BF012000207047C06C70471E
S2144004B0806C70472DE9F041044688460E4B9847BD
S2144004C0054620460D4B9847054013D00C4C04F18A
S2144004D060062368434508D16168294205D0E36831
S2144004E040469847636825EA0305B44202D0103474
S2144004F0002DEED1BDE8F081AD044000B1044000CF
S2144005009008402008B50A210148024B984708BD8C
S214400510000E0E40B504400008B50B210148024BC2
S214400520984708BD00100E40B504400008B50C21A1
S2144005300148024B984708BD00120E40B5044000E3
S21440054008B510210148024B984708BD00140E40DC
S214400550B504400008B511210148024B984708BD34
S21440056000160E40B5044000032807D0042808D0E3
S21440057002280CBF4FF48072002204E04FF4407211
S21440058001E04FF4007206490B6B23F440731343AB
S2144005900B630A46936E13F0080FFBD0704700BFFC
S2144005A000060E40184A136B23F07003184310637E
S2144005B0936E13F0080F03D009E0013B03D11EE011
S2144005C04FF4805310498A6E12F0080FF5D00E4A49
S2144005D0136B23F0030343F002031363906E10F093
S2144005E0080004D000207047013B03D109E04FF4D7
S2144005F0805305498A6E12F0080FF5D070470120E7
S21440060070470120704700BF00060E4038B10E49C3
S2144006100B6A0E4A1A400E4B13430B6270470A4849
S214400620036A090289B20B4A1A400B4B134319431B
S21440063001620246936E13F0010FFBD0024A116A24
S214400640064B0B431362704700060E40FCFFC8FE85
S21440065002003701FCFFC8FF0100370000003701E9
S214400660024B986E00F48030704700BF00060E4084
S2144006704FF00052014B9A62704700BF00060E4092
S214400680024B986E00F00200704700BF00060E4016
S2144006903F281ED81F280CD8114B9A690123834047
S2144006A0934318D0012303FA00F00D4B1861002045
S2144006B0704720380A4BD3F80821012383409343E0
S2144006C00BD0012303FA00F0054BC3F800010020CD
S2144006D0704701207047002070470020704700BFD9
S2144006E000060E40436913F0020F02D0C16100209D
S2144006F070470120704700BF436913F0010F03D0D5
S21440070083690B70002070470120704710B40C01BD
S21440071094420FD91AE0416841F400214160120426
S21440072002F4E0221A43026200201CE001201AE094
S214400730012018E0630803EBC202B2FBF4F2D308D0
S2144007405C1E4FF6FE718C42E9D9EFE7C9004B08B4
S21440075003EBC202B2FBF1F2D3085C1E4FF6FE7109
S2144007608C42E5D8D7E75DF8044B7047084BC0F895
S214400770E43000234360436283628823036024237B
S21440078003604FF4807303604FF4002303607047A8
S2144007900041535570B505460C4616460F4B9847D4
S2144007A000220F4B1A609CB13246216828460D4BFA
S2144007B09847024670B96168A3681943236919438C
S2144007C0E3680B4306490B6069680B436B6002E0C5
S2144007D0012200E00122104670BD00BF6D074000B8
S2144007E0000940200D07400040230360704700BFCB
S2144007F010230360704700BF436913F0020F04D014
S214400800C1F30801C161002070470120704700BF56
S214400810436913F0010F05D08369C3F308030B60E7
S2144008200020704701207047FEE700BF00B583B048
S214400830274B284A9A4203D0274B254A9A4204D34C
S214400840264B274A9A420FD31AE02149254B5B1A7A
S21440085023F0030304331F4A134452F8040B41F8B1
S214400860040B9A42F9D1EBE71F4B204AD21A22F0EA
S21440087003021A44043B002143F8041B9342FBD175
S2144008801B4A1C4B23F07F039360EFF31083B3FAAD
S21440089083F35B09019372B6BFF35F8F0022164B5A
S2144008A01A700199154A136843F470031360BFF336
S2144008B04F8FBFF36F8F29B101220F4B1A70BFF3D2
S2144008C05F8F62B60E4B98470E4B9847FEE700BFC9
S2144008D000004020605F400074084020DC0A402052
S2144008E0740840207308402078084020DF0A4020E3
S2144008F000ED00E0000040000000402088ED00E0F1
S214400900952D4000D92B40003C4B1B6B03F0030356
S214400910012B0FD013B1022B29D057E0384B5B691F
S21440092013F0800F14BF4FF400424FF4FA42354B99
S2144009301A604BE0314B1B6A13F0807F03D0324A7B
S214400940304B1A6042E0314A2E4B1A602B4B1B6AE2
S21440095003F07003102B02D0202B04D036E02C4A34
S214400960284B1A6032E0284A264B1A602EE0234B6A
S2144009701B6A13F0807F03D0234A224B1A6012E092
S214400980224A204B1A601D4B1B6A03F07003102B43
S21440099002D0202B04D006E01D4A1A4B1A6002E013
S2144009A0194A184B1A60154B1B6B03F00303022BB6
S2144009B00CD1124A936A926A1248C3F30A410368FA
S2144009C001FB0333D2B2B3FBF2F303600B4B1B6B5A
S2144009D003F07003702B07D10A4A13680D49A1FB38
S2144009E003135B0813607047044B1B6B0549C3F346
S2144009F002120B68D3400B60704700BF00060E40E3
S214400A0010180E4004004020001BB70000093D00AF
S214400A1000127A00ABAAAAAA124B984204D84FF00A
S214400A208062114B1A607047104B984203D8104AA8
S214400A300D4B1A6070470F4B984203D80E4A0A4B2C
S214400A401A6070470D4B984203D80D4A064B1A6001
S214400A5070470C4B984294BF4FF004220A4A024B10
S214400A601A607047FF2C3101000C0E40FF5962029D
S214400A7000010004FF86930300020004FFB3C40491
S214400A8000030004FFE0F50500050004094B1B6861
S214400A9013B9094A074B1A60064B1B681A180749D0
S214400AA0914204DB1046034A1060184670474FF0E8
S214400AB0FF30704704094020E02C4020FCFF4520D2
S214400AC04FF0FF30704700BF4FF400534B6000209C
S214400AD0704700BF012070470020704700F10803B0
S214400AE043604FF0FF328260C360036100230360BF
S214400AF0704700BF00230361704700BF43684B60E8
S214400B009A688A609A685160996008610368013300
S214400B100360704730B40D68B5F1FF3F01D10269FC
S214400B2007E000F1080200E01A4653681C68A54238
S214400B30FAD253684B6099608A60516008610368D6
S214400B400133036030BC7047036942688168916036
S214400B508268416851605A68904201D182685A6002
S214400B600022026118680138186070470D4B1B68F8
S214400B70B3F1FF3F0AD04FF0800372B683F311887B
S214400B80BFF36F8FBFF34F8F62B6FEE74FF0800321
S214400B9072B683F31188BFF36F8FBFF34F8F62B681
S214400BA0FEE700BF0800402006480068006880F363
S214400BB0088862B661B6BFF34F8FBFF36F8F00DF12
S214400BC000BF000008ED00E0DFF80C00016841F4CB
S214400BD0700101607047000088ED00E04FF08073C0
S214400BE040F8043C40F8081C054B40F80C3C40F8E4
S214400BF0202C6FF0020340F8243C4438704700BF76
S214400C006D0B4000064B19680868B0E8F04F80F35B
S214400C100988BFF36F8F4FF0000080F3118870474C
S214400C20B4094020704700BF4FF0800372B683F38C
S214400C301188BFF36F8FBFF34F8F62B60B4A1368AE
S214400C4001331360012B0FD1094B1B6813F0FF0FC4
S214400C500AD04FF0800372B683F31188BFF36F8FCC
S214400C60BFF34F8F62B6FEE7704700BF08004020D4
S214400C7004ED00E00A4B1B6853B94FF0800372B690
S214400C8083F31188BFF36F8FBFF34F8F62B6FEE7D3
S214400C90013B034A13600BB983F31188704700BFCA
S214400CA008004020EFF30980BFF36F8F154B1A689A
S214400CB01EF0100F08BF20ED108A20E9F04F10609C
S214400CC04DF8043D4FF0800072B680F31188BFF3B4
S214400CD04F8FBFF36F8F62B601F098F84FF0000069
S214400CE080F3118808BC19680868B0E8F04F1EF019
S214400CF0100F08BFB0EC108A80F30988BFF36F8FDF
S214400D00704700BFB4094020704700BF08B5EFF3F6
S214400D1011834FF0800272B682F31188BFF36F8F53
S214400D20BFF34F8F62B6054B984718B14FF08052CD
S214400D30034B1A60002383F3118808BD8D1A4000C8
S214400D4004ED00E0034A044B1A600722043B1A6095
S214400D50704700BFBF27090014E000E000B583B02D
S214400D60254B1A78D2B20192FF221A701B78DBB25A
S214400D708DF803309DF8033003F080031F4A13704C
S214400D8007221F4B1A609DF8033013F0800F10D0D7
S214400D90062200E00A469DF803305B00DBB28DF881
S214400DA003309DF80330511E13F0800FF2D1144BE0
S214400DB01A60134A13681B0203F4E0631360019B36
S214400DC0DBB20D4A13700F4B1A6842F460021A6089
S214400DD01A6842F060421A600B4B984700220B4B51
S214400DE01A600B4B98470B4A136843F04043136016
S214400DF0094B9847094B984700E400E00809402013
S214400E000C09402020ED00E0450D40000800402041
S214400E10C90B400034EF00E0A90B40006D0B4000CA
S214400E20EFF305830F2B11D9124A9B5CDBB2124AB3
S214400E3012789A420AD94FF0800372B683F311882B
S214400E40BFF36F8FBFF34F8F62B6FEE70B4B1B6847
S214400E5003F4E0630A4A126893420AD94FF08003CB
S214400E6072B683F31188BFF36F8FBFF34F8F62B6AE
S214400E70FEE77047F0E300E0080940200CED00E094
S214400E800C09402010B50446064B98472046064BB2
S214400E9098470446054B98470CB9054B984720465B
S214400EA010BD00BF711A40000D2E4000D51B4000FB
S214400EB0492B400048B110B50446044B984720469D
S214400EC0034B9847034B984710BD7047711A400034
S214400ED01D2E4000D51B400038B504461546026C12
S214400EE042B90368002B2BD140681B4B9847002320
S214400EF063602CE06DB98068184B9847A268236CF5
S214400F001344A360626893421CD32368A360002006
S214400F101DE0C068114B9847236C5B42E2681A4458
S214400F20E26021688A4202D262681344E360022D7E
S214400F300AD1A36B53B1A36B013BA363002006E029
S214400F40002004E0002002E0002000E00020A36B28
S214400F500133A36338BD00BF0D2240009D334000DF
S214400F6030B583B00190446D54B94FF0800372B6EB
S214400F7083F31188BFF36F8FBFF34F8F62B6FEE7E0
S214400F80A26BE36B9A420AD34FF0800372B683F3A8
S214400F901188BFF36F8FBFF34F8F62B6FEE7A26B29
S214400FA0934217D90A4601A920460C4B9847054656
S214400FB0A36CB3F1FF3F09D1636A63B104F1240027
S214400FC0074B9847002818BF012504E0A36C01335F
S214400FD0A36400E00025284603B030BDD90E40008B
S214400FE0DD1F4000026C72B110B50346C46814445D
S214400FF0C4604068844201D31868D8600846D968FF
S214401000014B984710BD70479D334000F8B50446E5
S214401010204B9847A36C002B18DD1F4D1F4F204ECA
S214401020636D33B100212046A847012808D1B84750
S21440103006E0636A53B104F12400B04700B1B847F4
S214401040A36C013BA364A36C002BE9DC4FF0FF3399
S214401050A364144B98470F4B9847636C002B13DDE3
S21440106023691BB910E0236923B90DE004F110068B
S2144010700B4D0A4F3046A84700B1B847636C013B5A
S2144010806364636C002BEEDC4FF0FF336364054B08
S2144010909847F8BD290C4000610F400039214000B8
S2144010A0DD1F4000750C400038B550B94FF0800346
S2144010B072B683F31188BFF36F8FBFF34F8F62B65C
S2144010C0FEE704460D46184B98472268216CE36BB2
S2144010D003FB01F3D01860600020A063A2605B1A97
S2144010E01344E3604FF0FF336364A36485B9236918
S2144010F0ABB104F110000D4B984701280FD14FF0CB
S21440110080520B4B1A60BFF34F8FBFF36F8F06E0D2
S21440111004F11000074DA84704F12400A847064BE9
S2144011209847012038BD00BF290C4000DD1F400015
S21440113004ED00E0DD0A4000750C4000F8B550B9FB
S2144011404FF0800372B683F31188BFF36F8FBFF3FF
S2144011504F8F62B6FEE7064617460D46C1B101FB05
S21440116000F05930144B9847044610B905E0246007
S21440117015E000F15803036011E04FF0800372B6AB
S21440118083F31188BFF36F8FBFF34F8F62B6FEE7CE
S2144011905820094B984704460028E8D1EDE7E66317
S2144011A0256401212046054B984784F8507000235B
S2144011B063652046F8BD00BF850E4000A91040007C
S2144011C02DE9F04F85B0019250B94FF0800372B6CA
S2144011D083F31188BFF36F8FBFF34F8F62B6FEE77E
S2144011E0044661B9026C52B14FF0800372B683F385
S2144011F01188BFF36F8FBFF34F8F62B6FEE7022BA7
S2144012000DD1E26B012A0AD04FF0800372B683F309
S2144012101188BFF36F8FBFF34F8F62B6FEE71D4650
S2144012200091514B984760B9019B63B14FF08003E2
S21440123072B683F31188BFF36F8FBFF34F8F62B6DA
S214401240FEE7002700E00027484EDFF84C91DFF825
S2144012502881B047A26BE36B9A4201D3022D33D16B
S2144012602A4600992046424B9847636D73B12946FB
S2144012702046404B9847012822D14FF080523E4BA3
S2144012801A60BFF34F8FBFF36F8F19E0636A73B175
S21440129004F12400394B9847012811D14FF0805271
S2144012A0354B1A60BFF34F8FBFF36F8F08E038B1EE
S2144012B04FF08052304B1A60BFF34F8FBFF36F8FA3
S2144012C02F4B984701204BE0019B1BB92C4B98476E
S2144012D0002045E017B902A8C8470127284B984781
S2144012E0284B9847B047636CB3F1FF3F01D10023CA
S2144012F06364A36CB3F1FF3F01D10023A364204B8A
S214401300984701A902A8204B984718BBB047D4F885
S21440131038B0D4F83CA01A4B9847D34514D101991D
S21440132004F11000194B98472046194B9847194B23
S214401330984700288DD14FF08053C8F80030BFF34F
S2144013404F8FBFF36F8F84E72046114B9847114B62
S21440135098477EE720460E4B98470E4B984700200E
S21440136005B0BDE8F08F00BF45214000290C400085
S214401370D90E4000610F400004ED00E0DD1F400044
S214401380750C4000711A4000A5204000D91E400050
S2144013900D104000D51B40007520400070B5064635
S2144013A05820114B98470446D8B100254560056043
S2144013B08560C56085630123C36305644FF0FF33D2
S2144013C04364836480F8506045651030074EB047EC
S2144013D004F12400B0472B462A4629462046044DB1
S2144013E0A847204670BD00BF850E4000DD0A40007D
S2144013F0C111400050B94FF0800372B683F3118894
S214401400BFF36F8FBFF34F8F62B6FEE72DE9F04113
S214401410044661B9006C50B14FF0800372B683F356
S2144014201188BFF36F8FBFF34F8F62B6FEE7022B74
S2144014300DD1E06B01280AD04FF0800372B683F3DB
S2144014401188BFF36F8FBFF34F8F62B6FEE71E461D
S21440145015468846214B9847EFF311874FF0800397
S21440146072B683F31188BFF36F8FBFF34F8F62B6A8
S214401470A26BE36B9A4201D3022E23D132464146F9
S2144014802046174B9847A36CB3F1FF3F15D1636DC9
S21440149043B131462046134B9847ADB1012813D18E
S2144014A0286016E0636A8BB104F124000E4B98471F
S2144014B075B168B1012028600BE0A36C0133A364CA
S2144014C0012006E0002004E0012002E0012000E0C8
S2144014D0012087F31188BDE8F08100BF210E40004F
S2144014E0D90E4000610F4000DD1F40002DE9F04F4F
S2144014F085B0019250B94FF0800372B683F31188DD
S214401500BFF36F8FBFF34F8F62B6FEE7044661B9F5
S214401510026C52B14FF0800372B683F31188BFF36A
S2144015206F8FBFF34F8F62B6FEE798468B46524B9F
S214401530984760B9019B63B14FF0800372B683F35E
S2144015401188BFF36F8FBFF34F8F62B6FEE700265A
S21440155000E00026494DDFF854A1DFF83091A84757
S214401560A36B002B34D0E56859462046444B984739
S214401570B8F1000F18D1A36B013BA363236813B9DE
S214401580404B984760602369F3B104F110003E4B2E
S2144015909847012818D14FF080523C4B1A60BFF351
S2144015A04F8FBFF36F8F0FE0E560636A63B104F15E
S2144015B02400354B984738B14FF08052334B1A6071
S2144015C0BFF34F8FBFF36F8F314B984701204FE0EB
S2144015D0019B1BB92E4B9847002049E016B902A83C
S2144015E0D04701262A4B98472A4B9847A847636C12
S2144015F0B3F1FF3F01D100236364A36CB3F1FF3F17
S21440160001D10023A364224B984701A902A8224B8C
S214401610984738BBA847A76B1D4B9847E7B9236840
S2144016202BB9A84760681D4B9847194B98470199B6
S21440163004F124001A4B984720461A4B98471A4BF9
S214401640984700288BD14FF08053C9F80030BFF33D
S2144016504F8FBFF36F8F82E72046124B9847124B4F
S21440166098477CE720460F4B98470F4B98470020FB
S21440167005B0BDE8F08F00BF45214000290C400072
S214401680E50F4000CD224000DD1F400004ED00E0A5
S214401690750C4000711A4000A520400065214000AE
S2144016A0D91E40000D104000D51B4000752040005C
S2144016B010B40B4B1B682BB10123094C54F8332054
S2144016C042B900E00023064A42F8331002EBC30357
S2144016D0586002E00133082BF0D15DF8044B7047A8
S2144016E0980A402070B504460D4616460D4B98475E
S2144016F0636CB3F1FF3F01D100236364A36CB3F185
S214401700FF3F01D10023A364074B9847A36B2BB937
S2144017103246294604F12400044B98472046044BA1
S214401720984770BD290C4000750C40005D1F400076
S2144017300D104000084B1B681B6823B94FF0FF3262
S214401740064B1A607047044B1B68DB68DB685A68B8
S214401750024B1A60704700BF14094020D40940204D
S21440176010B50F4B1B6858600E4B1B68984207D24B
S2144017700D4B18680A4B196804310C4B984710BD3E
S21440178004460B4B1868064B19680431074B9847BC
S214401790084B1B689C4201D2064B1C6010BD00BF24
S2144017A0B4094020D009402034094020150B4000A1
S2144017B014094020D40940202DE9F04F83B00C9FF7
S2144017C0DDF834A00E9D50B94FF0800372B683F317
S2144017D01188BFF36F8FBFF34F8F62B6FEE7042FBB
S2144017E00AD94FF0800372B683F31188BFF36F8F28
S2144017F0BFF34F8F62B6FEE70190009390460E46C9
S21440180035B990005F4B98470546002800F0B480F5
S21440181058205C4B98470446A0B105634FEA8802BF
S214401820A5212846584B98476FF040454544236BC2
S21440183003EB850323F00705337884F83430337898
S21440184023B90FE02846514B984795E0334604F1BC
S2144018503402093613F8011F02F8011F197809B13E
S2144018609E42F7D14FF0000884F83D803E46042F54
S21440187028BF0426E662A664C4F84C8004F1040936
S2144018804846DFF854B1D84704F11800D8472461D9
S214401890C6F10506A6616462C4F8508084F8548098
S2144018A0009A019928463A4B98472060BAF1000FB3
S2144018B001D0CAF80040374B9847374A136801337F
S2144018C01360364B1B680BBB344B1C601368012BF4
S2144018D026D1334D05F16408324E2846B0471435BC
S2144018E04545FAD1DFF8F48040462E4DA8472E4EA7
S2144018F03046A8472D48A8472D48A8472D48A84712
S2144019002D4BC3F800802D4B1E6009E02C4B1B6806
S21440191033B9224B1B68DB6A9F4201D31F4B1C60C6
S214401920284A1368013313602364E06A26490B682B
S2144019300122824013430B6000EB80004946184B5F
S21440194003EB8000214B9847214B98471C4B1B6864
S21440195073B1124B1B68DB6A9F420BD94FF0805223
S2144019601C4B1A60BFF34F8FBFF36F8F012005E00B
S214401970012003E0012001E04FF0FF3003B0BDE856
S214401980F08F00BF850E4000D1344000B50E4000B9
S214401990DD0B4000290C4000DC094020B409402003
S2144019A03C094020DD0A4000E0094020B8094020BC
S2144019B0A0094020F4094020140940203409402062
S2144019C018094020D8094020080A4020FD0A400057
S2144019D0750C400004ED00E0F50A40002009402068
S2144019E010B584B0002303930293019300938222A0
S2144019F017491848184CA04701281AD1174B984742
S214401A00012816D14FF0800372B683F31188BFF3D6
S214401A106F8FBFF34F8F62B64FF0FF32104B1A6096
S214401A200122104B1A6000220F4B1A600F4B98474A
S214401A300BE050B94FF0800372B683F31188BFF3C2
S214401A406F8FBFF34F8F62B6FEE704B010BD00BF86
S214401A50F05D40007D1D4000B9174000B5234000B2
S214401A60D409402018094020D00940205D0D400090
S214401A70024A136801331360704700BFCC09402008
S214401A80014B1868704700BFD00940202DE9F04749
S214401A90414B1B68002B6FD1404B1A6801321A60CD
S214401AA01E68D6B93E4B1B681B6853B14FF0800387
S214401AB072B683F31188BFF36F8FBFF34F8F62B652
S214401AC0FEE7374A1168374B186810601960364A87
S214401AD0136801331360354B9847354B1B689E425D
S214401AE001D2002437E00024DFF8B490DFF8E0802D
S214401AF0304FD9F800301B6823B94FF0FF322C4BDB
S214401B001A6028E0D9F80030DB68DD686B689E42D2
S214401B1002D2274A13601EE005F1040A5046C04729
S214401B20AB6A13B105F11800C047E86A3B6801226A
S214401B30824013433B6000EB800051461E4B03EB54
S214401B4080001E4B98471E4B1B68EA6ADB6A9A4227
S214401B5028BF0124CDE71A4B1B68DB6A03EB8303DF
S214401B60154A52F82330022B28BF0124154B1B6818
S214401B704BB9154B984706E0124A13680133136079
S214401B80114B98470024114B1B68002B0CBF204676
S214401B900120BDE8F08700BFCC094020D009402096
S214401BA014094020340940201009402035174000D1
S214401BB0D4094020080A40203C094020FD0A400045
S214401BC0B409402038094020452B40000C0A4020EC
S214401BD0490B40002DE9F843364B1B6853B94FF08C
S214401BE0800372B683F31188BFF36F8FBFF34F8FB6
S214401BF062B6FEE7304B98472E4B1A68013A1A6099
S214401C001B68002B4DD12D4B1B680BBB00244BE0B3
S214401C10FB68DC6804F11800B04704F1040840464D
S214401C20B047E06A2B680122824013432B6000EBEA
S214401C308000414609EB8000214B9847214B1B68AA
S214401C40E26ADB6A9A4208D301221F4B1A6004E01C
S214401C501E4F1F4E1F4DDFF890903B68002BD7D18C
S214401C601D4B1B687BB11C4B1B6863B11B4E164D4E
S214401C70194CB04708B101232B602368013B236011
S214401C802368002BF5D1104B1B68012B0BD14FF06E
S214401C908052134B1A60BFF34F8FBFF36F8F0124F0
S214401CA002E0002400E000240E4B98472046BDE8A2
S214401CB0F88300BFCC094020290C4000DC094020B6
S214401CC0FD0A4000B40940200C0A4020B8094020D4
S214401CD0490B4000080A4020380940208D1A400031
S214401CE004ED00E0750C40003C09402010B500288B
S214401CF029D00446184B1B6853B14FF0800372B688
S214401D0083F31188BFF36F8FBFF34F8F62B6FEE742
S214401D10124B9847124B1B681C44124B18680430F1
S214401D20114B984748B90F4B1A6810490B68D06A50
S214401D300122824023EA02030B6020460C4B984760
S214401D400C4B984738B94FF080520B4B1A60BFF394
S214401D504F8FBFF36F8F10BDCC094020711A4000E3
S214401D60D0094020B4094020490B4000080A4020D2
S214401D7061174000D51B400004ED00E080B5184DCB
S214401D80184FDFF88080184E19E0C0473C68B047CF
S214401D90ACB1164B9847FB68DC68201D144B98473F
S214401DA0144A1368013B13602B68013B2B60124BAF
S214401DB09847206BDFF85090C8472046C8472B68A6
S214401DC0002BE2D10D4B1B68012BDCD94FF0805223
S214401DD00B4B1A60BFF34F8FBFF36F8FD1E700BF37
S214401DE01C094020A0094020D51B4000290C40007B
S214401DF0490B4000DC094020750C40003C0940205F
S214401E0004ED00E0711A4000B50E40002C4B1B68F4
S214401E101BB101222B4B1A60704710B50022294B8C
S214401E201A60294B1B681B6B1A68B2F1A53F0BD191
S214401E305A68B2F1A53F07D19A68B2F1A53F03D1DF
S214401E40DB68B3F1A53F05D01F4B186819683431DD
S214401E501E4B98471E4B1B68B3FA83F3DBB2C3F1A5
S214401E601F0303EB83011B4A52F8212052B94FF05F
S214401E70800372B683F31188BFF36F8FBFF34F8F23
S214401E8062B6FEE7134A9900C81802EB8000446821
S214401E906468446002460832944206D1606803EBA8
S214401EA083010C4A02EB8102506003EB8303094A2C
S214401EB002EB83035B68DA68034B1A6010BD00BF11
S214401EC0CC0940200C0A4020B40940202D2B40006D
S214401ED0080A40203C09402038B550B94FF08003EE
S214401EE072B683F31188BFF36F8FBFF34F8F62B61E
S214401EF0FEE70C46114D29681831114B9847286863
S214401F000430104B984740B92A680F490B68D06A8E
S214401F100122824023EA02030B60B4F1FF3F06D160
S214401F20064B196804310948094B984738BD094B98
S214401F3018682044084B984738BD00BFB409402075
S214401F40150B4000490B4000080A4020F409402089
S214401F50FD0A4000D00940206117400050B94FF0BC
S214401F60800372B683F31188BFF36F8FBFF34F8F32
S214401F7062B6FEE770B515460C46114E316818310C
S214401F80104B9847306804300F4B984740B932683A
S214401F900E490B68D06A0122824023EA02030B6096
S214401FA0012D06D1064B196804310948054B984760
S214401FB070BD084B18682044074B984770BD00BF5B
S214401FC0B4094020FD0A4000490B4000080A402062
S214401FD0F4094020D00940206117400038B5C36856
S214401FE0DC6854B94FF0800372B683F31188BFF3B0
S214401FF06F8FBFF34F8F62B6FEE704F11805284691
S214402000144B9847144B1B689BB9251D2846114B0B
S2144020109847E06A11490B680122824013430B60DF
S21440202000EB800029460E4B03EB80000D4B984793
S21440203003E029460C480B4B98470C4B1B68E26A5A
S214402040DB6A9A4203D90120094B186038BD00204C
S21440205038BD00BF490B4000CC094020080A40204C
S2144020603C094020FD0A4000B8094020B409402001
S2144020700C0A402050B94FF0800372B683F31188A3
S214402080BFF36F8FBFF34F8F62B6FEE7034A126807
S2144020900260034A12684260704700BF1009402041
S2144020A0D009402038B550B94FF0800372B683F35C
S2144020B01188BFF36F8FBFF34F8F62B6FEE70446BB
S2144020C051B94FF0800372B683F31188BFF36F8F18
S2144020D0BFF34F8F62B6FEE70D46124B9847124B42
S2144020E019682B68B3F1FF3F13D0104A1268206876
S2144020F0904202D0626891420DD26268881A83424A
S2144021000BD9521A13442B602046094B984700249B
S21440211004E0002402E0012400E00124054B984737
S214402120204638BD290C4000D009402010094020E8
S21440213075204000750C40000122014B1A60704724
S2144021400C0A4020054B1B6833B1054B1B68002B1F
S2144021500CBF02200020704701207047180940201D
S214402160CC094020002845D038B50346C26A2249EB
S2144021700968C96A8A423CD28169002905DB1E4942
S2144021800968C96AC1F10501816102EB82021B49F7
S21440219001EB82025969914227D11C461D1D2846F3
S2144021A0174B984770B9E36A03EB8301134A52F81A
S2144021B021203AB913480268012101FA03F322EAC2
S2144021C0030303600C4B1B68D86AE0620D490A683B
S2144021D00123834013430B6000EB80002946074BE6
S2144021E003EB8000084B984738BD034A1268D26A12
S2144021F0DA6238BD704700BFB40940203C09402031
S214402200490B4000080A4020FD0A400000284ED0F6
S21440221038B50346284A126890420AD04FF08003E9
S21440222072B683F31188BFF36F8FBFF34F8F62B6DA
S214402230FEE7C26C52B94FF0800372B683F3118842
S214402240BFF36F8FBFF34F8F62B6FEE7013AC264AB
S214402250C06A996C88422CD05ABB1C461D1D284625
S214402260164B984768B9E16A01EB8102144B53F864
S214402270223033B91348036801228A4023EA020316
S2144022800360A06CE062C0F10503A3610D4A1368C9
S214402290012404FA00F10B43136000EB800029464A
S2144022A0074B03EB8000084B9847204638BD00207C
S2144022B07047002038BD00BFB4094020490B40009D
S2144022C03C094020080A4020FD0A4000054B1B6898
S2144022D023B1044B1A68D36C0133D364014B18689E
S2144022E0704700BFB409402008B541600061914284
S2144022F00AD8D21A83699A4211D2011D0A4B18682D
S2144023000A4B9847002008BD9A4201D2994208D20B
S214402310011D074B1868054B9847002008BD012053
S21440232008BD012008BD00BF440A4020150B4000F0
S214402330100A402070B5144B9847144B1B6803BBDB
S214402340134D2846134EB047134C2046B047134B08
S2144023501D60134B1C60002210210520114B98472E
S2144023600A4B186050B94FF0800372B683F3118859
S214402370BFF36F8FBFF34F8F62B6FEE70A490B4B32
S21440238098470B4B984770BD290C4000400A4020A8
S214402390140A4020DD0A4000280A4020100A402047
S2144023A0440A40203D114000085E4000B1164000FF
S2144023B0750C400010B584B00F4B98470F4B1B6808
S2144023C063B10023039302930193042200924FF4D7
S2144023D082720B490B480C4CA04750B94FF0800313
S2144023E072B683F31188BFF36F8FBFF34F8F62B619
S2144023F0FEE704B010BD00BF35234000400A402031
S214402400105E400039254000B917400050B94FF0E3
S214402410800372B683F31188BFF36F8FBFF34F8F7D
S21440242062B6FEE730B585B0154604460F4A1068DA
S214402430C0B11A4600910195029405290DDC0C4B5B
S214402440984702284FF000030CBF089A1A46694680
S21440245006480068074CA04705E000236946064C3E
S214402460A04700E0002005B030BD00BF400A402035
S21440247045214000C1114000F51340002DE9F047CA
S21440248082B08046254B98470746254B1B689842A6
S2144024903BD22BE0DB68D3F800A0DC6804F10409EB
S2144024A04846B047636A20469847E369012B1FD1E8
S2144024B0A36953449A4506D2636024614946286816
S2144024C0184B984714E0002100910B465246204690
S2144024D0154CA04760B94FF0800372B683F311885D
S2144024E0BFF36F8FBFF34F8F62B6FEE70F4D104EB0
S2144024F02B681A68002ACDD10E4A10680B4908602E
S21440250013600123C8F8003002E00023C8F800300A
S214402510034B1F60384602B0BDE8F087811A400082
S2144025203C0A4020150B40000D244000100A402075
S214402530490B4000440A40202DE9F04389B0684CDE
S214402540DFF8CC81674D684B1B681A68002A00F09C
S214402550B580DB681E68654B984704A8644B98476F
S2144025600746049B002B44D1B04230D3614B98477A
S2144025705D4B1B68DB68D3F80C9009F104005E4B9A
S2144025809847D9F81C30012B1CD1D9F8181033467F
S2144025903A4631444846594FB847012812D100219F
S2144025A000910B4632464846554EB04750B94FF01C
S2144025B0800372B683F31188BFF36F8FBFF34F8FDC
S2144025C062B6FEE7D9F82430484698476DE00022C8
S2144025D0F11B20684B4B9847464B9847002864D1E0
S2144025E04FF08053C8F80030BFF34F8FBFF36F8F64
S2144025F05BE0404B984758E0049B002B06DA07996F
S2144026000698059B9847049B002B4FDB069E7369F4
S2144026100BB1301DB84703A8354B9847049B092B90
S21440262044D8DFE803F0050505432A3F0505432A5D
S214402630059FB1693B460246394430462F4FB8475E
S214402640012832D1736A30469847F369012B2CD162
S214402650B269002100910B46059802443046284E48
S214402660B04710BB4FF0800372B683F31188BFF3B8
S2144026706F8FBFF34F8F62B6FEE70599B16151B9D0
S2144026804FF0800372B683F31188BFF36F8FBFF3AA
S2144026904F8F62B6FEE70346024601443046174E69
S2144026A0B04702E03046184B9847134F00231A466F
S2144026B004A92068A84700289ED144E70B4B9847BA
S2144026C004A80B4B98470746049B002B91D10F4B11
S2144026D01B681A68B2FA82F25209002678E700BFF1
S2144026E0400A4020ED144000100A4020711A400075
S2144026F07D244000D51B4000490B4000E9224000A5
S2144027000D244000E5164000B50E4000440A402027
S21440271004ED00E080B5224E224D234C4FF080520F
S2144027204FF020513046A847002835D12368002B6B
S214402730F4D11E4B1B68B3B100230A2219461C482D
S21440274000681C4FB84700230A2219461A480068FA
S214402750B84700230A22194618480068B84700229E
S214402760124B1A6015E000231A46194610480068B6
S214402770134FB84700231A4619460F480068B84713
S21440278000231A4619460D480068B8470122074BF1
S2144027901A6001232360C1E700232360BEE700BF21
S2144027A000140E4025044000480A40200C004020FB
S2144027B04C0A4020ED144000500A4020540A402065
S2144027C0C111400080B50120164B9847164B186043
S2144027D01C46164E164D20680028FDD000230A22BF
S2144027E01946B047012814D104212846114B984772
S2144027F020B104212846104B984703E00421284680
S2144028000E4B984700231A46194620680C4FB84787
S21440281003E004212846094B98476420094B984713
S214402820D9E700BF9D134000540A4020ED144000F5
S21440283000100E40A1044000210440001D0440004A
S214402840C1114000ED1C400080B50120184B984750
S214402850184B18601C46184E184D20680028FDD0AE
S21440286000230A221946B047012817D14FF080416D
S2144028702846134B984728B14FF080412846114BC5
S214402880984704E04FF0804128460F4B9847002376
S2144028901A46194620680D4FB84704E04FF080416D
S2144028A02846094B98474FF44870094B9847D4E759
S2144028B09D134000500A4020ED14400000120E4088
S2144028C0A1044000210440001D044000C111400006
S2144028D0ED1C400080B50120164B9847164B1860FB
S2144028E01C46164E164D20680028FDD000230A22AE
S2144028F01946B047012814D101212846114B984764
S21440290020B101212846104B984703E00121284674
S2144029100E4B984700231A46194620680C4FB84776
S21440292003E001212846094B98474FF4FA70094BBB
S2144029309847D8E79D1340004C0A4020ED144000CD
S214402940000E0E40A1044000210440001D0440003B
S214402950C1114000ED1C400008B5074C4FF480768E
S214402960064DE36B13F4807F01D0666300E0266378
S2144029704FF4FA70A847F4E700120E40ED1C4000F2
S214402980F0B583B005460C4600230193294B984288
S21440299007D11F46284E21463846B0470028FAD170
S2144029A015E0264B984207D11F46234E214638460F
S2144029B0B0470028FAD115E0214B984207D11F4670
S2144029C01D4E21463846B0470028FAD117E01D4B29
S2144029D09D4207D11F46184E21463846B04700282C
S2144029E0FAD119E0184B9D4209D11E46174D01A950
S2144029F03046A8470028FAD1019B237018E0144BB4
S214402A009D4209D11E46114D01A93046A8470028CF
S214402A10FAD1019B23700BE00E4B9D4208D11E4617
S214402A200A4D01A93046A8470028FAD1019B2370D9
S214402A3003B0F0BD00080E40F9064000000A0E4004
S214402A40001A0E40001C0E40004002401108400094
S214402A500080024000C0024070B50C462A4B9842A7
S214402A6008D11E46294D21463046A8470028FAD1AF
S214402A70012070BD264B984208D11E46234D214664
S214402A803046A8470028FAD1012070BD214B984215
S214402A9008D11E461D4D21463046A8470028FAD18B
S214402AA0012070BD1C4B984208D11E46174D21464A
S214402AB03046A8470028FAD1012070BD174B9842EF
S214402AC008D11E46164D21463046A8470028FAD162
S214402AD0012070BD134B984208D11E46104D21462A
S214402AE03046A8470028FAD1012070BD0E4B9842C8
S214402AF008D11E460A4D21463046A8470028FAD13E
S214402B00012070BD002070BD00080E40E506400064
S214402B10000A0E40001A0E40001C0E4000400240C4
S214402B20F90740000080024000C0024008B50A464F
S214402B3001460248024B9847FEE700BF185E400039
S214402B40E52D4000704700BF4FF0800372B683F318
S214402B501188BFF36F8FBFF34F8F62B6FEE700BF9B
S214402B6070B582B00A200E4EB0470024009423462B
S214402B70012211460B480C4DA8470C20B047009444
S214402B80234601224FF080410848A8470B20B04713
S214402B9000942346012204210548A84702B070BD90
S214402BA091064000000E0E407904400000120E4090
S214402BB000100E4008B51020044B984709224FF0ED
S214402BC080510348034B984708BD00BF910640001C
S214402BD000140E404104400070B58AB04B4B9847F5
S214402BE04B4B98474B4D4C4B1D604C4A4C4B1A60D8
S214402BF04C4A4D4B1A604FF4E1330493C02305937F
S214402C004FF4006306930024079408940E20474B25
S214402C109847474A04A92846464B98472846464B75
S214402C2098472846454B9847454E3368214698680E
S214402C30444DA847336821465868A847336821461C
S214402C409868A8470120404B9847404B98474048D3
S214402C50404DA84740494148A847414A4149424813
S214402C60A847039402940194009423464FF480723C
S214402C703E493F483F4CA047012801D03E48A84720
S214402C80002303930293019300934FF480723749D5
S214402C903A48384CA047012802D039482D4B98472F
S214402CA0002303930293019300934FF480722F49BD
S214402CB03448304CA047012802D03148254B98472D
S214402CC0002303930293019300934FF480722749A5
S214402CD02D48284CA047012802D029481D4B98472C
S214402CE0002303930293019300934FF480721F498D
S214402CF02648204CA047012802D02148154B98472B
S214402D00234B984700200AB070BD00BF9D0140008D
S214402D109902400000800240940A4020592A400010
S214402D20900A4020812940008C0A402091064000AD
S214402D3080D1F00895074000E9074000F1074000C1
S214402D403804402099354000612B4000B52B4000A8
S214402D50305E4000E52D40004C5E4000585E40002E
S214402D60605E40006C5E4000785E4000905E4000D2
S214402D7059294000B9174000945E4000D5284000CD
S214402D80B85E400049284000C5274000152740004F
S214402D90E119400070B50F4E0F4D761BB61018BFA8
S214402DA0002405D0013455F8043B9847A642F9D193
S214402DB00A4E0B4D761B03F0BDF8B61018BF002424
S214402DC006D0013455F8043B9847A642F9D170BD69
S214402DD070BD00BF405F4000405F4000485F40001D
S214402DE0405F40000FB400B5074983B004AB0868A5
S214402DF053F8042B8168019300F02CFD03B05DF876
S214402E0004EB04B0704700BF38044020024B014634
S214402E10186800F00BB800BF38044020024B01464B
S214402E20186801F0C1BE00BF380440202DE9F04FBD
S214402E3001F10B05162D83B0064640F29F8035F013
S214402E40070500F1BF80A94200F2BC8000F08EFB6F
S214402E50B5F5FC7FC0F09C826B0A00F0BA80042B6C
S214402E6000F28381A80900F1390E4FEA4E0338304C
S214402E70C44F07EB8303A3F108015C68A14207D166
S214402E80ACE0002A80F2AC80E468A14200F0A68064
S214402E90636823F003035A1B0F2AF2DDB9493C69E5
S214402EA001F1080E744500F0B381636823F0030314
S214402EB05A1B0F2A00F39981002AC1F814E0C1F882
S214402EC010E080F29E80B3F5007F80F06781DB08DB
S214402ED003F1010C01229B1002FA03F34A6851F8F1
S214402EE03C80C4F8088001EBCC091A43A9F10803DA
S214402EF0E3604A6041F83C40C8F80C408310012427
S214402F009C40944200F28A80144206D120F003008E
S214402F106400144200F10400FAD007EBC009CC4626
S214402F208046DCF80C108C4507D173E1002A80F20D
S214402F308181C9688C4500F06D814B6823F003039E
S214402F405A1B0F2AF2DD0C46D1F80CC054F8088FF5
S214402F504B1945F001054D6042F00101C8F80CC020
S214402F603046CCF808807B613B61C3F80CE0C3F880
S214402F7008E059609A5000F0FBFA1FE0102921D86B
S214402F8000F0F4FA1025062302207E4F07EB830359
S214402F90A3F108025C68944200F045816368E168EA
S214402FA0A56823F00303234430465A68E96042F09C
S214402FB001028D605A6000F0DBFA0834204603B008
S214402FC0BDE8F08F00240C232046336003B0BDE8F4
S214402FD0F08F80234FF0400E3F2049E770465DE774
S214402FE02344E1685A68A56842F00102E960304629
S214402FF08D605A6000F0BCFA0834204603B0BDE845
S214403000F08F234430465A6842F001025A6000F07E
S214403010AFFA0834204603B0BDE8F08FBC6863685A
S21440302023F00308A84504D3C5EB08030F2B00F391
S2144030308C80554BDFF860911A68D9F80030013320
S2144030402A4404EB080A00F0608102F580520F32F1
S21440305022F47F6222F00F0211463046019200F0C1
S21440306089FAB0F1FF3F8346019A00F058818245C5
S21440307000F2FC80454B1968DA451144196000F0AF
S2144030805381D9F80000DFF810E101301BBFCAEBCE
S2144030900B0A5144CEF800B019601BF0070100F04F
S2144030A01781C1F10800C1F58051834408315A4464
S2144030B0C2F30B02C2EB010949463046019300F0C9
S2144030C059FA431C019B00F03F81CBEB00024A4477
S2144030D042F001021968C7F808B04944BC42CBF830
S2144030E004201960DFF8A49016D0B8F10F0F40F214
S2144030F0FD806268A8F10C0323F00703E01802F095
S21440310001024FF0050E1A430F2B6260C0F804E030
S214403110C0F808E000F21C811D4BBC681A6891425A
S21440312088BF19601B4B1A689142626888BF196055
S21440313022F003029542A2EB050301D80F2B04DCD4
S214403140304600F015FA002438E7621943F00103D0
S21440315045F0010565603046BA60536000F008FAF5
S2144031600834204603B0BDE8F08F142B71D9542B99
S21440317000F2A480280B00F16F0E4FEA4E036E302B
S21440318076E600BF3C044020600A4020640A4020A7
S2144031905C0A4020580A4020480840205A0A042A20
S2144031A05ED9142A00F2B38002F15C0149005B321A
S2144031B007EB810C57F82110DFF8DC81ACF1080CE6
S2144031C08C4500F088804A6822F00302934202D27F
S2144031D089688C45F7D1D1F80CC07A68C4F80CC021
S2144031E0A160CCF80840CC6088E6631942F001073D
S2144031F045F00105656030464B610B61C3F80CE055
S214403200C3F808E05F609A50083400F0B1F9D5E69C
S2144032104A6873E608F1010818F0030F0CF1080C31
S2144032207FF47FAE30E0DC68A34208BF02303FF454
S21440323035AEB3E60B440C465A68C96854F8085F86
S21440324042F001025A603046E9608D6000F090F925
S214403250B4E603F15C0E03F15B004FEA4E0307E66B
S2144032609A0902F1390149003832A1E7BC424A4B7B
S2144032703FF400AF9C68626822F003025AE759F8B0
S2144032800839994540F0828010F0030F00F1FF3076
S214403290F5D17B6823EA04037B6064009C423FF6DA
S2144032A0BDAE002C3FF4BAAE1C4240467FF435AE6D
S2144032B064001C4200F10400FAD02EE6B3F5AA7F63
S2144032C018D8E80B00F1780E4FEA4E037730CFE57A
S2144032D04FF48051EBE60121D8F80430921001FA01
S2144032E002F21A43C8F80420614677E70123CBF878
S2144032F0043025E740F25452934220D8A80C00F1FF
S2144033007D0E4FEA4E037C30B2E51032A4E6542AD6
S21440331026D81A0B02F16F0149006E3248E7BC68A6
S214403320626822F0030205E7CAF30B0000287FF428
S214403330A8AE4244BB6842F001025A60ECE6FE2367
S2144033404FF07F0E7E2093E501224FF00009C1E644
S21440335004F10801304601F027FCD9F80010DBE6FE
S214403360B2F5AA7F05D8DA0B02F178014900773228
S2144033701EE740F254518A4205D89A0C02F17D016C
S21440338049007C3214E7FE217E2211E77B6884E701
S214403390E808431C5B00F8E53C044020844641EACC
S2144033A0000313F003036DD1403A41D351F8043B78
S2144033B040F8043B51F8043B40F8043B51F8043BCA
S2144033C040F8043B51F8043B40F8043B51F8043BBA
S2144033D040F8043B51F8043B40F8043B51F8043BAA
S2144033E040F8043B51F8043B40F8043B51F8043B9A
S2144033F040F8043B51F8043B40F8043B51F8043B8A
S21440340040F8043B51F8043B40F8043B51F8043B79
S21440341040F8043B51F8043B40F8043B51F8043B69
S21440342040F8043B51F8043B40F8043B403ABDD2D8
S214403430303211D351F8043B40F8043B51F8043B7A
S21440344040F8043B51F8043B40F8043B51F8043B39
S21440345040F8043B103AEDD20C3205D351F8043B09
S21440346040F8043B043AF9D2043208D0D2071CBFD5
S21440347011F8013B00F8013B01D30B8803806046FE
S214403480704700BF082A13D38B078DD010F0030374
S2144034908AD0C3F10403D21ADB071CBF11F8013BE4
S2144034A000F8013B80D331F8023B20F8023B7BE733
S2144034B0043AD9D3013A11F8013B00F8013BF9D25E
S2144034C00B7803704B7843708B78837060467047F8
S2144034D070B4840746D0541E002A41D0CDB203466D
S2144034E002E0621EE4B3144603F8015B9A07F8D183
S2144034F0032C2ED9CDB245EA05250F2C45EA0545C5
S21440350019D903F110022646103E0F2E42F8105CE1
S21440351042F80C5C42F8085C42F8045C02F1100287
S214403520F2D8A4F1100222F00F0204F00F04103279
S214403530032C13440DD91E462246043A032A46F865
S214403540045BFAD8221F22F003020432134404F02C
S21440355003042CB1C9B21C4403F8011BA342FBD19F
S21440356070BC704714460346C2E700BF704700BFB2
S214403570704700BF38B5074C002305460846236011
S214403580FDF784FA431C00D038BD2368002BFBD0DF
S2144035902B6038BDD80A402000290CBF02220022EA
S2144035A04FF4806300F000B82DE9F043514C256895
S2144035B083B004460F4690461E4615B1AB6B002BB3
S2144035C079D0B8F1020F04D0B8F1010F7FD8002EA1
S2144035D07DDB2146284601F089F9216B41B104F193
S2144035E04003994202D0284601F0DEFA00232363C6
S2144035F0B4F90C300022A26162601A0654D423F457
S2144036004A6323F00303B8F1020FA38139D001AB1C
S2144036106A462146284601F065FDA3891843A081E5
S21440362026B327B3AB6B002B4DD0009BB4F90C00F0
S21440363027609E421CBF40F40060A081B8F1010F95
S21440364008BF40F0010083B208BFA08103F0080025
S21440365080B22761666118B313F001002FD00020B6
S2144036607642A661A06003B0BDE8F083009E304677
S214403670FFF7CCFB074668B3A38943F08003A381DA
S214403680D0E7002004F1430243F002030025012165
S214403690A381A56022602261616103B0BDE8F0832A
S2144036A0A06003B0BDE8F0832169284601F07CFAAB
S2144036B0B4F90C30A3E7284601F0ACF981E7A660E0
S2144036C003B0BDE8F083284601F0A4F9ADE74FF01B
S2144036D0FF30E2E7DDF80090B14506D04846FFF7F8
S2144036E095FB074608B14E46C6E7B4F90C304FF096
S2144036F0FF30C7E73804402000000000000000000C
S21440370090F800F06DE9024520F007016FF0000CDC
S21440371010F0070491F820F040F049804FF0000484
S2144037206FF00700D1E9002391F840F000F108005F
S21440373082FA4CF2A4FA8CF283FA4CF3A2FA8CF397
S2144037404BBBD1E9022382FA4CF200F10800A4FAFE
S2144037508CF283FA4CF3A2FA8CF3E3B9D1E9042352
S21440376082FA4CF200F10800A4FA8CF283FA4CF389
S214403770A2FA8CF37BB9D1E9062301F1200182FA43
S2144037804CF200F10800A4FA8CF283FA4CF3A2FA49
S2144037908CF3002BC6D0002A04BF04301A4612BA57
S2144037A0B2FA82F2FDE8024500EBD2007047D1E95A
S2144037B0002304F00305C4F100004FEAC50514F0E9
S2144037C0040F91F840F00CFA05F562EA05021CBFBA
S2144037D063EA050362464FF00004A9E74B6E2DE905
S2144037E0F0479C0492462CD5936812683BB30F462C
S2144037F0804602F1080919E96000B60817D0043D72
S214403800002401E0A64210D03A4655F8041F404630
S21440381001F06AF9431C04F10104F3D10023CAF80D
S2144038200830CAF80430BDE8F087DAF80830A3EB71
S2144038308603CAF8083009F10809002BDBD10020BE
S214403840ECE701F099FA0023CAF80830CAF80430C9
S214403850BDE8F0872DE9F04FABB01C46009190468E
S2144038600493059018B1836B002B00F0DE8000981F
S214403870B0F90C108AB2950407D4436E41F4005256
S21440388023F400538281436692B2110740F1B1801F
S214403890009B1B69002B00F0AC8002F01A020A2A3B
S2144038A000F0B58000230DF1680B02930F930E9342
S2144038B0CDF834B0DA4698F800304446FBB1252BB4
S2144038C002D11CE0252B03D014F8013F002BF9D180
S2144038D0C8EB04059DB10E9B0F9ACAF800800133D1
S2144038E02A44072BCAF804500F920E937BDD002A19
S2144038F040F02885029B0E922B44DA4602932378AA
S214403900002B00F03E8400214FF000034FF0FF32C2
S2144039108DF82F3004F101086378019208460E4670
S2144039200C4608F10108A3F12002582A00F29383BE
S214403930DFE812F04603910391034E03910391038F
S21440394091039103910391038902670291038000DA
S2144039506C029103C6015902590259025902590292
S2144039605902590259025902910391039103910356
S214403970910391039103910391039103CB0191032A
S2144039809103910391039103910391039103910352
S2144039909103140291039103910391039103EE0264
S2144039A091039103110391039103910391039103B2
S2144039B09103910391039103910334038A03910386
S2144039C09103910367038A03910391036C03910368
S2144039D0790395028500E90291039B029103BA029E
S2144039E09103910353030AF1080A029B2B44029366
S2144039F085E70099059800F061FE002840F058855C
S214403A00009B9A8902F01A020A2A7FF44BAF00996B
S214403A10B1F90E30002BFFF645AF234642460598D7
S214403A2000F016FE2BB0BDE8F08F00F0F3FF1EE767
S214403A306442049346F0040698F8003071E730215B
S214403A4004988DF83010019906944FF000037822C0
S214403A508DF82F30002903468DF83120046803F195
S214403A6004034FF0000546F00202C0F2258526F01A
S214403A70800654EA050246F00206049340F0BF84EE
S214403A80B348019B002B40F01C84994600230193C9
S214403A9003935F46019B039A9342B8BF13461D4665
S214403AA0B9F1000F00D0013516F00203079318BF96
S214403AB0023516F08403089340F0F182069B5C1BA7
S214403AC0002C40F3EC82102C40F35685DFF88492AD
S214403AD0DDF838E00F9AD4461023C2467046A84612
S214403AE04D46DDF8149007E000F1020E0CF1080C8C
S214403AF00846103C102C13DD411C103207290F924B
S214403B00CCF80050CCF804300E91EDDD002A40F0A1
S214403B10B782103C102C10464FF0010EDC46EBDC12
S214403B20A94670464546D046E246224407280F92AC
S214403B30CAF80090CAF804400E9000F375839DF8CA
S214403B402F300AF1080A00F1010E002B40F0B08237
S214403B50079B002B00F0C38202320CA90223BEF161
S214403B60070F0F92CDF838E08AE80A0040F37883D2
S214403B70002A40F00A84089B802B4FF0010E104626
S214403B80DA4640F0B082069B5C1B002C40F3AB82CA
S214403B90102CDFF8C49140F30B85D6461023C2465E
S214403BA0A8464D46DDF8149007E000F1020C0EF1F1
S214403BB0080E0846103C102C13DD411C1032072915
S214403BC00F92CEF80050CEF804300E91EDDD002A6C
S214403BD040F01583103C102C4FF0010C1046DE468A
S214403BE0EBDCA9464546D046F2462244BCF1070FD8
S214403BF00F92CAF80090CAF80440CDF838C000F3D7
S214403C00D283019B03995C1A002C0AF1080A0CF136
S214403C10010E604600F36D820399CAF800700A44AC
S214403C20BEF1070F0F92CAF80410CDF838E040F303
S214403C30CE82002A40F03A8370070E9238D5069B13
S214403C405C1B002C34DDDA46102C40F3AB84DFF8E6
S214403C5004910E994F461026DDF8149006E0881C15
S214403C600AF1080A1946103C102C13DD4B1C103282
S214403C70072B0F92CAF80070CAF804600E93EEDD68
S214403C80002A40F08E82103C102C4FF00100114666
S214403C90DA46EBDCB946224407280F92CAF8009071
S214403CA0CAF804400E9040F39B82002A40F02584D8
S214403CB0029B069AAA42ACBF9B185B19029399E2F4
S214403CC046F0800698F800302BE60694002940F02F
S214403CD0AF8446F01006B30640F1128304990731CC
S214403CE021F00701D1E900230831049114461D460E
S214403CF0002A73F10003C0F28683019B9DF82F9043
S214403D00002BC0F21A8354EA050326F0800600F022
S214403D10ED80002D08BF0A2CC0F0ED805F4620469F
S214403D2029460A22002301F0D7FE303207F8012D3B
S214403D302046294600230A2201F0CEFE04460D46C0
S214403D4054EA0503EBD1C7EB0B030393A2E600BF8F
S214403D50085F4000245F4000E45E4000069400296F
S214403D6040F0628446F0100616F0200300F0AE8263
S214403D70049B073323F007034FF000028DF82F20F3
S214403D80D3E9004503F10802019B0492002BC0F2E0
S214403D90748154EA050326F0800640F06E81019B4C
S214403DA0002B00F030844FF00009002400255F46C9
S214403DB0E20842EA4572E90804F007030D46144655
S214403DC0303354EA050207F8013DF1D1F407BAD57D
S214403DD0302BB8D030227B1E07F8012CC3EB0B02E9
S214403DE003921F4656E6A3F13002002418F8013B22
S214403DF004EB840402EB4404A3F13002092AF5D90B
S214403E0091E598F8003001212B208AE598F800309B
S214403E102A2B08F1010500F0DD83A3F13002092AC0
S214403E20A84698BF002500F2CE8318F8013B05EB64
S214403E30850502EB4505A3F13002092AF5D945EA86
S214403E40E57201926FE5049A14681346002C03F15C
S214403E500403FFF6EDAD049398F8003061E5069450
S214403E60002981D08DF82F007EE7049A06941768C3
S214403E704FF000038DF82F30141D019B002F00F0EB
S214403E808683002BC0F25F831A460021384601F035
S214403E909FF9002800F08F83C31B039300230494EC
S214403EA09DF82F900193F5E50694002940F0B983DC
S214403EB016F0200935D116F0100303D116F040094C
S214403EC040F02A83049A13461468019A8DF82F907E
S214403ED0002A03F104034FF00005C0F2328354EA8F
S214403EE0050226F0800604937FF413AF019B002B57
S214403EF03FF4CCAD00242AAF303407F8414DC7EB31
S214403F000B030393C6E546F0200698F8003008E514
S214403F100694002940F06E8346F0100616F02009FD
S214403F20C9D0049B073323F007034FF000028DF8F7
S214403F302F20D3E9004503F10802019B0492002B91
S214403F40C0F2F98154EA050326F080064FF00009D6
S214403F507FF4DFAECAE70694002940F05183B206EC
S214403F60AE4841D5049A073222F00702D2E900450E
S214403F7002F10801049116F0010900F0778154EA35
S214403F80050240F026824FF000038DF82F30019B4B
S214403F90002BC0F2968126F0800672E5049A0694BD
S214403FA013688DF8403013464FF000010125043366
S214403FB08DF82F100493039510AF0023019373E5FB
S214403FC098F8003000287FF4ACAC01212020A8E40B
S214403FD046F0010698F80030A3E40694002940F025
S214403FE00C83B2068E48BDD40499F7060A4600F103
S214403FF09D81750640F19A8104320C880492002512
S214404000B9E746F0400698F800308AE498F8003061
S2144040106C2B03BF98F8013046F0200608F10108E3
S21440402046F010067DE4002940F00983B40640F1CE
S2144040301C82049A02991368CD1708460432294612
S2144040400492C3E9000136E4069400293FF443AEE7
S2144040508DF82F003FE60694002940F0ED82002BB5
S21440406000F08F8001258DF840304FF000038DF82A
S2144040702F30039510AFA0E704934FF0000996E663
S2144040800DAA009909934846FFF7A8FB00287FD160
S2144040900E980F9A099B00F1010EDC4629E50E9812
S2144040A00F9A00F1010E9DF82F30002B3FF450ADD3
S2144040B001320DF12F010123BEF1070F0F92CDF80B
S2144040C038E08AE80A0040F3BF80002A40F04E817C
S2144040D00799002940F0BE809E461046DA46089B67
S2144040E0802B3FF450AD019B03995C1A002C7FF760
S2144040F093AD102CDFF82C9125DDD4461023C24614
S214404100A8464D46DDF8149007E000F1020E0CF18B
S214404110080C0846103C102C11DD411C10320729B3
S2144041200F92CCF80050CCF804300E91EDDDD2B9A9
S214404130103C102C4FF0010E1046DC46EDDCA94634
S2144041404546D046E2462244BEF1070F0F92CAF8D3
S2144041500090CAF80440CDF838E02EDC0AF1080A90
S2144041600EF1010E58E50DAA009901934846FFF757
S21440417035FB68B90E980F9A019B00F1010EDC469C
S214404180C8E70F9B23B1059800990DAAFFF726FBB9
S214404190009B9B895A0600F18B8102982BB0BDE8A4
S2144041A0F08F0DAA00994846FFF718FB0028EFD17C
S2144041B00E990F9A481CDA4655E5002A40F0FB80D7
S2144041C0039A1B9201230F921A970E93DA460AF12E
S2144041D0080A710704D5069B5C1B002C3FF734ADDC
S2144041E0029B0699A942ACBF5B185B190293002A52
S2144041F040F0B38000230E93DA46FFF75CBB0DAA6F
S214404200009907934846FFF7E9FA0028C0D10E9870
S2144042100F9A079B00F1010CDE46CBE4F45E4000AB
S214404220085F4000E45E4000002A40F033819DF87D
S2144042302F30002B00F0F58001230DF12F011A4698
S2144042401B939E461A91DA4670460AF1080A0EF10A
S214404250010E7DE40CA902229E461A911B92DA4674
S21440426070460AF1080A0EF1010E38E7019B8DF8F8
S2144042702F90002BC0F22A8154EA050326F08006D0
S2144042803FF4FFAB5F46230904F00F0143EA057392
S2144042902A091C461546435C07F8013D54EA0503C7
S2144042A0F1D1C7EB0B030393FFF7F4BB0DAA0099BC
S2144042B00598FFF793FA00287FF46AAF0F9ADA461C
S2144042C087E74FF0000900240025DBE716F01002D0
S2144042D000F0B28004998DF82F300A460C68019998
S2144042E0002902F104024FF00005C0F2598154EA59
S2144042F0050126F0800604923FF451AD994656E5F6
S214404300F7060AD4750608D50499B1F90040043179
S214404310E51722462B460491EAE4049A14681346AD
S2144043200433E517049322462B46E1E4146804322E
S214404330049200251FE64FF0000954EA05037FF477
S214404340E8ACD8E50DAA00990598FFF747FA00288B
S2144043507FF41EAFDA46FFF748BB0DAA00990598D2
S214404360FFF73CFA00283FF445AF11E70DAA009945
S2144043700598FFF733FA00287FF40AAF0E980F9A95
S21440438000F1010EDA46FFF7E3BB0DAA0099059847
S214404390FFF724FA00287FF4FBAE0E980F9A00F140
S2144043A0010EDA469BE6002A40F0D8804FF0010E18
S2144043B01046DA4697E60DAA00990598FFF70EFADA
S2144043C000287FF4E5AE0E9B0F9A03F1010EDA4605
S2144043D022E430228DF83020019A8DF83130002AC0
S2144043E04FF000038DF82F3046F00203C0F2CB802A
S2144043F026F0800646F002064FF0000942E74FF0EE
S214404400000990483EE7019B64424FF02D0965EB5A
S2144044104505002B8DF82F90FFF67BAC26F08006E6
S21440442077E4079B002B72D00CAB02221A931B92A8
S2144044304FF0010EDA4613E716F0400948D00499CB
S2144044408DF82F200B460C880199002903F10403B0
S2144044504FF00005FFF610AE54EA050126F0800640
S21440446004933FF49CAC9146A1E4F0060AD471064E
S21440447008D5049A136804320492BDF808201A80BE
S214404480FFF719BA049A136804320492029A1A6023
S214404490FFF711BA0DAA00990598FFF79FF9002873
S2144044A07FF476AE0E980F9A00F1010EDA46FAE5E2
S2144044B04FF0FF30FFF7B6BA6248164654EA050298
S2144044C004934FF000097FF4DDAEFCE6049BF5E76D
S2144044D0049A8DF82F9013461468019A002A03F127
S2144044E004034FF00005FFF6C7AD54EA050226F078
S2144044F0800604937FF45BAC51E40DAA00990598BE
S214404500FFF76CF900287FF443AE0F9A68E6104632
S2144045104FF0010EDA46E6E504998DF82F300A464C
S2144045200C880199002902F104024FF000054EDB89
S21440453054EA050126F08006049299467FF4E9ABDA
S214404540D4E40493F9E638460494FFF7D9F80023F8
S21440455003909DF82F900193FFF79CBA0DAA0099FF
S2144045600598FFF73BF900287FF412AE0E980F9A95
S21440457000F1010EDA46B6E50E980F9ADFF8CC90B9
S2144045800130FFF7D2BA1E464FF000097AE6062BF6
S21440459028BF06230393049423EAE3752A4F0CE5C9
S2144045A004926AE50E98DFF8A4900130FFF773BBDB
S2144045B0F446FFF71ABB019B9DF82F900393049493
S2144045C00190FFF767BA00220192FFF7ACB9049258
S2144045D09946B2E6049A136801930432002B04927B
S2144045E098F80130A846BFF69CA94FF0FF320192DA
S2144045F0FFF797B98DF82F008EE48DF82F00F0E482
S2144046008DF82F00ABE49946F30705D52AAF302343
S21440461007F8413DFFF797BB019B03935F46FFF7C3
S21440462039BA8DF82F0043E48DF82F00FFF79ABB78
S2144046308DF82F00FFF74DBB8DF82F000FE58DF856
S2144046402F00F3E4085F40001C5F4000245F4000FA
S214404650F0B50C46ADF26C4D8989666EE5891996C3
S21440466021F00201666AADF80E500025E769ADF804
S2144046700C10099606951AAE4FF48065694600966A
S21440468004960295059507970646FFF7E3F8051E3C
S21440469007DB3046694600F029F9002818BF4FF07E
S2144046A0FF35BDF80C305B0603D5A38943F04003C5
S2144046B0A38128460DF26C4DF0BD00BF38B5304B97
S2144046C01B6805460C4613B19A6B002A38D0B4F9DD
S2144046D00C2093B218070CD52069A8B113F001023C
S2144046E01ED0636900225B42A361A260F0B1002045
S2144046F038BDD9063CD5580726D4206942F0080371
S214404700A3819BB20028E9D103F42072B2F5007F62
S214404710E4D02846214600F015FDA3892069DDE750
S214404720990758BF6269A2600028E0D1B4F90C30FE
S2144047301A06DDD543F04003A3814FF0FF3038BD65
S214404740184600F067F9C2E7216B51B104F1400307
S214404750994204D0284600F027FAB4F90C200023EA
S214404760236300232069636022F024022060C5E7AB
S21440477042F0400209232B604FF0FF30A28138BD43
S21440478038044020024B13B1024800F005B8704789
S21440479000000000294A4000002301461A461846F9
S2144047A001F0A2B8B1F90C309AB22DE9F0410D46AD
S2144047B0110780463CD46A6843F40063002AAB8104
S2144047C073DDAC6A002C4BD09BB203F480520021C0
S2144047D092B2D8F80060C8F80010002A69D02A6D56
S2144047E05F0705D569682B6B521A0BB1EB6BD21A73
S2144047F00023E9694046A047441C3CD0B5F90C303C
S2144048002A692A6023F400630022AB81DB046A60D5
S21440481049D4296BC8F8006011B305F140039942AA
S21440482002D0404600F0C0F900202863BDE8F08181
S2144048302E69AEB12C682E6090070CBF6B690023C2
S214404840A41BAB600AE0234632466F6AE9694046DD
S214404850B8470028A4EB0004064404DD002CF2DC34
S2144048600020BDE8F081AB8943F04003AB814FF0B8
S214404870FF30BDE8F081D8F800201D2AF3D81A4B47
S214404880D34003F0010383F00104002BEBD0B5F9CD
S2144048900C302969296023F40063D9046C60AB812D
S2144048A0B7D5002AB5D12865B3E7EA6B002A88DC7D
S2144048B0D6E70123E9694046A047431C024602D09A
S2144048C0AB89AC6A8CE7D8F80030002BF8D01D2BAB
S2144048D001D0162B02D1C8F80060C1E7AB8943F07F
S2144048E04003AB81BDE8F0810100402010B504468E
S2144048F082B008B1836B53B1B1F90C0008B902B06D
S21440490010BD204602B0BDE81040FFF74BBF0191F6
S21440491000F080F80199EFE7014900F0AFBB00BF17
S214404920B15940002DE9F04F354B4568C36300242C
S214404930074600F53B7204230321C0F8E412C0F892
S214404940E822C0F8E04283B02C606C60AC606C66D5
S214404950EC812C616C61AC61AB81214605F15C0059
S2144049600822FEF7B5FDBE68DFF898B0DFF898A0DD
S214404970DFF89890DFF89880C5F820B00123092228
S214404980C5F824A0C5F82890C5F82C80ED612146CE
S214404990F381B28106F15C0034607460B460746682
S2144049A034617461B46108220193FEF791FDFD689D
S2144049B0F66112200222C6F820B0C6F824A0C6F837
S2144049C02890C6F82C802146A881EA812C606C602D
S2144049D0AC606C662C616C61AC6105F15C000822D1
S2144049E0FEF776FD019BED61C5F820B0C5F824A022
S2144049F0C5F82890C5F82C80BB6303B0BDE8F08F9F
S214404A0019494000195740003D574000795740002B
S214404A1099574000836B03B17047FFF783BF00BFD1
S214404A20704700BF704700BF38B5074D074C2C1B7A
S214404A30A41005D0013C55F8043D9847002CF9D108
S214404A40BDE8384001F080BA585F4000545F4000EF
S214404A502DE9F04782B080468946144600F03CFB7C
S214404A60012833D004F15C034A4601A9404600F0D1
S214404A70EDFEB0F1FF3F824621D088B39DF804603A
S214404A80002508E023685A1C22601E7001355545F3
S214404A9026D201AB5E5DA368013B002BA360F1DA32
S214404AA0A769BB4231462246404601DB0A2EE9D181
S214404AB000F076FE431CE9D102B0BDE8F087A3893A
S214404AC043F04003A38102B0BDE8F08709F1FF330D
S214404AD0FE2BC7D85FFA89F682468DF80460CFE78A
S214404AE0484602B0BDE8F087B2F90C3013F4005FD8
S214404AF00AD110B4546E43F4005344F40054546640
S214404B00938110BCFFF7A4BFFFF7A2BFF8B5234FB1
S214404B100C460646FEF72AFDBB685D6825F0030591
S214404B20291B01F6EF7121F47F6121F00F01A1F5F9
S214404B308054B4F5805F07DB00213046FEF71AFD4F
S214404B40BB682B44984204D03046FEF711FD002047
S214404B50F8BD61423046FEF70DFD01300DD0104BDA
S214404B60BA6819682D1B45F001053046091B55608B
S214404B701960FEF7FDFC0120F8BD00213046FEF727
S214404B80F9FCBA68831A0F2BDEDD064C044924680C
S214404B9043F00103001B53600860D5E73C04402007
S214404BA0640A402048084020002945D02DE9F041BD
S214404BB00D468046FEF7DAFC55F8047C6A4927F035
S214404BC00103A5F10804E2188E685068B24220F04E
S214404BD0030062D0FE0750600BD455F8087CE41BF7
S214404BE001F1080EA56875453B446FD0E768EF6055
S214404BF0BD6015186D68ED0742D543F0010262604E
S214404C00E350B3F5007F18D2DB085A1C4D6851F8C4
S214404C103270A76001209B1000FA03F301EBC2003C
S214404C201D430838E0604D6041F83240FC60404625
S214404C30BDE8F041FEF79CBC70475A0A042A53D898
S214404C409A0902F139077F0002F1380501EB870027
S214404C5051F827204449083890424DD0516821F0F9
S214404C6003018B4202D292689042F7D1D068E0604E
S214404C70A2608460D4604046BDE8F041FEF778BC50
S214404C8095683A4FBD4203443FD0D068E86043F051
S214404C90010285606260E350B3E7FF07034407D430
S214404CA055F8082CA41A1344A068E268C2609060C5
S214404CB02F4A126843F00100934260608C60B6D37E
S214404CC02C4B40461968FFF721FFB0E7111849689A
S214404CD0C90744D49168D268CA60034443F00100CF
S214404CE091606060E350A2E7142A17D802F15C078F
S214404CF07F0002F15B05A9E7AA104B68012505FA7B
S214404D0002F213434B600246B1E743F001024C61A6
S214404D100C61E560A5606260E35088E7542A06D8D7
S214404D201A0B02F16F077F0002F16E058EE7B2F5AF
S214404D30AA7F06D8DA0B02F178077F0002F17705E2
S214404D4084E740F25450824206D89A0C02F17D071E
S214404D507F0002F17C0579E7FE277E2576E743F063
S214404D6001026260E35062E73C0440204404402075
S214404D7044084020600A40209368002B76D02DE9F6
S214404D80F04F8B8985B00C4619070190164629D5F9
S214404D9022693AB303F002081FFA88F03568002803
S214404DA02FD04FF00009B44FC846B246B8454346E8
S214404DB04A4628BF3B460198B8F1000F50D0E169FB
S214404DC0666AB047002871DDDAF808301B1A81445D
S214404DD0C0EB0808CAF80830002BE7D1002005B021
S214404DE0BDE8F08F21460198FFF768FC002840F0A8
S214404DF03A81A389356803F002081FFA88F0002834
S214404E00CFD113F001095BD14F4602961FB39A05E6
S214404E10D4F808802CD54745C246C0F0A48013F489
S214404E20906F40F0B18020685246494600F020FA24
S214404E30A0682368C8EB00005344A060236038464F
S214404E40029A93681B1A81443F1A9360002BC5D080
S214404E50A389002FDBD1D5F800906F680835D5E7D9
S214404E60D5F80090D5F8048008359FE700207047B5
S214404E7020682369984203D861698F4280F0B780E2
S214404E80B84528BFB8464246494600F0F1F9A368FF
S214404E902268C8EB03034244A3602260002B49D13A
S214404EA021460198FFF722FD002843D0B4F90C3084
S214404EB043F040034FF0FF30A38105B0BDE8F08FCC
S214404EC08046029082468146B9F1000F2AD0029B66
S214404ED0002B4CD0206823696269C845C34628BF6A
S214404EE0CB4698425F4604D9A36813449B4500F3DB
S214404EF09080934520DB1346676AE16901985246E5
S214404F00B847071ED2DDB8EB070823D0B368DB1BD3
S214404F10BA44C7EB0909B360002B3FF45FAFB9F161
S214404F20000FD4D10023D5F800A0D5F80490029302
S214404F300835C9E7404683E75A46514600F098F997
S214404F40A2682368CBEB02025B44B8EB0708A2607A
S214404F502360DBD121460198FFF7C8FC0028A5D185
S214404F60CDF80880D2E72068B846BA465CE74A469D
S214404F700A21504600F02CF900286FD0013001235A
S214404F80CAEB00080293A5E762692068216902EB34
S214404F904208C1EB000A08EBD8780AF101004FEA54
S214404FA0680838444045424684BF804642465B05D2
S214404FB042D511460198FDF739FF8346002855D063
S214404FC052462169FEF7EAF9A38923F4906343F039
S214404FD08003A381CAEB08030BEB0A00C4F81480D5
S214404FE0C4F810B02060A360B846BA461CE76FF01D
S214404FF00043BB4228BF3B464A4693FBF1F3019829
S214405000666A01FB03F3E169B04700283FF718AF33
S2144050104CE71A465146039300F02AF92268039B50
S21440502001981A4422602146FFF760FC039B002843
S2144050307FF43CAF1F4666E7019800F07DF9834653
S2144050400028C7D1019D21692846FFF7ADFDB4F978
S2144050500C300C2223F080032A6029E7012309F153
S2144050600108029336E74FF0FF30B8E6019A0C236A
S2144050701360B4F90C301BE700FCFF7F2DE9F843C2
S21440508010F538771FD0884606464FF000097D68F1
S214405090BC68013D11D4A389012B05F1FF3508D921
S2144050A0B4F90E3001332146304602D0C04749EAB3
S2144050B000096B1C04F16804EDD13F68002FE6D16F
S2144050C04846BDE8F883B9464846BDE8F88300BF81
S2144050D0004870474C084020014B1868704700BF96
S2144050E06C08402070B50D46B1F90E10002990B0FE
S2144050F014461E4614DB01AA00F09CFC00280FDB79
S214405100029A02F47042A2F50052B2FA82F25209B2
S2144051104FF480634FF400603260236010B070BD7F
S214405120A88900F0800082B2002030601AB1402387
S214405130236010B070BD4FF480631046236010B0FB
S21440514070BD00BF8A8992070B4606D501F143021F
S21440515001211A601A6159617047F0B583B001ABFE
S2144051606A460C460546FFF7BDFF009906462846A8
S214405170FDF75CFEB4F90C30D0B1019A124F00999D
S214405180EF6343F08003A3812060206161611AB918
S2144051903343A38103B0F0BD2846B4F90E1000F0A7
S2144051A05DFCB4F90C300028F2D043F00103EFE781
S2144051B09A05EFD404F1430243F002030121A38190
S2144051C0226022616161E5E7194940000000000065
S2144051D001F0FF01102A2BDB10F0070F08D010F863
S2144051E0013B013A8B422DD010F0070F42B3F6D167
S2144051F0F0B441EA012141EA014122F007047FF080
S21440520000070023F0E80256083C85EA010586EAD6
S214405210010685FA47F5A3FA87F586FA47F6A5FA12
S21440522087F68EB9EED1F0BC01F0FF0102F007021E
S21440523032B110F8013B013A83EA010313B1F8D1C9
S2144052400020704701387047002D06BF35460338AA
S214405250073815F0010F07D1013015F4807F02BFE3
S214405260013015F4C03F0130F0BC0138704700BF34
S2144052708842F0B50DD98B1898420AD28118002A78
S21440528051D09A1A13F8014D01F8014D9342F9D1C5
S214405290F0BD0F2A48D941EA00039B0746D100F1EA
S2144052A0100401F11003154653F8106C44F8106CC6
S2144052B053F80C6C44F80C6C53F8086C44F8086CC3
S2144052C0103D53F8046C44F8046C0F2D03F11003A2
S2144052D004F11004E8D8A2F1100323F00F0302F003
S2144052E00F0E1033BEF1030F1944034421D91E1F7D
S2144052F00D467446043C55F8047B46F8047F032C60
S214405300F8D8AEF1040424F00304043423442144C2
S21440531002F0030262B1013B0A4411F8014B03F864
S214405320014F8A42F9D1F0BD0346F3E70346F2E760
S214405330F0BD7246EEE700BF2DE9F04F174683B04A
S214405340002900F0C1800E46814607F10B05FEF7A6
S2144053500DF956F804EC162D2EF00304A6F10808B5
S21440536040D810221546AF4241D8944275DAC94B10
S214405370996808EB04008842416800F0D98021F023
S214405380010303445B68DB077DD51EF0010F35D073
S21440539039464846FDF74AFD0746E0B156F8043C14
S2144053A023F001034344A0F108029A4200F04481EE
S2144053B0221F242A00F23181132A00F20481034678
S2144053C03246116819605168596092689A60314651
S2144053D04846FFF7E9FB4846FEF7CAF8384603B0AA
S2144053E0BDE8F08F25F00705002D2A46BBDA0C23D2
S2144053F00020C9F8003003B0BDE8F08F56F8083CEE
S214405400C3EB080ADAF8043023F0030C04EB0C0371
S2144054109342BDDB5746DAF80C1057F8080F221FA8
S214405420242AC160886000F21781132A40F2128154
S2144054303168CAF808107168CAF80C101B2A00F2C6
S2144054402B8108360AF1100231681160716851608C
S214405450B16891603E461C46D046631B0F2B1DD854
S214405460D8F8043003F0010323434444C8F804301A
S214405470636843F0010363604846FEF779F83046B8
S21440548003B0BDE8F08F21F003012144914221DBB7
S214405490C36882680C46D3609A60DEE7D8F804207A
S2144054A008EB050102F00102154343F001020B44EC
S2144054B0C8F804504A605A6842F0010208315A60FF
S2144054C04846FFF771FBD7E7114603B0BDE8F04FFB
S2144054D0FDF7ACBC1EF0010F7FF45AAF56F8083CFF
S2144054E0C3EB080ADAF8043023F0030C01EB0C0E89
S2144054F096458BDBC36882685746D3609A6057F8F8
S214405500081FDAF80C30CB60221F242A996000F27C
S2144055109980132A62D93368CAF808307368CAF883
S2144055200C301B2A00F2A08008360AF1100356E021
S21440553021F0030BA34405F11000834559DA1EF011
S214405540010F7FF425AF56F8081CC1EB080ADAF8BD
S214405550041021F0030CE34458453FF757AF574635
S214405560DAF80C1057F8080F221F242AC16088600A
S21440557000F2B480132A40F2A5803168CAF80810B9
S2144055807168CAF80C101B2A00F2AF8008360AF180
S21440559010023168116071685160B16891600AEB21
S2144055A00501C5EB0B0242F0010299604A60DAF849
S2144055B0043003F001031D434846CAF80450FDF783
S2144055C0D7FF38465CE733680360736843601B2A3E
S2144055D027D800F1080306F10802F2E63B46326897
S2144055E01A6072685A60B2689A603E467446D04600
S2144055F033E708EB0501C5EB0B0B4BF00102996056
S2144056004A6056F8043C03F001031D43484646F8FA
S214405610045CFDF7ADFF304632E73146FFF728FE23
S214405620D5E6B3688360F368C360242A28D000F1C7
S214405630100306F11002C4E650F8043C23F00303BE
S2144056401C440AE7314638467446D046FFF710FEFB
S2144056503E4602E73A46F7E6314638461C46D046CE
S214405660FFF706FE3E46F8E6B368CAF81030F36821
S214405670CAF81430242A1BD010360AF11803AEE7B5
S214405680336903617369436106F1180200F1180338
S21440569097E600BF3C044020B168CAF81010F16895
S2144056A0CAF81410242A0FD010360AF11802CBE696
S2144056B03369CAF818307369CAF81C3018360AF1CC
S2144056C020038CE73A4664E73269CAF818207269C4
S2144056D0CAF81C2018360AF12002B5E6314638468C
S2144056E00193FFF7C5FD019B59E7B168CAF8101052
S2144056F0F168CAF81410242A03D010360AF11802AA
S21440570047E73269CAF818207269CAF81C2018366A
S2144057100AF120023DE700BF10B50C46B1F90E1065
S21440572000F0C4F9002803DB236D0344236510BD55
S214405730A38923F48053A38110BD00BF2DE9F04117
S2144057401646B1F90C201F46D3050C46054607D52C
S21440575000220223B1F90E1000F092F9B4F90C20A1
S214405760B4F90E1022F48052A2813B4632462846B7
S214405770BDE8F04100F0A2B810B50C46B1F90E10E5
S21440578000F07EF9A389421C0EBF23F4805343F4F5
S21440579080532065A38110BDB1F90E1000F0F6B815
S2144057A0F8B50E461446074610B1836B002B4AD018
S2144057B0B4F90C20A369A36091B2080738D52369D1
S2144057C0002B35D08904F5B215D522686169D31A05
S2144057D08B421CDA0133A168501C0139A16020605D
S2144057E0167062699A421AD0A389DB0701D50A2D42
S2144057F015D02846F8BD616E42F4005221F400519F
S214405800A281226861666169D31A8B42E2DB214637
S2144058103846FFF76BF840B922680123DBE721469C
S2144058203846FFF763F80028E3D04FF0FF30F8BD66
S21440583021463846FEF742FF0028F6D1B4F90C2040
S214405840236991B2BEE7FFF7E5F8B1E72DE9F041ED
S214405850054686B01E460C46A1B1104B1746D3F8F7
S2144058600080FFF735FC009603463A462146284618
S214405870C047431C03D100228A2332602B6006B007
S214405880BDE8F081054B1F68FFF722FC00960346F3
S214405890224603A92846B847EBE700BF70084020D9
S2144058A021B1FF2A04D80A70012070470846704785
S2144058B08A2303604FF0FF30704700BF70B50D4637
